:020000040800F2
:1000000080400020D5000008AD990008958E0008BA
:1000100000000000000000000000000000000000E0
:1000200000000000000000000000000049A10008DE
:100030000000000000000000559A000805A200081A
:10004000E7000008E7000008E7000008E7000008F4
:10005000E7000008E7000008E7000008D53F0008B7
:10006000E70000087D2E00088D2E0008A52E000850
:10007000E7000008E7000008E7000008E7000008C4
:10008000E7000008000000000000000099A200083E
:1000900000000000E7000008E7000008E700000893
:1000A000E7000008E7000008E7000008E5B30008E3
:1000B000F1B3000800000000000000000000000094
:1000C0000348854600F054FE004800470DB600087E
:1000D000804000200448804704480047FEE7FEE7D0
:1000E000FEE7FEE7FEE7FEE789A20008C100000880
:1000F000004870472CC1000810B50446FFF7F8FF10
:100100000068005DC007C00F10BD014661391929A4
:1001100000D82038704701464139192900D82030CD
:10012000704703460B439B0703D009E008C9121F21
:1001300008C0042AFAD203E00B780370401C491C63
:10014000521EF9D27047D2B201E00270401C491E23
:10015000FBD270470022F6E710B513460A46044664
:100160001946FFF7F0FF204610BD10B5044605E024
:100170000B780370401C002B00D0491C521EF7D294
:10018000204610BDCAB2401E4178401C8A4202D0AF
:100190000029F9D100207047421C0178401C002939
:1001A000FBD1801A704710B5002200E0521C835C1E
:1001B0008C5CA34201D1002BF8D1D8B2E1B2401A35
:1001C00010BD03460A780270401C491C002AF9D170
:1001D00018467047F8B50E460546002400E0641C3A
:1001E000285DFFF798FF0746305DFFF794FF381A48
:1001F00002D1295D0029F2D1F8BD00000FB400B58D
:100200008DB009900B9010A900200091C0430A9076
:1002100000200C9006480690064807906A4609A8F8
:100220000F9900F099FB0DB008BC04B0184700000E
:100230007909000899090008FFB50027FF4383B03A
:1002400000205C6801909E681D46A9697F1C049887
:1002500088470090296A88470028F6D10098401CFA
:100260000CD0032040028443002E19DD600614D513
:1002700000982B2809D02D280FD103E00020C0437F
:1002800007B0F0BD012080020443A9697F1C0498D7
:100290008847761E0090002E02DD0098302803D09B
:1002A0000598002825D035E0012040020443A969C3
:1002B000761E7F1C049888470090002E03DD782866
:1002C00005D0582803D00598002810D022E00598C2
:1002D000002801D010281DD1012040028443A969C3
:1002E000761E7F1C049888470090102002E00820AA
:1002F00000E00A2005900DE0012149020C43059A17
:100300000199761E514308180190A9697F1C049831
:1003100088470090002E05DD0599009800F006FB47
:100320000028E9DAE96904988847A00502D4012089
:10033000C043A5E7E00722D1600611D5600501980A
:1003400000D5404229680A1D2A600968220501D5A6
:10035000087014E0220701D5088010E008600EE064
:100360002868011D29600068210502D501990170E6
:1003700005E02107019901D5018000E001603846C0
:100380007EE70000F7B5009C0F4600262578641C28
:10039000002D05D0FFF7ACFE0068405DC007F5D129
:1003A0002B2D02D02D2D18D0641E39462046029ADE
:1003B00000F004FB002F04D03968A14201D100995C
:1003C00039607105022400290BDA4042002803DD60
:1003D0000BF0E0F90460A007FEBD01208002064397
:1003E000E3E70028F8DA0BF0D5F904600048FEBD19
:1003F000FFFFFF7F70B506460BF0CCF90468054699
:100400000A2200213046FFF7BDFF2C6070BD70B599
:1004100006460BF0BFF9046805460A220021304663
:10042000FFF7B0FF2C6070BDF8B502464A40D40F0C
:1004300042004B0052085B089A4202D2024608462C
:1004400011464A0023D0C30D4A00DDB2120EAD1A88
:10045000202D35DA49020126490AF6058A19002CB1
:1004600000D0524220214F1B1146B9402A4110189A
:10047000C20D9A4221D0002C17D0012D08DCDA05DC
:10048000801AD20F8019D207DBB200F0F2FAF8BD61
:10049000DA05801A012340001B06C01880185A4252
:1004A0008018CA0F1043490007E04908C2071143EA
:1004B000DA05801A80194008801800F0D2FAF8BDD9
:1004C00061000122511A001BF7E70122D2075140B7
:1004D000AAE70122D2075040A6E7024670B54A407B
:1004E000D30FDB0740002DD04A002AD0010E140E96
:1004F000000212020919400A520A8418E501044652
:100500005443000A120A2E045043A4194219200C25
:10051000C543AA18120C0125AD03521C521912042E
:100520007F39240400D0521C104301D44000491EDE
:10053000C2B20C06C0092018401C4008802A02D014
:1005400003E0002070BD40084000002900DA0020D0
:10055000184370BD70B502464A40D50F40004A00AE
:10056000ED0740085208002814D0002A12D0C40D0C
:10057000D30D41020120C0055202490A520AE41A71
:10058000091812187D34914201D3641C00E049001F
:10059000002C01DA002070BD0023914201D3891A9A
:1005A0000343400849000028F7D100290AD09142AE
:1005B00002D10121C90705E0914201D2012101E0E8
:1005C0000121C943E005C018401900F04AFA70BD86
:1005D000F0B51FB488B00B990998002448400999D8
:1005E000C00F490049080991C0070B9900904900C4
:1005F00049080B9109990898A64608431CD00B9905
:100600000A98084318D0099801244000420D480078
:10061000410D099824050003000B204309900B9815
:100620000003000B20430B9050181C494018002277
:1006300001901446104605E0002001460DB0F0BDC3
:10064000032801DA034600E003239C46C11A0AAEE0
:100650000AE05F0008ADED5B4F00F75B7D430027CC
:10066000AA187C41491C5B1E6145F2DD410004ABC8
:100670005A522104120C0A43240C401C0828DFDBC8
:10068000019802900099704601910090059B049A90
:100690000799069800F033FAD0E700000DFCFFFF41
:1006A000F0B50C465C4085B0E40FE40703944C00C1
:1006B00000266408590094464908024602962243DF
:1006C00021D062460A431ED06200570D4A000E0335
:1006D0002303550D012402462C492405781B1B0BCE
:1006E000360B401823432643614600901C46501A9F
:1006F000B44103D30098401C009002E09218009887
:100700005B41002803DA0020014605B0F0BD00205F
:10071000012109050746864611E064461D46141B63
:10072000B54106D36546521BB341744607430C439B
:10073000A646CD0740084908284392185B41054664
:100740000D43EAD11046184313D060461946504075
:100750007140084306D06046101AB34106D2012208
:10076000002306E000220123DB0702E00122D2433E
:100770005310009874460105381C6141029C039D8A
:100780000019694100F0AEF9BFE70000FD03000069
:100790000122D207002800DB101A002900DB511AC1
:1007A000814201D201207047002070470122D20708
:1007B000002800DB101A002900DB511A814201D900
:1007C0000120704700207047C217C10F504010B57C
:1007D0004018CA079623002100F04BF910BD10B550
:1007E00000229623114600F044F910BD0EB5C21741
:1007F000C10F5040CA0740180021054B02930192D7
:1008000000910A460B4600F07AF903B000BD0000E3
:1008100033040000C20F410040020123400ADB05FF
:10082000D207090EC0187F2901DA002070479629E7
:1008300003DC9623591AC84001E096398840002A03
:10084000F4D040427047C20FD207400040080BD09E
:10085000C10D0723DB01C91840020905400A1143F5
:10086000C20840071143704700200146704770B529
:100870000446002903D000202022012310E0002894
:1008800001D00020C043C046C0460DE02546D540FB
:100890008D4205D30D469540641B1D469540401979
:1008A0001546521E002DF1DC214670BDF0B51FB477
:1008B0000646002082B005464024019100901BE0CE
:1008C000019922460F46304600F06AFA049A059BC9
:1008D000801A994110D310461946224600F016F8A6
:1008E000361A8F410197224601200021009F00F017
:1008F0000DF838184D4100902046641E0028DFDCBA
:10090000019B00982946324607B0F0BD10B5202A59
:1009100004DB0146203A9140002010BD9140202385
:100920009C1A0346E3401943904010BD3A2800D278
:100930003038202302469A43412A01D310463738E3
:10094000884201D30020C04370470000026813783A
:10095000511801601846704710B5D16004495161C3
:100960000449116200211161114600F03DFA10BDE9
:100970004D090008F90000084268002A08D0016803
:100980000B78491C002B03D0521E06C01846704736
:100990000121C160881E70474268002A0BD0C368DD
:1009A0000168002B07D183688B4204D0491E521C7A
:1009B00006C0002070470020C0437047F7B582B0E2
:1009C000029C00272078641C15460197302802D02D
:1009D000002D15D015E020780127641C782804D05C
:1009E000582802D0002D09D00BE0002D01D0102D89
:1009F00007D1002710252078641C02E0082500E0BC
:100A00000A250026009610E000990127694308187E
:100A1000020C294680B2714300908E183804864239
:100A200001D3012001902078641C2946FFF77EFF46
:100A30000028E9DA0398002805D0002F01D0641EB1
:100A400000E0029C04600198002806D00AF0A2FE93
:100A500002210160C81E05B0F0BD009930040843B2
:100A6000F9E7002904DA401C490001D140084000A0
:100A7000704770B40024050C05D11024000402D185
:100A8000002921D01124050E01D100020834050FE0
:100A900001D10001241D850F01D18000A41C002874
:100AA00001DB4000641C002908D020252E1B0D46C8
:100AB000F540A14000D001212943084301061B1B3A
:100AC000000ADB1D02D5002070BC7047DB0518183A
:100AD00080180029F8DA401C4900F5D170BC4008A4
:100AE0004000704710B5002B08DA0024401C61411B
:100AF00092185B411A4301D14008400010BDF0B587
:100B00001FB482B005460C0003D008460AF02AFE46
:100B100002E00AF027FE20300246009021462846D7
:100B2000FFF7F4FE049B059A04460F461843114351
:100B3000084314D0184610431BD0009840210A1ACD
:100B40001846059900F02CF905460E46009A0599BD
:100B50000498FFF7DBFE084305D0012004E020469F
:100B6000394607B0F0BD0020C11705430E432C43A2
:100B7000374300990E986305401A7905E40A00226C
:100B80000C43FD0A0A3002D500200146E9E70105C1
:100B9000101969410C9C0D9D00196941FFF7A2FFD6
:100BA000DFE70000F0B507460846584087B0C00FA1
:100BB000049048000E46590040084908BC1A884174
:100BC00005D2384631461E4617460B4602465800A7
:100BD000400810434CD0300D039040055900400DA3
:100BE000490D0590401A0290402872DA180301213D
:100BF000000B09050843019004980092002805D0D5
:100C000001995242002088410092019002984021AF
:100C10000A1A01990098FFF779FE05460C466B46C3
:100C200007CB00F0CEF8C0197141039A0E0D0023D6
:100C3000D71756401A467A40164344D0049A002AE1
:100C40002DD0029A012A039A15DC1205C01A91418F
:100C500001263605001C7141D20F059ED207009374
:100C6000019202962A462346FFF749FF07B0F0BDDE
:100C700038463146FAE71605224A0F46B218C01A1E
:100C8000B74101210905001C4F4100187F41114661
:100C900018187941E20F10436D19644113E0E2071F
:100CA0006D0815436408C2071443039A0126120510
:100CB000C01A91413605001C7141CE0740083043EF
:100CC0004908C01851412A462346FFF70BFFCDE7DC
:100CD000FFE7049801224000C117121A00238B413C
:100CE00004983146C417381AA141EEE730B4012404
:100CF000E407634030BC55E730B40124E4076140A9
:100D000030BC4FE70000E0FF4A0009030123090B54
:100D10001B0519430A4B10B5520D9A4202DA002006
:100D2000014610BD064B34339A4203DC9A1A00F098
:100D300037F810BD034BD218FFF7E8FD10BD0000D7
:100D4000FF030000CDFBFFFF10B5002904DB0124E9
:100D5000E40740428C412146002B04DB1C46012362
:100D6000DB075242A341994200D1904210BD0000DE
:100D70001CB5094800900948019005460126009CD1
:100D800005E0E36807CC33430C3C98471034AC4291
:100D9000F7D3FFF799F90000182401083824010857
:100DA00010B5202A04DB0846203AD040002110BDAF
:100DB0000B46D340D0402024A21A91400843194644
:100DC00010BD10B5202A06DBCB170846203A10418B
:100DD000C1170B4306E00B461341D0402024A21A52
:100DE00091400843194610BDF3B58DB000200A901C
:100DF00001200B90002608460C300C4609906269D1
:100E0000012109989047051E2ED0252D2DD0216A4D
:100E10008847002818D06269012109989047216A03
:100E200088470028F7D1411E62690998904700E081
:100E3000761CA1690D988847216A88470028F7D158
:100E4000E1690D988847DAE7A1690D988847074658
:100E5000A84201D1761CD2E7E1690D9888477F1C32
:100E600002D10A98002877D049E1002762693D46FF
:100E70003946099890472A280CD1626901210998BE
:100E80009047012506E00A214F433F18303FEBD43D
:100E900010200543626901210998904701463039C5
:100EA0000A2903D29B498F42DEDCECE7E90600D435
:100EB000994F6C280AD04C2810D0682824D06A2872
:100EC0002ED074280CD07A280AD00DE06269012156
:100ED000099890476C2823D004211CE0202005436A
:100EE0006269012109989047A760656065284FD025
:100EF00026DC582839D01ADC452849D012DC2528B0
:100F000034D04128B0D143E062690121099890476B
:100F1000682802D008210D43E6E70120C002DEE781
:100F20000220DCE7462833D047282CD130E05B286C
:100F300070D061282CD063286CD0642823D161E064
:100F40006F284FD009DC662822D0672820D0692876
:100F500026D06E2817D12EE0CDE070284DD0732812
:100F60006FD075284ED078280DD154E0A1690D9826
:100F700088470546252800D16CE7E1690D98884728
:100F80006D1C00D16DE7BAE00A224CE00A2252E063
:100F9000012023466A46C0430D99C046C046A3E0DF
:100FA0002846402108436060A807234601D5002257
:100FB00039E000223FE0E80700D020E72068011D6B
:100FC00021600068290501D5067018E7290701D5B9
:100FD000068014E7A90703D5F117066041600EE704
:100FE00006600CE72846402108436060A8072346B6
:100FF00001D5082217E008221DE04849284608408C
:10100000606016E02846402108436060A807234638
:10101000BCD5B9E715E02846402108436060A80721
:1010200007D5234610220120C0430D99C046C04673
:101030005AE0234610220120C0430D99FFF7FCF827
:1010400052E000210C910B460091632802D05B28EE
:1010500007D043E0E80601D40120A0600120009001
:101060003CE062690121099890475E2805D1012082
:101070000C9001466269099890472169002906D1C0
:101080000B4601AA8F00491CD3510829FADB00281E
:1010900035D0216900290ED1C117C90E09184A118E
:1010A000930001AA9A1849094901411A01201368BD
:1010B00088400343136062690121099890475D28C5
:1010C000E5D10C98002808D0002001AB81005A58C7
:1010D000401CD2435A500828F8DB01AB01202246BD
:1010E000C0430D99C046C04600280ADA401C06D10C
:1010F0000B98002803D00020C0430FB0F0BD0A9821
:10110000FBE7E90702D10A99491C0A913618002029
:101110000B9074E6CCCCCC0CFFFFFF7FF1F7FFFF08
:10112000F0B581B005460024009400688168C907C5
:101130001CD181682B4A2F3211420AD0A86D102190
:101140000143A965E86D01242043E865204601B00C
:10115000F0BD8168234A114001273943816022484C
:101160000068000205D4687E012825D1204601B020
:10117000F0BD1E4800681E49FFF779FB401C009037
:1011800000980028EFD00098401E0090009800289A
:10119000E9D00098401E009000980028E3D0009805
:1011A000401E009000980028DDD00098401E00905E
:1011B00000980028E7D1D6E704F0F0FD064604E0E9
:1011C00004F0ECFD801B0328B8D228680168C90729
:1011D000CCD18168C907F3D18168024A11403943F3
:1011E0008160EDE7E8FFFF7F082701403000002025
:1011F000400D0300F0B583B05E490A684968401AA3
:1012000086185B49CF6801200023BE4202460EDDEE
:101210004C68A64205460FDA1543012D10D14D69E1
:10122000AE4213DC0022BE42034613DA13E01A4634
:101230004C68A6420546EFDB1D461543012DEED056
:101240000D4608350868A74217D043E00122BE4288
:10125000034600DB1346012B06D1CB699E420EDC10
:101260000022AE420EDA0EE028460D461035083157
:101270003C4607460868A7422CD103B0F0BD0122C6
:10128000AE4200DB1046029500281BD0A6423BDA96
:10129000886809680291FFF718F90546381BFFF7BF
:1012A00093FA01462846FFF755F90546301BFFF72C
:1012B0008BFA01462846FFF710F90299FFF7B4F8B8
:1012C00003B0F0BD0D4618351031029C1F4608686A
:1012D000A742D2D0391B07460846FFF775FA02909D
:1012E00028683946FFF7F1F80299FFF733F9054608
:1012F000301BFFF769FA01462846FFF7EEF839463A
:10130000FFF792F803B0F0BD8869019009691C46A7
:10131000FFF7DBF807460298201AFFF755FA014657
:101320003846FFF717F90546301BFFF74DFA01461F
:101330002846FFF7D2F80199FFF776F803B0F0BD21
:10134000B0B50A4C012500222046294604F01DFDB7
:10135000284604F01FFC204629462A4604F015FDC5
:101360000348406803490860B0BDC046000400500F
:1013700034000020CC000020F0B585B072B6002506
:101380002C46009505E0019F79000D18641C182C6F
:101390004ED00195102101223D4804F0F6FC009842
:1013A00003900398072817D80398401C03900398CC
:1013B000072811D80398401C0390039807280BD8DE
:1013C0000398401C03900398072805D80398401CF5
:1013D000039003980828E7D320212D4F384604F0C6
:1013E000CFFC0546102100263846324604F0CDFCDD
:1013F0000496691E4842484104990729C3D80499B4
:10140000491C049104990729BDD80499491C0491E9
:1014100004990729B7D80499491C0491049907290C
:10142000B1D80499491C049104990829E7D3AAE783
:1014300010210122164804F0A8FC02960298072801
:1014400017D80298401C02900298072811D80298D9
:10145000401C0290029807280BD80298401C02906A
:101460000298072805D80298401C02900298082884
:10147000E7D310210022064804F087FC780202D549
:10148000FF200006054362B6284605B0F0BDC04601
:1014900000080050B0B5FFF76FFF0446FFF76CFF80
:1014A0008442254609DA84420ADDFFF765FF84425B
:1014B0000BDAA5420CDD2846B0BD05468442F4DCBB
:1014C0000446FFF759FF8442F3DB0446A542F2DCF1
:1014D00025462846B0BD0000F0B591B0F7A00AF04F
:1014E000D3FD012080050B90FF20019000060A909B
:1014F0000024F04D0C940294EF494E1C0C9A1446B3
:10150000134603E0641C202C00D1EFE107940893FC
:1015100009920691304672B60C9E3446059005E05D
:101520000E9949000E18641C182C4ED00E961021EE
:101530000122284604F029FC0C98109010980728E6
:1015400017D81098401C10901098072811D81098A0
:10155000401C1090109807280BD81098401C109031
:101560001098072805D81098401C1090109808284B
:10157000E7D32021284604F003FC0646102100276B
:1015800028463A4604F001FC0D971097711E484218
:10159000484110990729C3D81099491C10911099F6
:1015A0000729BDD81099491C109110990729B7D85F
:1015B0001099491C109110990729B1D81099491C0C
:1015C000109110990829E7D3AAE710210122284693
:1015D00004F0DBFB0D9810901098072817D810988E
:1015E000401C10901098072811D81098401C10909B
:1015F000109807280BD81098401C109010980728B6
:1016000005D81098401C109010980828E7D3102196
:1016100028460D9C224604F0B8FB31460A98014347
:1016200004910B980E9901400E9162B672B627464E
:10163000204606E00F99490008187F1C182FBE4D60
:101640004ED00F9010210122284604F09EFB0D98E9
:1016500010901098072817D81098401C10901098D8
:10166000072811D81098401C1090109807280BD804
:101670001098401C10901098072805D81098401C0E
:10168000109010980828E7D32021284604F078FB12
:101690002A460546102100241046224604F075FB18
:1016A0001094691E4842484110990729C2D81099E0
:1016B000491C109110990729BCD81099491C109108
:1016C00010990729B6D81099491C1091109907292B
:1016D000B0D81099491C109110990829E7D3A9E7AF
:1016E0000D9010210122284604F04FFB10940E9813
:1016F000002800D0049E04961098072817D8109848
:10170000401C10901098072811D81098401C109079
:10171000109807280BD81098401C10901098072894
:1017200005D81098401C109010980828E7D3102175
:101730002846224604F029FB0D990A98014303919B
:101740000B980F9901400F9162B672B62646254656
:1017500005E00E9949000D18761C182E4ED00E95F6
:1017600010210122744D284604F00FFB10941098AC
:10177000072817D81098401C10901098072811D8E7
:101780001098401C1090109807280BD81098401CF7
:1017900010901098072805D81098401C10901098A9
:1017A0000828E7D32021284604F0EAFA2A4605460D
:1017B0001021002710463A4604F0E7FA1097691EF8
:1017C0004842484110990729C3D81099491C1091E3
:1017D00010990729BDD81099491C10911099072913
:1017E000B7D81099491C109110990729B1D81099B0
:1017F000491C109110990829E7D3AAE7102101226A
:101800004D4804F0C2FA10970F98002801D00398B1
:101810000D9010980728079C049E17D81098401C1C
:1018200010901098072811D81098401C109010980C
:1018300007280BD81098401C10901098072805D83E
:101840001098401C109010980828E7D3102100220F
:1018500039480F9204F099FA62B60A2004F09AF916
:101860000B980E99014201D00A980543099A089BEA
:10187000069F0D998E42304611DDA84212DA8E4243
:1018800013DA86422C4D00DC0646F0179B194241C4
:1018900005988642314623DDB94225DA32E608460C
:1018A000A842ECDB28468E42EBDB0E468642224DF8
:1018B000EADDEAE700080050FFFFFF7F5461726134
:1018C0006E646F2E2E2E20416775617264652065EF
:1018D00073746162696C69646164652E0D00000057
:1018E0000646B94200DA0DE639460BE6711A019850
:1018F0002C308142029C0DDD1BA009F0F3FE641C1C
:101900000A2C00D0F7E526480AF0BEFB0B484068D9
:1019100011B0F0BDD017C00E18180F9951414009F1
:10192000C90641180548416005A009F0DBFE0348DF
:10193000406811B0F0BDC04600080050CC00002047
:1019400054617261206573746176656C20636F6E9B
:10195000636C7569646121204F6666736574203D10
:101960002025640D0A0000004C656974757261736E
:1019700020696E7374617665697320286469666690
:101980003A202564292E2054656E74616E646F20A0
:101990006E6F76616D656E74652E2E2E0D0A0000D9
:1019A000FE2001087D200001054948607047C046BF
:1019B000704700007D200001014988607047C046E3
:1019C00068010020E34801218170704710B5274865
:1019D00000F00CFD26480AF057FB0A24204604F0CC
:1019E000D9F82448244901F087FA24480AF04CFB2E
:1019F000204604F0CFF8224802F04CFA21480AF0C1
:101A000043FB204604F0C6F81F4802F09BFB1F482A
:101A10000AF03AFB204604F0BDF81D4808F068F8CB
:101A200007F06AFF01F05AFE08F090FB02F0E0FABE
:101A3000FFF786FC17480AF027FB17A00AF024FBE3
:101A40001FA009F04FFE02F01DFD002801D127A0C4
:101A500000E024A00AF018FB00F0F2FD2E4807F089
:101A600097FF2E4807F09CFF10BDC046D41E0020F3
:101A7000A4E50008681F0020E52B0008F9E5000830
:101A8000481A0020DBE50008B4180020B8E500087B
:101A90007C1D002019E50008312E204D6F64756C07
:101AA0006F7320646520536F66747761726520657B
:101AB00020447269766572732E2E2E204F4B0D00D6
:101AC000322E20476572656E636961646F722064AF
:101AD0006520436F6E666967757261636F65732E0B
:101AE0002E2E20005B4F4B5D0D0000005B415649E0
:101AF000534F5D205265737461757261646F20632A
:101B00006F6D20636F6E6669677320646520666120
:101B100062726963612E0D0000008E420AD7CD41CA
:101B2000F0B583B0634C2078022867D0012873D1C8
:101B300076A00AF0A9FA03E000F082FD01F084FD2E
:101B400000F076FB0028F7D101F00AFA0028F3D163
:101B50000A2004F01FF805200007029001267102F8
:101B60000191324604F011F919204701384604F07A
:101B700011F86D4820252946324604F006F938460A
:101B800004F008F869486A4901600024204631469B
:101B900004F0AAFE08F03AFB07F022FE07F054FE1C
:101BA0006448654901F0A8F964480AF06DFA5E4896
:101BB0002946224604F0E9F8384603F0EBFF029884
:101BC0000199224604F0E1F8384603F0E3FF632070
:101BD00001F052FA01F0C4F9002805D001F034FDFB
:101BE00001F0BEF90028F9D104F0D8F83149486075
:101BF00088608C700220087003B0F0BDA0780128C6
:101C000023D100202070A07036A00AF03DFA0820F1
:101C100000F0A2F803B0F0BD00F012FD01F014FDD9
:101C200001F0AAF900F036FC08F09CFA07F06EFE0D
:101C300001F05CFD02F08EFA6078012837D10120B6
:101C400020700020607003B0F0BD04F0A7F8616858
:101C5000401A194DA84206D918A00AF015FA012019
:101C6000207003B0F0BD04F099F8A168401A192162
:101C70004901C731884216D904F090F8A06004F0F9
:101C80008DF86168441A7D20C1002046FEF7EFFD03
:101C9000AC4202D80521081A00E0002001B215204C
:101CA000000201F059FA01F0CFFC01F065F903B030
:101CB000F0BDC046580000208813000054696D65CF
:101CC0006F75742120566F6C74616E646F20706143
:101CD0007261206F206D6F646F2053746F702E0DD2
:101CE00000000000436F6E6669726D61646F2120B1
:101CF0005265746F726E616E646F20616F206D6FDC
:101D0000646F20617469766F2E0D0000456E7472E9
:101D1000616E646F20656D206D6F646F2053746F0A
:101D2000702E2E2E0D000000000400501870004090
:101D300001000100681F0020E52B000865E5000890
:101D400080B57D20800003F025FF0248012141700D
:101D500080BDC04658000020F0B583B004464AA0BC
:101D60000AF092F9524853A109F0BCFC002528461C
:101D700001F082F901F068FC554803F00BFF08F010
:101D80005BFB002879D00294494C5249204609F067
:101D9000A9FC0120019001F06FF901F055FC7D20B4
:101DA000C6003746C837384603F0F4FE4A49204695
:101DB00009F098FC022001F05FF901F045FC38467B
:101DC00003F0E8FE4549204609F08CFC032001F0B1
:101DD00053F901F039FC304603F0DCFEFFF77CFBE1
:101DE0003F49204609F07EFC042001F045F901F04E
:101DF0002BFC304603F0CEFE08F0BAFA074607F097
:101E0000CBFD3846FEF71FFD024636A00B4609F013
:101E100069FC3CA1204609F065FC052001F02CF985
:101E200001F012FC6436304603F0B4FE02F038F8DC
:101E300000281AD03D480AF027F91D483C4909F00E
:101E400051FC062001F018F901F0FEFB304603F0CA
:101E5000A1FE38480AF018F9029801F00DF901F0D6
:101E6000F3FB019D284603B0F0BD2E480AF00CF9A3
:101E70003B2001F001F901F0E7FB2B480AF004F9DF
:101E8000284603B0F0BDC0460D0A3E3E3E20494EF6
:101E9000494349414E444F204155544F44494147DD
:101EA0004E4F535449434F203C3C3C0D0000000032
:101EB000ACE4000845786962696E646F204C6F6716
:101EC0006F206520566572736F65732E2E2E00008D
:101ED000B80B000075E6000859E6000828E600087F
:101EE0003FE600082020202E2E2E2054656D7065C0
:101EF0007261747572613A20252E326620430D0A94
:101F00000000000056657269666963616E646F2047
:101F10004D656D6F72696120454550524F4D2E2EB3
:101F20002E000000F5E4000844E50008E2E40008A3
:101F300015E60008BEE4000810B586B01C4C20462B
:101F400009F0D0FB204609F0CDFB1A4809F0CAFB86
:101F500005A804A903AA07F0A3FD002808D003A838
:101F6000037804A8027805A8017813A009F0BAFB49
:101F700002A801A96A4607F06FFD002808D068464C
:101F8000037801A8027802A8017816A009F0AAFB3C
:101F9000074C204609F0A6FB204609F0A3FB20468B
:101FA00009F0A0FB204609F09DFB06B010BDC0461D
:101FB000C3EC0008DFC10008417373696E6174757A
:101FC000726120202020202020202020202020207E
:101FD000253032643A253032643A253032640A0DB5
:101FE00000000000526573706F6E736176656C203F
:101FF0002020202020202020202020202530326476
:102000002F253032642F253032640A0D0000000085
:1020100010B586B0072901D8464828E0801D891FE1
:1020200089B203AA0B2301F0B1FA00281ED003A83D
:102030000078002822D0684600248472048101942C
:1020400000940B2102F044F800281FD069468C72DE
:1020500003A8FEF7A8F800281DD01EA003A909F0C8
:1020600041FB3E2001F008F806B010BD0EA00AF0BA
:102070000BF83B2001F000F806B010BD25A00AF0D7
:1020800003F83E2000F0F8FF06B010BD3B2000F042
:10209000F3FF06B010BD19A009F0F6FF172000F0FD
:1020A000EBFF06B010BDC046417574683A2046612A
:1020B0006C6861206E6F2070617273657220726F40
:1020C000627573746F2064612073656E68612E0D94
:1020D00000000000417574683A2053656E68612005
:1020E000696E636F72726574612E204469676974EA
:1020F00061646F3A20272573270D0A0041757468C3
:102100003A2053656E686120636F72726574612155
:102110000D000000417574683A2053656E686120B7
:1021200076617A69612072656365626964612E0D0A
:10213000000000004F21010810B584B0082904D226
:102140003B2000F099FF04B010BD801D891F89B2AB
:1021500001AA0B2301F01AFA002816D001A8FEF7F5
:102160001BF8002813D0314C2178002917D000200B
:102170002070641C01A92046FEF715F8002820D025
:10218000402000F079FF04B010BD15A000E01EA0B3
:1021900009F07AFF3B2000F06FFF04B010BD042867
:1021A00004D23F2000F068FF04B010BD601C01A9FC
:1021B000FEF707F8012020701F2000F05DFF04B03B
:1021C00010BD204602F012F9002804D13B2000F097
:1021D00053FF04B010BD172000F04EFF04B010BD37
:1021E000417574683A2046616C6861206E6F20709A
:1021F0006172736572206465206E6F76612073650D
:102200006E68612E0D000000417574683A204E6FB3
:1022100076612073656E68612076617A69612064F9
:102220006573636172746164612E0D00300100207A
:10223000EE488178002901D001207047C1880089CB
:10224000081A411E8841704710B50068C169090726
:1022500002D5416A08210162E44CE06805F07AFF8A
:10226000E0680122214606F031FB10BDF0B581B0D7
:10227000574C6078002800D0A7E025780C2D32DC80
:10228000082D40D00A2D32D0FDF732FF0068405DA6
:102290008006C00E00D189E0A0887E2800D985E0A4
:1022A0004E490D54401CA0801B2004F087F90920E2
:1022B00004F084F947480A2D0AD1E188491C0140FD
:1022C0002289914204D0E288434B0D269E54E1803E
:1022D000E188491C0140208981425DD0E0883E4A66
:1022E0001554E18058E07F2D0DD00D2DCCD1A08864
:1022F000002858D0394900220A540120607038A0C3
:1023000009F0C2FE52E0A08800284FD0401EA080F5
:102310001B2004F053F9092004F050F9E088401C18
:102320002C4F38402189884204D0E1882A4A08236A
:102330005354E0801B25284604F050F90926304606
:1023400004F04CF9284604F039F9304604F036F927
:10235000E088401C38402189884204D0E1881E4A28
:1023600020235354E0801B25284604F037F9092622
:10237000304604F033F9284604F020F9304604F0E2
:102380001DF9E088401C38402189884204D0E1884A
:10239000114A08235354E0801B2004F01FF9092040
:1023A00004F01CF902E0A54809F09CF9E06801225C
:1023B000214606F08BFA002807D0E06805F0CAFE37
:1023C000E0680122214606F081FA01B0F0BDC04666
:1023D00064000020FF030000802000200020002077
:1023E0000D000000BA4800218170704780B508498F
:1023F000C860012206F06AFA002801D001F0F2FD5F
:1024000004A009F041FE8D4809F06CF980BDC0467A
:10241000640000200D0A434C492050726F6E7461B5
:102420002E20446967697465202748454C50272051
:102430007061726120636F6D616E646F732E0D0049
:1024400070B504461B2004F0B9F8092004F0B6F872
:10245000A0480A2C0BD19E49CA88521C02400B8905
:102460009A4204D0CB889C4D0D26EE54CA809849E0
:10247000CA88521C02400889824203D0C888964B01
:102480001C54CA801B2004F0A9F8092004F0A6F807
:1024900070BDC046F0B581B0544E7078012800D0B0
:1024A000A2E0FDF725FE05460068514C2778C15D86
:1024B000C90706D06778C15DC907A41C0029F5D1FA
:1024C000641E20212046FDF75DFE00281AD0002161
:1024D0000170811C2A684D1E2878135CDB0716D01A
:1024E0000878135CDB0711D04878135CDB0759D000
:1024F0008878135CDB07091D002BECD18D1E0028AA
:1025000007D007E00025002F07D163E00D46002823
:1025100000D105462778002F5CD036492046FDF7CC
:1025200059FE00283CD035492046FDF753FE324F76
:1025300000283BD032492046FDF74CFE002837D01A
:1025400030492046FDF746FE002833D02E4920466C
:10255000FDF740FE00282FD02C492046FDF73AFE1B
:1025600000282BD02A492046FDF734FE002827D02A
:1025700028492046FDF72EFE002823D02649204674
:10258000FDF728FE00281FD024492046FDF722FE33
:1025900000281BD0224823A1224609F0A3F819E005
:1025A000154F14E04D1C0028B3D0B3E708370EE0F8
:1025B00010370CE018370AE0203708E0283706E02B
:1025C000303704E0383702E0403700E048377968B8
:1025D0002846884706488021FDF7BCFD0020707022
:1025E000B080164809F07EF801B0F0BD640000200C
:1025F00000200020E3EB0008ECE30008B8EB000843
:10260000D9EB0008DEEB0008E8EB0008EDEB000872
:10261000BEEB0008D0EB0008C6EB0008CBEB0008CF
:1026200077EB0008436F6D616E646F2064657363C0
:102630006F6E68656369646F0000000072EB0008EC
:1026400070B5234CA078002803D1E0882189884206
:1026500000D170BD1B2003F0B1FF092003F0AEFFD5
:10266000A078012806D11B2003F0B8FF092003F051
:10267000B5FF70BD0120A0702089E188884201D19A
:10268000002512E000211348134A238925896D1C77
:10269000054025816518D35C2B7423894D1CE68881
:1026A000B34202D03F292946EFD31B2003F096FF07
:1026B000092003F093FF2804CBD0E06821461031B5
:1026C000AAB206F043F90028C3D00020A07070BD64
:1026D00064000020FF03000080200020F0B581B0DE
:1026E0001F4D281D1F49FDF735FD1F480121009191
:1026F00029606121A860E96000272F827F20C00542
:1027000068611A48E861B5204001281818491CC9B9
:102710001CC00A880280897881708626154C28465C
:10272000203021681022FDF720FD30202F5428464C
:1027300031300A221049FDF7F4FC28463030E16AB6
:10274000226BC2828182A1692964C7722835403414
:10275000761EE4D109480099417101B0F0BDC04630
:1027600080240020B016000073656E68050002002A
:10277000FC23010804C200080C240108C00000204A
:1027800070B5002818D00446FDF7B2FC0546006875
:102790002178415CC90716D06178415CC9070FD028
:1027A000A178415CC9070DD0E178415CC907241DBF
:1027B0000029EDD1641E06E040A008F093FF70BD33
:1027C000641C00E0A41C20212046FDF7DBFC00284F
:1027D0001AD000210170811C2A684D1E2878135CD4
:1027E000DB0714D00878135CDB070FD04878135C44
:1027F000DB0738D08878135CDB07091D002BECD190
:102800008D1E002805D005E0002503E00D460028B8
:1028100000D105461B492046FDF7DCFC002818D0F6
:102820001A492046FDF7D6FC174E002816D0184945
:102830002046FDF7CFFC002819D016492046FDF7A9
:10284000C9FC002818D0144814A1224608F04AFFF9
:1028500070BD0D4E71682846884770BD0836716896
:102860002846884770BD4D1C0028D2D0D2E71036CC
:1028700071682846884770BD1836716828468847B1
:1028800070BDC046BAEB00083CE40008F2EB00085B
:1028900091EB0008F6EB000877EB000853756263D4
:1028A0006F6D616E646F204457494E206465736399
:1028B0006F6E68656369646F000000005375626342
:1028C0006F6D616E646F204457494E2066616C7471
:1028D000616E646F2E20557365202748454C502744
:1028E0002E00000080B586B0684606F0FBFF0AA007
:1028F00009F0CAFB0198FDF7A6FF02460CA00B46A3
:1029000008F0F0FE0298FDF79EFF02460FA00B466E
:1029100008F0E8FE06B080BD4461646F7320646512
:10292000204672657175656E6369613A0D0000003D
:1029300020202D2050756C736F732028656D203119
:1029400073293A20252E31660D0A000020202D2003
:10295000457363616C612041202863616C63293A8F
:1029600020252E32660D0A0080B586B0684606F036
:10297000B9FF0098FDF767FF024603A00B4608F079
:10298000B1FE06B080BDC0464461646F73206461CF
:102990002042616C616E63613A0D0A20202D205047
:1029A00065736F3A20252E326620670D0A000000FD
:1029B00080B507F0DDFCFDF746FF024602A00B469E
:1029C00008F090FE80BDC04654656D7065726174FC
:1029D00075726120696E7465726E6120646F204D3E
:1029E00043553A20252E326620430D0A0000000090
:1029F00080B5024809F048FB80BDC0467CE700086E
:102A000080B52E2000F038FB80BD0000B0B584B04A
:102A1000002825D001A9009119A103AD02AC2A46D6
:102A20002346FDF7EBFB03281FD12878411EC9B2CE
:102A30001E291AD821784A1ED2B20B2A15D801AA0B
:102A4000127807F08BF8002814D001A8037802A8A8
:102A5000027803A801781CA008F044FE04B0B0BDC1
:102A6000244809F011FB04B0B0BD094809F00CFB83
:102A700004B0B0BD07A009F007FB04B0B0BDC0466C
:102A8000256868752F256868752F256868750000AA
:102A9000D6E600084572726F3A2046616C68612084
:102AA000616F2073657461722061206461746120BC
:102AB0006E6F20686172647761726520646F205266
:102AC00054432E0D000000004F4B2E205254432043
:102AD000617475616C697A61646F207061726120E4
:102AE000253032752F253032752F253032750D0A7D
:102AF0000000000022E7000870B584B0002822D052
:102B000001AE009617A103AD02AC2A462346FDF79D
:102B100075FB03281CD12878172819D821783B2960
:102B200016D832783B2A13D807F02AF8002814D098
:102B300001A8037802A8027803A801781BA008F076
:102B4000D1FD04B070BD244809F09EFA04B070BDF8
:102B5000084809F099FA04B070BD07A009F094FA8A
:102B600004B070BD256868753A256868753A2568AF
:102B7000687500008BE600084572726F3A20466166
:102B80006C686120616F20736574617220612068D8
:102B90006F7261206E6F2068617264776172652068
:102BA000646F205254432E0D000000004F4B2E2026
:102BB00052544320617475616C697A61646F20704E
:102BC00061726120253032753A253032753A2530F0
:102BD00032750D0A000000004FE7000880B508F0CC
:102BE00023FC80BD10B5062900D2DCE002785A2A09
:102BF00000D0D8E04278A52A00D0D4E0C278832A59
:102C000000D0D0E0427903791B029A18082992B2C9
:102C100014D300237C4CA2420ED07C4CA2420BD099
:102C20007B4CA24208D08378DC1C8C4206D8C318A7
:102C30009C785B781B021B19764C2380764B9A425A
:102C400014DC814B9A4226DD804B9A424ADD804B50
:102C50009A427DDCC1239B019A4200D18FE06C4BEC
:102C60009A4200D09FE0FFF767FA10BD6B4B9A4283
:102C700023DD6B4B9A4243DD6A4B9A4274DC6A4B0C
:102C80009A4200D183E081231B029A4200D08AE05D
:102C900002F00EF810BD724B9A423FDC19231B0262
:102CA0009A4200D186E0714B9A4200D19CE0564B8B
:102CB0009A4278D1FFF7ACF910BD5F4B9A423ADCEB
:102CC000604B9A4279D031200002824200D18EE0DE
:102CD0008120C001824266D100204E49085E01F089
:102CE00035FF10BD494B9A425ED05B48824271D09D
:102CF0005A48824257D14748008800F003FF10BD70
:102D00004A4B9A4253D04A4B9A4268D0494B9A4216
:102D100049D1404A128801F017F810BD8120800186
:102D200082424FD04F48824264D04F4882423AD1CB
:102D300001F07EF810BD05231B039A4245D03F4B9E
:102D40009A425CD03E4B9A422DD106F07FFF10BDD7
:102D5000404B9A421FD06123DB019A4223D12D4A76
:102D6000128800F08FFF10BD21208002824216D011
:102D700085200002824216D101F04CFF10BD25488B
:102D80000088411E4842484100F004FF10BD3A4807
:102D90003821018010BD2020FEF7DEFF10BD1D4848
:102DA000007801F091FC10BD07F03CF810BD01F077
:102DB00031F810BDFEF706FE10BD164A128800F06D
:102DC0003FFE10BD01F0A8FE10BD06F039F801F07D
:102DD000A7FF10BD0F48008800F00CFF10BD0D4884
:102DE000008800F085FD10BDFEF7AAFF10BD01F0C0
:102DF00007F810BD0748008800F0C8FD10BD054861
:102E0000008800F093FD10BD302000000F3000005E
:102E100060300000FC1F00208F3000002F70000089
:102E20008F700000FF830000907000003070000081
:102E30006070000070700000FF4F00001070000014
:102E400020700000903000000E3000003F30000085
:102E50006F30000070300000203000003030000083
:102E60003F200000502000006020000020200000D3
:102E7000014800887047C0465400002080B50248D1
:102E800002F030FD80BDC0463419002080B50348F3
:102E900002F028FD024802F025FD80BDD818002070
:102EA0009019002080B5024802F01CFD80BDC0468C
:102EB000EC19002080B500680E21016202F06EFF5F
:102EC000D849486100208870487080BD10B54A1EFE
:102ED0003F2A0AD80068054A904206D1D14C218188
:102EE0000120607002F05AFFA06110BD0044004054
:102EF000CC48002101707047F0B581B00546C94F3C
:102F0000002038707870B880F880B870FD60396142
:102F100078613C461C34402620463146FDF71AF9BC
:102F200001200102C048FDF715F90C483146FDF7B4
:102F300011F928462146324605F040F800280BD00A
:102F4000F86805F007F9F8684022214605F036F8E0
:102F5000002801D001F046F801B0F0BD3C3B002054
:102F6000EE480178002901D0012070478188C0888F
:102F7000081A411E8841704770B590B002F00EFFEC
:102F8000E64E7169002907D07169411A64295FD33F
:102F9000002171610121B170B17801291CD100209B
:102FA000B0707070F06805F0D5F8F06834461C34E5
:102FB0004022214605F002F8002849D0F06805F0CB
:102FC000C9F8F0684022214604F0F8FF00283FD0FD
:102FD00001F008F810B070BD7178012938D1B169DD
:102FE000401A142834D372B6348935461C356846E5
:102FF00029462246FDF795F800207070308162B6B0
:10300000F0684022294604F0D9FF00280BD0F06870
:1030100005F0A0F8F0684022294604F0CFFF002810
:1030200001D000F0DFFF6B46987859781A78062CAB
:1030300010D15A2A0ED1A5290CD103280AD1DD7846
:10304000822D07D11D794F2D04D15B794B2B01D1F6
:1030500010B070BD042CFBD35A2AF9D1A529F7D1A1
:10306000C01CC1B28C42F3D33269002AF0D068464A
:10307000904710B070BDC046F0B581B004461C202A
:1030800003F09CFA0B2003F099FAE6488188C28885
:10309000914207D2C1888288D24389188DB20A2D05
:1030A00007D24BE08188C288511AFF318DB20A2DB8
:1030B00044D3220A8688DC495A238B558688761C9D
:1030C000F6B286808688A5278F558688761CF6B24C
:1030D0008680868807278F558688761CF6B286807C
:1030E000868882278F558688761CF6B286808688E9
:1030F00000278F558688761CF6B2868086888427BE
:103100008F558688761CF6B2868086888B55838894
:103110005B1CDBB2838083880126CE5483885B1CD2
:10312000DBB283808388CA548288521CD2B28280E8
:1031300082888C548188491CC9B281801C2003F08C
:103140004DFA0B2003F04AFA092D02D8002001B0F5
:10315000F0BD012001B0F0BDF0B581B00C460546D0
:103160001C2003F02BFA0B2003F028FAAD488188CD
:10317000C288914207D2C1888288D24389188EB210
:10318000082E07D240E08188C288511AFF318EB2E2
:10319000082E39D3A1B22B0A090A00918788FA496F
:1031A0005A22CA558288521CD2B282808288A527B0
:1031B0008F548288521CD2B28280828805278F5415
:1031C0008288521CD2B28280828882278F54828861
:1031D000521CD2B2828082888B548288521CD2B216
:1031E000828082888D548288521CD2B282808288EA
:1031F000009B8B548288521CD2B2828082888C546D
:103200008188491CC9B281801C2003F0E7F90B209A
:1032100003F0E4F9072E02D8002001B0F0BD012030
:1032200001B0F0BDD40000207C3B0020F0B583B09D
:103230000C4605461C2003F0C1F90B2003F0BEF933
:10324000D0488188C288914207D2C1888288D243FF
:1032500089188EB20A2E07D251E08188C288511A8D
:10326000FF318EB20A2E4AD3210A0291210C01911C
:10327000210E00912B0A8188C34A5A27575481880E
:10328000491CC9B281808188A52757548188491C6F
:10329000C9B281808188072757548188491CC9B2E7
:1032A00081808188822757548188491CC9B28180D6
:1032B000818853548188491CC9B2818081885554C2
:1032C0008188491CC9B281808188009B53548188C0
:1032D000491CC9B281808188019B53548188491C53
:1032E000C9B281808188029B53548188491CC9B22C
:1032F0008180818854548188491CC9B281801C20F6
:1033000003F06CF90B2003F069F9092E02D80020B4
:1033100003B0F0BD012003B0F0BDC046D4000020D2
:10332000F0B583B00024002978D00546002875D078
:10333000E74FF868002871D00E461C2003F03EF9D4
:103340000B2003F03BF9B888F98888420AD2F88844
:10335000B988C943401880B286420AD801248642FF
:103360000AD955E0B888F988081AFF3080B2864239
:10337000F4D9002486424BD80294032130460840F9
:103380000190721E032A01D2002122E08E43002107
:10339000D04A6B5CB8881354B888401CC0B2B8805F
:1033A00068184378BC881355BB885B1CDBB2BB80B4
:1033B0008378BC881355BB885B1CDBB2BB80C078AC
:1033C000BB88D054B888401CC0B2B880091D8E425A
:1033D000DFD1019E002E029C1AD0685CBB88BD4ADA
:1033E000D054B888401CC0B2B880012E10D06918E3
:1033F0004878BB88D054B888401CC0B2B880022E30
:1034000006D08878B9885054B888401CC0B2B880BB
:103410001C2003F0E3F80B2003F0E0F8204603B093
:10342000F0BDC046D40000207C3B0020F0B591B038
:103430000025002A00D1A2E0002900D19FE0144617
:10344000A34FFA68002A00D199E006460091084689
:10345000FCF7A2FE0346A04200D323465A1DD1B278
:103460003D2900D98BE001AC66718221E170A27028
:10347000A52060705A202070300A2071A01D00998C
:103480001A461D46FCF74DFE2819FF21C1718171B6
:103490001C2003F093F80B2003F090F8B98808354E
:1034A000E8B2FA8891420BD2F988BA88D2438918D7
:1034B00089B281420BD30122009281420BD257E0A4
:1034C000B988FA88511AFF3189B28142F3D20022B9
:1034D000009281424CD303210D40411E032901D2A9
:1034E000002124E0FC21084000217A4A01AB5C5C09
:1034F000BE889455BC88641CE4B2BC805B185C78C0
:10350000BE889455BC88641CE4B2BC809C78BE889C
:103510009455BC88641CE4B2BC80DB78BC8813552D
:10352000BB885B1CDBB2BB80091D8842DED1002D4D
:103530001ED001A8425CBB886648C254BA88521C9F
:10354000D2B2BA80012D13D001AA52185278BB888A
:10355000C254BA88521CD2B2BA80022D08D001AA35
:1035600051188978BA888154B888401CC0B2B88094
:103570001C2003F033F80B2003F030F8009D2846A0
:1035800011B0F0BDD40000207C3B0020F0B583B02A
:103590001C4615460E46521E29469141421E019078
:1035A00090410840012E01D8002100E00121014096
:1035B000601E274687410F40012F42D128462146F1
:1035C000FCF7C8FD022C38D3B01EA11E884200D3E0
:1035D00008460290401C00900122002305E0D01C08
:1035E0001B1D121D0099884227D00198C6187178BA
:1035F000FF2922D0202900D3E954029898421CD0F8
:10360000B178FF2919D0202901D3E8184170029818
:10361000824212D0F178FF290FD0202901D3E81877
:103620008170901C0099884207D03179FF2904D01D
:103630002029D4D3E818C170D1E72819401E0021F1
:103640000170384603B0F0BD70B5214C20780028D9
:103650003CD1A088E188884238D01C2002F0AEFF1F
:103660000B2002F0ABFF2078012806D11C2002F0CD
:10367000B5FF0B2002F0B2FF70BD01202070E08882
:10368000A188884201D1002511E000211148124A89
:10369000E388C35C5354E3885B1CDBB2E380E388BC
:1036A0004D1CA688B34202D03F292946F0D31C20E6
:1036B00002F094FF0B2002F091FFE068AAB20649E5
:1036C00005F044F9002801D00020207070BDC046EC
:1036D000D40000207C3B00203C3B0020D44801214A
:1036E00001706C48002101707047C046F0B591B080
:1036F0007D20C700674E3078002805D002F04EFBD1
:103700007168401AB84244D202F048FBB168401ACE
:10371000B84255D302F042FBB060FFF7A9FB352851
:1037200001D038284AD1FFF71BFC002848D102A855
:1037300006F0D8F863490398FCF7CFFEFDF76AF866
:103740000146614C20462030FFF770FD5F49049828
:10375000FCF7C3FEFDF75EF8014620463030FFF768
:1037600065FD7078401C7070C0B2052828D3002019
:10377000707006F0FDFD054606F00EF95349284627
:10378000FCF7ABFEFDF746F801462046FFF7E4FCE8
:1037900016E002F003FB70603078401E062864D803
:1037A00078440079400087440363545A4E696F009F
:1037B000022030700E20FFF75FFCA5E7002070703C
:1037C00002F0ECFAF168401AB8423AD302F0E6FA95
:1037D000F060FFF74DFB082833D10DA80CA90BAA08
:1037E00006F05EF900282CD00AA809A908AA06F05C
:1037F00033F9002825D00CA803780DA802780BA86F
:103800000078009002AC32A1204607F097FF0AA88A
:10381000027809A8037808A8007800900EAD30A1BE
:10382000284607F08BFF0120460308273046214633
:103830003A46FFF7FBFD1036304629463A46FFF779
:10384000F5FD11B0F0BD062030701220FFF714FC1A
:103850005AE7042030701020FFF70EFC54E70520D3
:1038600030701120FFF708FC4EE7002030704BE766
:10387000032030700F20FFF7FFFB45E70720307073
:10388000002000F083F83FE70020307002A008F02D
:10389000FBFB39E73C010020444953504C41593A65
:1038A0002053657175656E636961206465206D657F
:1038B000646963616F2066696E616C697A616461D5
:1038C0002E0D00000AD7233C3022000000002041CA
:1038D000253032643A253032643A253032640000B3
:1038E000253032642F253032642F253032640000B9
:1038F00080B5044804A12022FFF798FD3520FFF78A
:10390000BBFB80BD9640000041646A7573744672CB
:10391000657175656E63793A20333030302E304BE7
:10392000487A2B2F2D322E300000000010B50A4CA3
:10393000002807D0FEF7D2FE08A110222046FFF78C
:1039400075FD10BD0AA11B222046FFF76FFD302038
:10395000FFF792FB10BDC0469640000050726573A1
:10396000657420436F6D706C65746F2100000000FA
:10397000507265736574207265646566696E652052
:103980006F7320616A75737465732100F0B591B02F
:1039900088490978012903D1002803D006F0FAFAF2
:1039A00011B0F0BD06AC204600F07CFB207807AEDD
:1039B000314600F059FB684605F094FF00F07EFBAD
:1039C00004461C4D102228463146FFF72FFD2020CB
:1039D000315E2846C030FFF7BFFB0A2710987843B6
:1039E00001B22846E030FFF7B7FBF08C784301B214
:1039F0002846F030FFF7B0FB012C01D00F4900E062
:103A00000D490598FCF769FDFCF704FF0146903568
:103A10002846FFF7A1FB012C04D07720FFF72CFBF1
:103A200011B0F0BD1320FFF727FB11B0F0BDC04669
:103A30005600002070200000000020410000C84215
:103A4000B0B594B0502A1ED101AC0020207505906D
:103A500004900390029001901521204600F0E8FAAE
:103A600007AD23A12846224607F068FE2846FCF74A
:103A700093FB82B21D482946FFF7D8FC2320FFF7AD
:103A8000FBFA14B0B0BD01AC00222275059204927D
:103A9000039202920192801D891F89B2152322464A
:103AA000FFF774FD002814D02078002811D001AC55
:103AB000204600F057FC07AD07A12846224607F034
:103AC0003DFE2846FCF768FB82B208482946FFF70E
:103AD000ADFC14B0B0BDC0464E6F766120456D7030
:103AE000726573613A202573000000009640000063
:103AF000417475616C20456D70726573613A202563
:103B00007300000070B58AB0154C502814D100F035
:103B1000D5FA02466D4619A1284607F00FFE284641
:103B2000FCF73AFB82B220462946FFF77FFC1B20B8
:103B3000FFF7A2FA0AB070BD054600F03BFC6E46E6
:103B400008A130462A4607F0F9FD3046FCF724FB71
:103B500082B220463146FFF769FC0AB070BDC0460C
:103B6000964000004E6F766F204E525F4465636949
:103B70006D616C733A202575000000004174756119
:103B80006C204E525F446563696D616C733A202509
:103B90007500000080B507490870002804D109A10C
:103BA0000CA007F09FFD80BD03A10AA007F09AFDBD
:103BB00080BDC04656000020484142494C4954410E
:103BC000444100004445534142494C495441444119
:103BD00000000000446973706C61792048616E6474
:103BE0006C65723A20496D7072657373616F202540
:103BF000730D0A0070B58AB0154C502814D100F02E
:103C000061FA02466D4619A1284607F097FD28463D
:103C1000FCF7C2FA82B220462946FFF707FC1A20B9
:103C2000FFF72AFA0AB070BD054600F0D1FB6E46D8
:103C300008A130462A4607F081FD3046FCF7ACFA71
:103C400082B220463146FFF7F1FB0AB070BDC04694
:103C5000964000004E6F766F204E525F5265706541
:103C6000746974696F6E3A2025750000417475613E
:103C70006C204E525F52657065746974696F6E3A5C
:103C800020257500B0B594B0502A1ED101AC00209B
:103C90002075059004900390029001901521204614
:103CA00000F03CFA07AD23A12846224607F046FD66
:103CB0002846FCF771FA82B21D482946FFF7B6FB89
:103CC0002220FFF7D9F914B0B0BD01AC0022227553
:103CD00005920492039202920192801D891F89B27B
:103CE00015232246FFF752FC002814D02078002824
:103CF00011D001AC204600F0A7FB07AD07A1284674
:103D0000224607F01BFD2846FCF746FA82B2084817
:103D10002946FFF78BFB14B0B0BDC0464E6F766FDF
:103D2000205573756172696F3A2025730000000099
:103D300096400000417475616C205573756172691D
:103D40006F3A20257300000070B592B014460D46FE
:103D5000064605A83221FCF7FDF9502C0ED136207D
:103D6000FFF78AF96C4600202074039002900190BE
:103D700000901121204600F0BDF91AE06C460020A9
:103D800020740390029001900090701D691F89B209
:103D900011232246FFF7FAFB002816D020780028CE
:103DA00013D00BA06C46214607F09CFC204600F087
:103DB00031FB05AD28462146FCF703FAFCF7ECF988
:103DC00082B219482946FFF731FB12B070BDC046D8
:103DD000446973706C61792048616E646C65723AF5
:103DE00020526563656269646F206E6F766F207321
:103DF000657269616C3A20272573270A000000006C
:103E000080B5094809490E22FFF710FB2120FFF772
:103E100033F980BD80B5044804490E22FFF706FB44
:103E20003220FFF729F980BD964000007221010879
:103E300010B5084C2078002800D010BD06A008F06E
:103E400023F90120207001F0A9FF60600D20FFF729
:103E500013F910BD3C010020444953504C41593ADC
:103E600020496E696369616E646F20736571756561
:103E70006E636961206465206D65646963616F2E9E
:103E80002E2E0D0001480121017070474C180020B2
:103E9000002070474D4908607047C04600207047B9
:103EA00080B54A480068002808D0A0210222642377
:103EB00002F016F801464042484180BD002080BD16
:103EC000F0B585B006460020002A21D00D46002915
:103ED0001ED01449096800291AD0039011480068BF
:103EE00064210291049297B2802F00D3802700951D
:103EF0000197B4B2A0210223224602F097F80028CD
:103F000008D1ED19F619049AD21B1004E6D101204C
:103F100005B0F0BD04A0214607F0E4FB039805B00E
:103F2000F0BDC046383B0020454550524F4D205211
:103F3000656164204552523A2046616C6861206593
:103F40006D20626C6F636F206E6F206164647220FD
:103F5000307825580D0A000001207047F0B585B073
:103F600007460020002A28D0002926D01546174AE7
:103F70001268002A21D0039014480068642202923B
:103F8000049100917F2139408022561AA9B28E42B5
:103F900000D30E460196BCB2A0210223224602F0B5
:103FA0005FF900280BD1052001F0F4FD049989196F
:103FB000F719AD1B2804DFD1012005B0F0BD04487E
:103FC000214607F08FFB039805B0F0BD383B002079
:103FD0001F21010880B5202001F0F4FD802001F0B0
:103FE000F1FD80BD72B6FEE707480068406A704781
:103FF00080B5054803F0C4FB80BDC0460248006898
:10400000002141627047C046881E002010B54A1E3C
:104010000B469341441E0246A2411A40012A04D194
:10402000EA4B5C69046098690860104610BDC046A0
:10403000B0B54C1EA141421E054695410D40012DD3
:1040400007D1D349E84A51182246FCF78EF80021DF
:1040500001552846B0BDC04680B5002803D0E249CE
:10406000B34AFCF75EF880BD70B50246481E0B46A9
:1040700083415008432804D300201840012804D06D
:104080000EE00120184001280AD128235343EC4AAE
:10409000D218203238CA38C138CA38C178CA78C173
:1040A00070BDC046002806D0E54949794A08432A30
:1040B00000D300210170411E88417047E048C08B49
:1040C0007047C046ED48808B7047C04686207047D9
:1040D000B0B54C1EA141421E054695410D40012D33
:1040E00006D1E64908312246FCF73FF80021015588
:1040F0002846B0BDB0B54C1EA141421E05469541B3
:104100000D40012D08D1B5214901DC4A5118224644
:10411000FCF72BF8002101552846B0BDB0B54C1E68
:10412000A141421E054695410D40012D07D1D249BE
:10413000D24A51182246FCF718F8002101552846AA
:10414000B0BDC046CB4900224A710A7108608A712D
:104150007047C04670B55A4D287900281CD0A979FF
:10416000012955D1401E052846D8C046784400791B
:1041700040008744340259644E72FFF7EDFE002878
:1041800046D0FFF785FE002800D18CE06E4807F08E
:104190007BFF0720287170BD6879012829D1FFF7BE
:1041A0007DFE002834D101F0F9FDA968401A684964
:1041B00088422DD3002068710126AE71286800283E
:1041C00006D0AE4C634A214601F09CF9624960502A
:1041D000624807F059FF2E71A879002818D00020F6
:1041E000A649534AFFF7BAFE002844D0022028719E
:1041F00070BDA87900280BD0012068710020A8713B
:10420000287101F0CBFDA8605048514907F06AFAC7
:1042100070BD172040029949454AFFF79FFE0028CC
:104220002FD00620287170BD414A10464C3093496A
:10423000FFF794FE00282AD00420287170BDFFF7F4
:104240008BFE0028E4D0FFF723FE002825D03B4852
:1042500007F01AFF0720287170BDFFF77DFE0028C8
:10426000D6D0FFF715FE002823D023A007F00CFFBF
:104270000720287170BD3A4807F006FF0720287113
:1042800070BD2C4807F000FF0720287170BD2C4836
:1042900007F0FAFE0720287170BD274807F0F4FEEA
:1042A0000520287170BD274807F0EEFE0320287115
:1042B00070BD04A007F0E8FE0020A871287170BD51
:1042C000C000002053746F726167652046534D3AF9
:1042D00020426C6F636F20424B5032204F4B2E2098
:1042E00053616C76616D656E746F20636F6D706C79
:1042F00065746F2E0D00000053746F726167652046
:1043000046534D3A204572726F206465206472698D
:1043100076657220616F20657363726576657220C1
:10432000426C6F636F20424B50322E0D0000000034
:10433000B416000002EE0008EBEE0008B6EE00082E
:10434000D5ED000808EF000829EF0008CFEC0008C1
:1043500088130000AC050000B016000060EE0008F5
:104360002FEE0008B0B50146002000290ED0A84C61
:10437000A279002A0AD10648B44D28181422FBF766
:10438000F4FE04480021295401206071B0BDC046EC
:104390002415000037150000014642080020422A7B
:1043A00007D89B4A9379002B03D101205071A74A6B
:1043B000517170470146964A9079002803D1012334
:1043C0005371A24AD18301214840704780240020C4
:1043D00001468F4A9079002803D1012353719B4AEB
:1043E000918301214840704780240020B0B50146E8
:1043F000002000290DD0864CA279002A09D1934DC6
:10440000284608300A22FBF7B0FE01206071002127
:10441000A974B0BDB0B50146002000290FD07C4C76
:10442000A279002A0BD1B5204001884D281810220E
:10443000FBF79BFE03480021295401206071B0BDA9
:1044400080240020AF160000B0B5014600200029EE
:104450000ED06F4CA279002A0AD107487B4D28184C
:104460001422FBF782FE06480021295401206071C6
:10447000B0BDC046C0000020101500008024002000
:1044800023150000F0B581B06148006800281DD0F8
:1044900060A007F0F9FD00246C4E6D4F20463146B8
:1044A0003A46FFF70DFD6B4A002813D06B4835588C
:1044B00057480068314601F025F8A8420FD18148DD
:1044C00007F010F90124204601B0F0BD0024204679
:1044D00001B0F0BD6048002107F004F905E0024694
:1044E0005F4800212B4607F0FDF85EA007F0CCFDE9
:1044F00038464C30554E31463A46FFF7E1FC00282D
:104500000BD056483558424800683146514A00F0B1
:10451000F9FFA84207D16A4824E0172001024E485B
:1045200007F0E0F806E00246172001024C482B464F
:1045300007F0D8F85A4807F0A7FD17204602434D68
:10454000304629463A46FFF7BBFC002812D04348C4
:104550003E490F582E4800683E4A00F0D3FFB8424B
:104560000DD1564807F090FD01242948447120469A
:1045700001B0F0BD3848314607F0B4F805E0024616
:10458000374831463B4607F0ADF8464807F07CFD1A
:10459000281D3249FBF7DEFD4348012100912960C7
:1045A0006121A860E9602C827F20C00568613F48D6
:1045B000E861B520400128183D494CC94CC00A8823
:1045C00002808978817086273A4E284620303168EB
:1045D0001022FBF7CAFD30202C54284631300A2225
:1045E0003549FBF79EFD28463030F16A326BC282B6
:1045F0008182B1692964C472283540367F1EE4D1B6
:104600000348009941714171204601B0F0BDC04698
:10461000C0000020454550524F4D204D616E6167EE
:1046200065723A2056657269666963616E646F20CF
:10463000696E74656772696461646520646F732074
:104640006461646F732E2E2E000000008024002011
:10465000B4160000AC05000018ED0008B01600000C
:104660004EED0008454550524F4D204D616E61673B
:1046700065723A205072696D6172696F20636F7262
:10468000726F6D7069646F2E2054656E74616E6414
:104690006F204261636B757020312E2E2E0000005A
:1046A00062EF000822F0000873656E6805000200E2
:1046B000FC23010804C200080C240108DFEF0008F5
:1046C0009CEF00089EED0008F0B581B0864949785E
:1046D0000A224A4380181849401880B2814FB9789D
:1046E000884226D23818C47861B2144806F0FAFF1E
:1046F0007C7000263E702046FFF74EFE104807F003
:10470000C3FC01243C706D462E702846FFF7CAFC9E
:10471000A857787006F00EFF6620FEF7ADFCBE705D
:10472000F7484470047085200002F9492246FEF7DC
:104730007DFE01B0F0BDC046F6FF000081210108FA
:104740000B220108F0B58FB00446EF4E0025B5707E
:10475000FFF7BCFC0746002C6BD02078002868D0FF
:10476000002F00D190E00097029403E06D1CBD4241
:1047700000D189E0E8B205A9FFF776FC0028F5D062
:10478000217805A803910029014600D00021007876
:10479000002833D0019505AE254606E0049D6D1C2A
:1047A00001467078761C002831D02F78002F29D050
:1047B00004950D46FBF7AFFC04463846FBF7ABFC0F
:1047C000844204D1002D3046E8D02846E6E728464A
:1047D000002D029D00D0461C3078FBF79CFC07465C
:1047E0000398FBF798FC8742314602D18742D8D123
:1047F00002E000218742D4D16D1CD2E70398000665
:104800000CD10CE0F44E009F029C019D07E028783B
:10481000F14E009F029C019D000600D0002100295E
:10482000A4D0B0781D28A1D83118CD70401CB0702C
:104830009CE7002F28D0B0781D2825D831180024F7
:1048400022460C19E2708318551CBD4216D21C2B4F
:1048500014D825716D1CBD4212D21B2B10D8657166
:104860006D1CBD420ED21A2B0CD8A5716C1CBC421B
:1048700001D21A2BE4D3111D401804E0581C02E0A9
:10488000981C00E0D81CB070FC4801224270B3783C
:10489000002B114606D0591E144B4B43D90F9B14C5
:1048A0005918491C0170CBB205AC1149204606F0DD
:1048B00045FF2046FBF770FC8521090282B20846BD
:1048C0002146FEF7B3FDFEF74BFB002805D0FEF7AF
:1048D000BBFEFEF745FB0028F9D100F00BF80FB046
:1048E000F0BDC046740100202C0000206766000067
:1048F00048220108F0B58BB0E04840780A214143D6
:10490000804FCE193046083880B2F64DA9787F4CDA
:1049100088420CD22818C07801A9FFF7A5FB00280F
:104920000CD02046203880B201A9102204E0204695
:10493000203880B2B5490122FEF778FDF01F80B221
:10494000A978884209D22818C07801A9FFF78CFB02
:10495000002807D001A9102201E0FA4901222046CF
:10496000FEF764FDB01F3840A97888420CD22818A1
:10497000C07801A9FFF778FB00280CD02046203032
:1049800080B201A9102204E02046203080B2ED4917
:104990000122FEF74BFD701F80B2A97888420CD22D
:1049A0002818C07801A9FFF75FFB00280CD020462B
:1049B000403080B201A9102204E02046403080B28D
:1049C000E0490122FEF732FD301F3840A9788842C5
:1049D0000BD22818C07801A9FFF746FB00280AD09F
:1049E0006034A0B201A9102203E06034A0B2D5491E
:1049F0000122FEF71BFDF01E80B2A978454C8842CB
:104A00000CD22818C07801A9FFF72EFB00280CD083
:104A10002046203880B201A9102204E02046203828
:104A200080B2C8490122FEF701FDB01E3840A978C6
:104A3000884209D22818C07801A9FFF715FB002881
:104A400007D001A9102201E0BE4901222046FEF74D
:104A5000EDFC701E80B2A97888420CD22818C0786C
:104A600001A9FFF701FB00280CD02046203080B2BE
:104A700001A9102204E02046203080B2B149012271
:104A8000FEF7D4FC3740A87887420CD2E819C078EA
:104A900001A9FFF7E9FA00280CD02046403080B287
:104AA00001A9102204E02046403080B2A54901222D
:104AB000FEF7BCFC701C80B2A97888420BD2281883
:104AC000C07801A9FFF7D0FA00280AD06034A0B25C
:104AD00001A9102203E06034A0B29A490122FEF736
:104AE000A5FC6520FEF7C8FAFEF73AFA002805D0C3
:104AF000FEF7AAFDFEF734FA0028F9D10BB0F0BD9D
:104B00002C000020FEFF0000740100202082000025
:104B1000461701082083000070B582B00A4807F0EC
:104B2000B3FA874D0120287001AC0026267020467C
:104B3000FFF7B8FAA057687006F0FCFC6620FEF795
:104B40009BFA02B070BDC0460B220108B0B5044606
:104B5000214D287801283DD1FFF7B8FA002839D037
:104B6000611E052936D8C0467944097949008F4429
:104B700002140D31311F6978254806F0B3FD002479
:104B80002C706878FFF708FCAC7017E06878411E5D
:104B9000697048B206F0CEFCB0BD6978491CCAB253
:104BA0008242F5D30021697048B206F0C3FCB0BD63
:104BB0000AA007F069FA0020A87028705F48012257
:104BC00042700270852000025E49FEF72FFC08202B
:104BD000FEF752FAB0BDC046740100204772616F03
:104BE000735F48616E646C65723A2053656C6563EF
:104BF000616F202876696120736574617329206371
:104C0000616E63656C6164612E0D000046170108DA
:104C1000C4210108B0B582B0184D2C78022C2AD3DB
:104C200017480078012826D168782146FBF71FFE37
:104C3000491C697013A0224606F054FD6A782B784F
:104C40006C461A49204606F079FD2046FBF7A4FA87
:104C50008521090282B208462146FEF7E7FBFEF7EE
:104C60007FF9002805D0FEF7EFFCFEF779F9002860
:104C7000F9D1FFF73FFE02B0B0BDC0462C000020C6
:104C800074010020506167696E6163616F3A204D65
:104C90007564616E646F2070617261207061676914
:104CA0006E612025642F25640D0A0000482201084A
:104CB00080B586B00B4A1278012A10D1801D891F59
:104CC00089B201AA1123FEF761FC002804D001A8D3
:104CD000FFF738FD06B080BD03A007F0D5F906B098
:104CE00080BDC0467401002046616C686120616F20
:104CF000206578747261697220746578746F2064BD
:104D00006120706573717569736120646F207061D3
:104D1000796C6F6164204457494E2E0D00000000ED
:104D200080B5064801224270054900238B7002704D
:104D3000852000020349FEF779FB80BD2C0000208E
:104D40007401002046170108F0B587B000250695CC
:104D50005422825C012A03D10224204607B0F0BD10
:104D60000646543601243470026893685B0714D4F5
:104D700007694B68022B18D10420074399488742E2
:104D80006DD19748C0430B68D9430143906A0840EE
:104D900090620024002B66D4D2E0816D20220A4369
:104DA00082653570204607B0F0BD059304231F438C
:104DB0008C4CA74262D10F683846894B1840936AE1
:104DC00003439362380253698343896801408648EC
:104DD0000840184350610024002F00D4B0E00320A5
:104DE000820582480368194611403846804F049076
:104DF000B84200D096E07A4F7F1CB94200D391E0D0
:104E00007A48036893431943754A5118491C016055
:104E1000794800687949FBF72AFD0C214143481C79
:104E200006900698002800D18AE00698401E069059
:104E30000698002800D183E00698401E0690069848
:104E400000287DD00698401E06900698002877D04E
:104E50000698401E069006980028E6D170E00B6880
:104E60000024002B6CD5FA480168624A93426BD04B
:104E70005F4A934264D10122920567E01F27059C97
:104E800027400F2400940397BC40076E0194A7436A
:104E900002970C68524F3C42049462D0E4072F46BC
:104EA00067D1049FBC075FD47C075FD43C075FD405
:104EB000FC061F465DD4049CA30671D4630671D41E
:104EC000230671D4E30571D4049B9B0570D4049B25
:104ED0005B056FD4049B1B056ED4049BDB046DD46F
:104EE000049B9B046CD4049B5B046BD4049B1B0449
:104EF000009F3ED4049BDB0366D4049B9B0365D4D4
:104F0000049B5B0364D4049B1B0363D4049BDB02FC
:104F100062D4049B9B0261D4049B5B02DB171627BF
:104F20001F4026E0334F0498B84209D10127BF053E
:104F30003B4005D1C64803689343194339430BE00E
:104F40003570204607B0F0BD254A521C114003229F
:104F5000920503689343591801603570204607B0E5
:104F6000F0BD6300DF0E04E0012702E0022700E04D
:104F70000327039CA740029B1F430766059B9B08D2
:104F8000C06998420AD90198C043936A0340049FBC
:104F9000B800000FA0401843906213E7049F11E788
:104FA0000527E6E70627E4E70727E2E70827E0E723
:104FB0000927DEE70A27DCE70B27DAE70C27D8E723
:104FC0000D27D6E70E27D4E71027D2E71127D0E721
:104FD0001227CEE71327CCE71427CAE71527C8E71F
:104FE000FFFF7F000400008000FFFF7F08270140D3
:104FF000000200A4000400A830000020400D0300BF
:105000000068006C70470000F0B589B004460020CD
:105010000890002C76D00790A06D002807D1254677
:105020005435204600F016F900202870E06501276D
:105030003D072668B068C00026D4B0687F490140AB
:105040002943B1607E4800687E49FBF710FC4000B0
:1050500008900898002817D00898401E08900898D3
:10506000002811D00898401E0890089800280BD0FE
:105070000898401E08900898002805D00898401EFF
:10508000089008980028E7D1B068284208D1A06DA0
:1050900010210143A165E06D012107910843E065FE
:1050A000B06804210140A26D102002405118A16D8A
:1050B0002BD106900F20C7433A46F33A1140891C82
:1050C000A165B168C9077DD10390049727462037B1
:1050D000216B4A1E91410D03A168227E92030A436F
:1050E000617EC9031143A27E50030843E368034372
:1050F0002B430120C507216900290590029509DA93
:10510000A94308E0012009B0F0BD0143A16538467C
:1051100009B0F0BD41050B43387B45001D4338788D
:10512000012809D1002A11D0A06D20210143A165D9
:10513000E06D05990843E065626A002A0CD00720FB
:1051400080010240A16A1143294306E0059800044A
:105150000543626A002AF2D12946F0683A4A0240C1
:105160000A43F2600320820763681D461540E16C24
:10517000387F01280ED1206C0090676CA06C0190E4
:1051800000980743019807432F430F4305980743AF
:105190003D4600E00D43049F30692C4901402943FE
:1051A00031610298834203990CD093420AD005984A
:1051B0008007834206D08804034025490A68824359
:1051C000D0180860706907229043656B28437061AE
:1051D000706970218843A16B0901014371612169E4
:1051E00001235805814203D000290BD1B06A07E0A2
:1051F000B06AE06980001C301C2101408F40206EA5
:105200003843B06270691040A8420AD10020E065BE
:10521000A06D0121014302208143A165079809B0D7
:10522000F0BDA06D0699084302218843A065E06D9A
:105230001843E065184609B0F0BDC046E8FFFF6FAF
:1052400030000020400D03000102DEFF02FCFF1FC2
:105250000827014080B58AB0002109910891079183
:10526000069105910491039100680D49884201D08F
:105270000AB080BD2020029002A801F051FB002856
:1052800001D0FEF7AFFE0120000506490A6802437F
:105290000A6009680140019101980AB080BDC046CA
:1052A0000024014040100240F0B581B00D46044694
:1052B0004069082801D1082704E02068C068C007B9
:1052C0003FD1042700F06AFD06462168086838428D
:1052D0001CD001204202A36D1343A365CA681205C6
:1052E000920F4AD1A27E002A47D10A68120744D5FC
:1052F0008A68520738D4224658324B680C25AB4393
:105300004B60FF2502351368AB4334E0002D1FD0FE
:10531000681C10D108683842DBD108683842D8D1FF
:1053200008683842D5D108683842F3D0D1E72168FF
:1053300008683842CDD100F031FD801BA842F6D973
:1053400008E0A06D20210143A165012001B0F0BD5E
:1053500000F024FD542000212154A06D04210143BC
:10536000A165032001B0F0BDA26D20231343A36506
:1053700022465C32E36D03431360227E0020002A44
:1053800001D001B0F0BD0C220A6001B0F0BD0000F8
:1053900070B50146006882680220520711D4542279
:1053A0008A5C012A0DD00C46543401200546207039
:1053B0000E460846FBF7B4FE002803D000202070FC
:1053C000284670BDB06D094901400120000208184F
:1053D000B0650020F06531681C220A6020708A6880
:1053E000304B13401A1D8A6070BDC046FEF0FFFFAF
:1053F000F0B581B004465420205C012802D102207F
:1054000001B0F0BD26465436012737702068816808
:1054100049071FD481688268D20737D00222114021
:1054200034D1816805220A40012A27D181681D4AAA
:105430000A40911C81600321016000F0AFFC054629
:1054400020688068C00721D000F0A8FC401B03281A
:10545000F6D313E08168890704D48168114A0A40B1
:105460001032826000F09AFC054620688168490786
:10547000D0D500F093FC401B0328F6D3A06D10217B
:105480000143A165E16D5C34384605E0FF20023040
:10549000A16D8143583400200022327039432160CD
:1054A00001B0F0BDE8FFFF7F70B503460120CC07D7
:1054B00020D0114C0C40651EAC4103261546F54129
:1054C000032D17D87D442D796D00AF440B010509DC
:1054D0000B4C0C400ED105E0084C0C400AD101E009
:1054E000002C07D118684161816818239943114342
:1054F0008160002070BDC04680FFFF7F00FFFF7FFE
:105500000000FF7FF0B584B00E46022141770468A9
:10551000A16801252943A160016A01291ED0022941
:105520000ED0032928D1002A00D103E103950325D9
:1055300011462940042A00D3D2E033460025DEE09C
:1055400057081ED0039503213B460B4000937B1E5A
:10555000032B029601971AD2002133E0970814D04A
:1055600003950323394619400091791E03290296B9
:10557000019349D200257AE000214577084604B01E
:10558000F0BD0021D2073CD1D4E000219EE08F4342
:10559000002135466B882E883604F3182360EB888B
:1055A000AE883604F31823606B892E893604F3180D
:1055B0002360EB89AE893604F31823601035091D8A
:1055C0008F42E7D1009F002F029E14D08B00F1186C
:1055D0004D88F35A1B045B192360012F0BD0CB8835
:1055E0008D882D04EB182360022F04D04B89098984
:1055F0000904C918216001998900039DD20700D1CF
:1056000098E0715A218095E09F43002531460E783D
:1056100036064B781B049B198E7836029B19CE7880
:105620009B1923600B791B064E793604F3188E798B
:1056300036029B19CE799B1923600B7A1B064E7A92
:105640003604F3188E7A36029B19CE7A9B192360A2
:105650000B7B1B064E7B3604F3188E7B36029B19A0
:10566000CE7B9B19236010312D1DAF42CFD1009FFF
:10567000002F029E26D0A900735C1B0671184D787E
:105680002D04EB188D782D025B19CD785B19236002
:10569000012F17D00B791B064D792D04EB188D794E
:1056A0002D025B19CD795B192360022F0AD00B7A8A
:1056B0001B064D7A2D04EB188D7A2D025B19C97AE1
:1056C000591821601146019B9943039D03231A40F9
:1056D0007A441279520097442C011C24715C27E013
:1056E000AA43002533463768276077682760B76884
:1056F0002760F768276010362D1DAA42F3D10029D4
:1057000005D0AA001D469B582360012917D1039D8F
:1057100010E072185278715C0902891821800468BF
:1057200008E072185378715C0902C91821809178D9
:105730002170046821684577084604B0F0BDAA18B6
:10574000536823600229039DF4D091682160F1E73A
:10575000B0B50125002814D00446407F002804D1AC
:1057600000202077204600F031F802206077207971
:10577000002808D0A168E2682046FFF795FE0028BF
:1057800008D02846B0BD20680F49416181681822C1
:105790009143816000256079002801D0216900E0F3
:1057A000E9432068016181686022914362690A438C
:1057B0008260816880229143A2690A43826001204D
:1057C00060772846B0BDC046B71DC10481B00068EF
:1057D0000849884201D001B0704701200003064902
:1057E0000A6802430A60096801400091009801B00C
:1057F0007047C046003002403810024070B50028A3
:105800002CD0014624314A78022A29D10468226822
:105810000E239A432260426C1568314B1D4015607F
:105820002568012295432560046C1C2525401446FB
:10583000AC40D74D2E6826432E60846CC56C6560E5
:10584000046D002C05D025681D402560436D806DDA
:1058500058604A70002000220A7070BD012070BD9F
:105860000422C263012000220A7070BD70B5242199
:1058700001244454014624314A78022A2BD103687A
:105880001A680E24A2431A601C68012294431C600B
:10589000446C2568124B1D402560046C1C25254076
:1058A0001446AC40BA4D2E6826432E60846CC56CFD
:1058B0006560046D002C05D025681D402560436D92
:1058C000846D5C6000240C704A70816B002900D0EC
:1058D0008847204670BD0421C163204670BDC04684
:1058E000FFFEFFFFF0B585B0016C1C240C400423C3
:1058F0001946A140A64A121F15680A4603952A4078
:1059000056425641049005682A6817461F4078425F
:105910007841304332D002950121022610463040B2
:1059200047424741A640039B1E420D46019400D0CA
:105930003946049F3C462434002931D008200240D7
:10594000564256410198C340180700D53546002DF0
:1059500024D1029A10680E2188431060012001466C
:10596000019A91408A4B1A680A431A60F863002131
:1059700021706070796B00290ED10FE028688006D5
:1059800002D4286898432860814A10680843106050
:10599000049F396B002901D03846884705B0F0BD17
:1059A000029A1068800605D410680A2188431060A6
:1059B000012060700020207075490868304308603D
:1059C000F96A0029E8D1E9E7F0B587B000284AD0A4
:1059D0000446014624310220069148702768386841
:1059E000344901403960344E30468030A064334839
:1059F000381814252946FAF73AFF800081192064E7
:105A000005916164FC20384008382946FAF72FFFD9
:105A10001C22024001210B469340E364A0680490DD
:105A2000E5682646103645CE0196E6690296266A56
:105A3000039628431043019A10430E4602990843E7
:105A40000399084339680143049A11433960B1034B
:105A50001B488A420AD1002205990A6062600360ED
:105A6000154613461BE0012007B0F0BD6168CFB2B8
:105A7000059A17600360491E002203291546134644
:105A80000DD8791E8A0082180023D36703250D40A4
:105A90003346AB400B490B607C32BC3005460020DE
:105AA000E06322656565A365069908704E7007B0CE
:105AB000F0BDC0460F80FFFF00080240F8FFFDBFA9
:105AC0008408024044090240F0B583B00446242013
:105AD000205C012802D1022003B0F0BD2546243508
