:020000040800F2
:10000000F0400020D5000008519A0008398F000800
:1000100000000000000000000000000000000000E0
:10002000000000000000000000000000EDA100083A
:100030000000000000000000F99A0008A9A20008D2
:10004000E7000008E7000008E7000008E7000008F4
:10005000E7000008E7000008E70000080540000886
:10006000E7000008AD2E0008BD2E0008D52E0008C0
:10007000E7000008E7000008E7000008E7000008C4
:10008000E700000800000000000000003DA3000899
:1000900000000000E7000008E7000008E700000893
:1000A000E7000008E7000008E700000889B400083E
:1000B00095B40008000000000000000000000000EF
:1000C0000348854600F060FE00480047B5B60008CA
:1000D000F04000200448804704480047FEE7FEE760
:1000E000FEE7FEE7FEE7FEE72DA30008C1000008DB
:1000F0000048704700C2000810B50446FFF7F8FF3B
:100100000068005DC007C00F10BD014661391929A4
:1001100000D82038704701464139192900D82030CD
:10012000704703460B439B0703D009E008C9121F21
:1001300008C0042AFAD203E00B780370401C491C63
:10014000521EF9D27047D2B201E00270401C491E23
:10015000FBD270470022F6E710B513460A46044664
:100160001946FFF7F0FF204610BD10B5044605E024
:100170000B780370401C002B00D0491C521EF7D294
:10018000204610BDCAB2401E4178401C8A4202D0AF
:100190000029F9D100207047421C0178401C002939
:1001A000FBD1801A704710B5002200E0521C835C1E
:1001B0008C5CA34201D1002BF8D1D8B2E1B2401A35
:1001C00010BD30B504460020034600E05B1C93429E
:1001D00003D2E05CCD5C401BF8D030BD03460A780A
:1001E0000270401C491C002AF9D118467047F8B526
:1001F0000E460546002400E0641C285DFFF78BFFD7
:100200000746305DFFF787FF381A02D1295D0029C4
:10021000F2D1F8BD0FB400B58DB009900B9010A9C4
:1002200000200091C0430A9000200C9006480690E0
:10023000064807906A4609A80F9900F099FB0DB08F
:1002400008BC04B01847000091090008B109000873
:10025000FFB50027FF4383B000205C6801909E68D3
:100260001D46A9697F1C049888470090296A884721
:100270000028F6D10098401C0CD003204002844393
:10028000002E19DD600614D500982B2809D02D28E2
:100290000FD103E00020C04307B0F0BD0120800271
:1002A0000443A9697F1C04988847761E0090002E9D
:1002B00002DD0098302803D00598002825D035E0CD
:1002C000012040020443A969761E7F1C04988847D8
:1002D0000090002E03DD782805D0582803D005981B
:1002E000002810D022E00598002801D010281DD148
:1002F000012040028443A969761E7F1C0498884728
:100300000090102002E0082000E00A2005900DE097
:10031000012149020C43059A0199761E51430818A0
:100320000190A9697F1C049888470090002E05DD84
:100330000599009800F006FB0028E9DAE9690498BD
:100340008847A00502D40120C043A5E7E00722D1D9
:10035000600611D56005019800D5404229680A1D44
:100360002A600968220501D5087014E0220701D52A
:10037000088010E008600EE02868011D2960006810
:10038000210502D50199017005E02107019901D5E8
:10039000018000E0016038467EE70000F7B5009C70
:1003A0000F4600262578641C002D05D0FFF7A0FE1F
:1003B0000068405DC007F5D12B2D02D02D2D18D03F
:1003C000641E39462046029A00F004FB002F04D038
:1003D0003968A14201D100993960710502240029D0
:1003E0000BDA4042002803DD0BF03EFA0460A00760
:1003F000FEBD012080020643E3E70028F8DA0BF097
:1004000033FA04600048FEBDFFFFFF7F70B506466B
:100410000BF02AFA046805460A2200213046FFF74D
:10042000BDFF2C6070BD70B506460BF01DFA046868
:1004300005460A2200213046FFF7B0FF2C6070BD50
:10044000F8B502464A40D40F42004B0052085B0800
:100450009A4202D20246084611464A0023D0C30DF2
:100460004A00DDB2120EAD1A202D35DA49020126FE
:10047000490AF6058A19002C00D0524220214F1B50
:100480001146B9402A411018C20D9A4221D0002CC1
:1004900017D0012D08DCDA05801AD20F8019D20797
:1004A000DBB200F0F2FAF8BDDA05801A0123400051
:1004B0001B06C01880185A428018CA0F1043490002
:1004C00007E04908C2071143DA05801A801940087D
:1004D000801800F0D2FAF8BD61000122511A001B09
:1004E000F7E70122D2075140AAE70122D207504084
:1004F000A6E7024670B54A40D30FDB0740002DD077
:100500004A002AD0010E140E000212020919400AF4
:10051000520A8418E50104465443000A120A2E04C4
:100520005043A4194219200CC543AA18120C0125E6
:10053000AD03521C521912047F39240400D0521CFE
:10054000104301D44000491EC2B20C06C009201855
:10055000401C4008802A02D003E0002070BD400803
:100560004000002900DA0020184370BD70B5024633
:100570004A40D50F40004A00ED07400852080028C5
:1005800014D0002A12D0C40DD30D41020120C005A1
:100590005202490A520AE41A091812187D3491428B
:1005A00001D3641C00E04900002C01DA002070BD7A
:1005B0000023914201D3891A0343400849000028CF
:1005C000F7D100290AD0914202D10121C90705E0E3
:1005D000914201D2012101E00121C943E005C01887
:1005E000401900F04AFA70BDF0B51FB488B00B99FD
:1005F0000998002448400999C00F49004908099109
:10060000C0070B990090490049080B910999089877
:10061000A64608431CD00B990A98084318D009989D
:1006200001244000420D4800410D099824050003B3
:10063000000B204309900B980003000B20430B9004
:1006400050181C494018002201901446104605E03D
:10065000002001460DB0F0BD032801DA034600E09A
:1006600003239C46C11A0AAE0AE05F0008ADED5BA9
:100670004F00F75B7D430027AA187C41491C5B1E95
:100680006145F2DD410004AB5A522104120C0A43C9
:10069000240C401C0828DFDB01980290009970466A
:1006A00001910090059B049A0799069800F033FA8F
:1006B000D0E700000DFCFFFFF0B50C465C4085B0B4
:1006C000E40FE40703944C000026640859009446A4
:1006D000490802460296224321D062460A431ED0B0
:1006E0006200570D4A000E032303550D01240246F4
:1006F0002C492405781B1B0B360B4018234326433B
:10070000614600901C46501AB44103D30098401C27
:10071000009002E0921800985B41002803DA002064
:10072000014605B0F0BD00200121090507468646B7
:1007300011E064461D46141BB54106D36546521BA5
:10074000B341744607430C43A646CD074008490809
:10075000284392185B4105460D43EAD110461843E1
:1007600013D06046194650407140084306D0604699
:10077000101AB34106D20122002306E00022012311
:10078000DB0702E00122D2435310009874460105B2
:10079000381C6141029C039D0019694100F0AEF9CB
:1007A000BFE70000FD0300000122D207002800DBA4
:1007B000101A002900DB511A814201D20120704732
:1007C000002070470122D207002800DB101A002900
:1007D00000DB511A814201D9012070470020704787
:1007E000C217C10F504010B54018CA079623002108
:1007F00000F04BF910BD10B500229623114600F011
:1008000044F910BD0EB5C217C10F5040CA074018B9
:100810000021054B0293019200910A460B4600F01D
:100820007AF903B000BD000033040000C20F41009C
:1008300040020123400ADB05D207090EC0187F29B8
:1008400001DA00207047962903DC9623591AC84024
:1008500001E096398840002AF4D040427047C20F28
:10086000D207400040080BD0C10D0723DB01C91897
:1008700040020905400A1143C2084007114370476E
:1008800000200146704770B50446002903D00020BF
:100890002022012310E0002801D00020C043C046E0
:1008A000C0460DE02546D5408D4205D30D46954006
:1008B000641B1D46954040191546521E002DF1DC63
:1008C000214670BDF0B51FB40646002082B0054633
:1008D0004024019100901BE0019922460F463046CA
:1008E00000F06AFA049A059B801A994110D31046C9
:1008F0001946224600F016F8361A8F410197224613
:1009000001200021009F00F00DF838184D410090A3
:100910002046641E0028DFDC019B009829463246F1
:1009200007B0F0BD10B5202A04DB0146203A914003
:10093000002010BD914020239C1A0346E340194338
:10094000904010BD3A2800D23038202302469A4306
:10095000412A01D310463738884201D30020C043D2
:1009600070470000026813785118016018467047FC
:1009700010B5D1600449516104491162002111612F
:10098000114600F03DFA10BD65090008F9000008A5
:100990004268002A08D001680B78491C002B03D05C
:1009A000521E06C0184670470121C160881E70475C
:1009B0004268002A0BD0C3680168002B07D1836806
:1009C0008B4204D0491E521C06C0002070470020F4
:1009D000C0437047F7B582B0029C00272078641CA2
:1009E00015460197302802D0002D15D015E020784B
:1009F0000127641C782804D0582802D0002D09D083
:100A00000BE0002D01D0102D07D1002710252078F4
:100A1000641C02E0082500E00A250026009610E08C
:100A20000099012769430818020C294680B27143D6
:100A300000908E183804864201D30120019020785E
:100A4000641C2946FFF77EFF0028E9DA0398002896
:100A500005D0002F01D0641E00E0029C04600198C4
:100A6000002806D00AF000FF02210160C81E05B070
:100A7000F0BD009930040843F9E7002904DA401C6E
:100A8000490001D140084000704770B40024050CB3
:100A900005D11024000402D1002921D01124050E13
:100AA00001D100020834050F01D10001241D850F7A
:100AB00001D18000A41C002801DB4000641C002937
:100AC00008D020252E1B0D46F540A14000D0012165
:100AD0002943084301061B1B000ADB1D02D5002029
:100AE00070BC7047DB05181880180029F8DA401C24
:100AF0004900F5D170BC40084000704710B5002B8C
:100B000008DA0024401C614192185B411A4301D16C
:100B10004008400010BDF0B51FB482B005460C007F
:100B200003D008460AF088FE02E00AF085FE203075
:100B30000246009021462846FFF7F4FE049B059AE2
:100B400004460F4618431143084314D01846104377
:100B50001BD0009840210A1A1846059900F02CF97C
:100B600005460E46009A05990498FFF7DBFE0843F8
:100B700005D0012004E02046394607B0F0BD002032
:100B8000C11705430E432C43374300990E98630564
:100B9000401A7905E40A00220C43FD0A0A3002D506
:100BA00000200146E9E70105101969410C9C0D9DE3
:100BB00000196941FFF7A2FFDFE70000F0B5074623
:100BC0000846584087B0C00F049048000E465900B0
:100BD00040084908BC1A884105D2384631461E46AD
:100BE00017460B4602465800400810434CD0300DC3
:100BF000039040055900400D490D0590401A0290A0
:100C0000402872DA18030121000B090508430190FE
:100C100004980092002805D0019952420020884192
:100C200000920190029840210A1A01990098FFF75A
:100C300079FE05460C466B4607CB00F0CEF8C0198E
:100C40007141039A0E0D0023D71756401A467A4079
:100C5000164344D0049A002A2DD0029A012A039AFE
:100C600015DC1205C01A914101263605001C7141A0
:100C7000D20F059ED2070093019202962A46234680
:100C8000FFF749FF07B0F0BD38463146FAE71605D1
:100C9000224A0F46B218C01AB74101210905001CAB
:100CA0004F4100187F41114618187941E20F104357
:100CB0006D19644113E0E2076D0815436408C2072B
:100CC0001443039A01261205C01A91413605001CEF
:100CD0007141CE07400830434908C01851412A46A7
:100CE0002346FFF70BFFCDE7FFE704980122400002
:100CF000C117121A00238B4104983146C417381AC1
:100D0000A141EEE730B40124E407634030BC55E76D
:100D100030B40124E407614030BC4FE70000E0FF3D
:100D20004A0009030123090B1B0519430A4B10B59F
:100D3000520D9A4202DA0020014610BD064B3433B0
:100D40009A4203DC9A1A00F037F810BD034BD21810
:100D5000FFF7E8FD10BD0000FF030000CDFBFFFF23
:100D600010B5002904DB0124E40740428C412146F0
:100D7000002B04DB1C460123DB075242A3419942AE
:100D800000D1904210BD00001CB5094800900948F0
:100D9000019005460126009C05E0E36807CC33433B
:100DA0000C3C98471034AC42F7D3FFF78DF90000A4
:100DB0000C2601082C26010810B5202A04DB084661
:100DC000203AD040002110BD0B46D340D040202413
:100DD000A21A91400843194610BD10B5202A06DB1F
:100DE000CB170846203A1041C1170B4306E00B46CB
:100DF0001341D0402024A21A91400843194610BD47
:100E0000F3B58DB000200A9001200B900026084613
:100E10000C300C4609906269012109989047051E23
:100E20002ED0252D2DD0216A8847002818D0626940
:100E3000012109989047216A88470028F7D1411E6F
:100E400062690998904700E0761CA1690D9888476F
:100E5000216A88470028F7D1E1690D988847DAE7C9
:100E6000A1690D9888470746A84201D1761CD2E7B0
:100E7000E1690D9888477F1C02D10A98002877D035
:100E800049E1002762693D463946099890472A287A
:100E90000CD16269012109989047012506E00A21D9
:100EA0004F433F18303FEBD41020054362690121C6
:100EB00009989047014630390A2903D29B498F424D
:100EC000DEDCECE7E90600D4994F6C280AD04C2808
:100ED00010D0682824D06A282ED074280CD07A2804
:100EE0000AD00DE062690121099890476C2823D04F
:100EF00004211CE0202005436269012109989047E4
:100F0000A760656065284FD026DC582839D01ADCE8
:100F1000452849D012DC252834D04128B0D143E0FF
:100F20006269012109989047682802D008210D4381
:100F3000E6E70120C002DEE70220DCE7462833D0E6
:100F400047282CD130E05B2870D061282CD0632852
:100F50006CD0642823D161E06F284FD009DC66286B
:100F600022D0672820D0692826D06E2817D12EE0FD
:100F7000CDE070284DD073286FD075284ED07828DA
:100F80000DD154E0A1690D9888470546252800D168
:100F90006CE7E1690D9888476D1C00D16DE7BAE0F8
:100FA0000A224CE00A2252E0012023466A46C0434E
:100FB0000D99C046C046A3E0284640210843606022
:100FC000A807234601D5002239E000223FE0E807C8
:100FD00000D020E72068011D21600068290501D5A7
:100FE000067018E7290701D5068014E7A90703D57D
:100FF000F117066041600EE706600CE728464021C5
:1010000008436060A807234601D5082217E008229C
:101010001DE0484928460840606016E02846402107
:1010200008436060A8072346BCD5B9E715E0284609
:10103000402108436060A80707D5234610220120FD
:10104000C0430D99C046C0465AE0234610220120F5
:10105000C0430D99FFF7FCF852E000210C910B46BC
:101060000091632802D05B2807D043E0E80601D452
:101070000120A060012000903CE0626901210998F4
:1010800090475E2805D101200C90014662690998BD
:1010900090472169002906D10B4601AA8F00491CFF
:1010A000D3510829FADB002835D0216900290ED157
:1010B000C117C90E09184A11930001AA9A184909C3
:1010C0004901411A01201368884003431360626993
:1010D0000121099890475D28E5D10C98002808D097
:1010E000002001AB81005A58401CD2435A500828B6
:1010F000F8DB01AB01202246C0430D99C046C04633
:1011000000280ADA401C06D10B98002803D00020E2
:10111000C0430FB0F0BD0A98FBE7E90702D10A9976
:10112000491C0A91361800200B9074E6CCCCCC0CEC
:10113000FFFFFF7FF1F7FFFFF0B581B00546002408
:10114000009400688168C9071CD181682B4A2F323E
:1011500011420AD0A86D10210143A965E86D012450
:101160002043E865204601B0F0BD8168234A114064
:1011700001273943816022480068000205D4687E57
:10118000012825D1204601B0F0BD1E4800681E4947
:10119000FFF779FB401C009000980028EFD00098E2
:1011A000401E009000980028E9D00098401E009052
:1011B00000980028E3D00098401E00900098002876
:1011C000DDD00098401E009000980028E7D1D6E7B7
:1011D00004F036FE064604E004F032FE801B0328CD
:1011E000B8D228680168C907CCD18168C907F3D192
:1011F0008168024A114039438160EDE7E8FFFF7FD3
:101200000827014030000020400D0300F0B583B0F6
:101210005E490A684968401A86185B49CF68012010
:101220000023BE4202460EDD4C68A64205460FDA98
:101230001543012D10D14D69AE4213DC0022BE4290
:10124000034613DA13E01A464C68A6420546EFDB64
:101250001D461543012DEED00D4608350868A742FE
:1012600017D043E00122BE42034600DB1346012BA8
:1012700006D1CB699E420EDC0022AE420EDA0EE0B1
:1012800028460D46103508313C4607460868A742F7
:101290002CD103B0F0BD0122AE4200DB1046029516
:1012A00000281BD0A6423BDA886809680291FFF744
:1012B00018F90546381BFFF793FA01462846FFF751
:1012C00055F90546301BFFF78BFA01462846FFF714
:1012D00010F90299FFF7B4F803B0F0BD0D461835C8
:1012E0001031029C1F460868A742D2D0391B07461E
:1012F0000846FFF775FA029028683946FFF7F1F8BB
:101300000299FFF733F90546301BFFF769FA0146EA
:101310002846FFF7EEF83946FFF792F803B0F0BD24
:101320008869019009691C46FFF7DBF807460298B7
:10133000201AFFF755FA01463846FFF717F9054618
:10134000301BFFF74DFA01462846FFF7D2F8019906
:10135000FFF776F803B0F0BDB0B50A4C01250022C6
:101360002046294604F063FD284604F065FC20462B
:1013700029462A4604F05BFD03484068034908609B
:10138000B0BDC0460004005034000020CC00002056
:10139000F0B585B072B600252C46009505E0019F9A
:1013A00079000D18641C182C4ED0019510210122D3
:1013B0003D4804F03CFD009803900398072817D897
:1013C0000398401C03900398072811D80398401CE9
:1013D0000390039807280BD80398401C03900398A8
:1013E000072805D80398401C039003980828E7D3E2
:1013F00020212D4F384604F015FD0546102100260A
:101400003846324604F013FD0496691E48424841AE
:1014100004990729C3D80499491C04910499072900
:10142000BDD80499491C049104990729B7D8049997
:10143000491C049104990729B1D80499491C0491C5
:1014400004990829E7D3AAE710210122164804F0DD
:10145000EEFC02960298072817D80298401C0290CA
:101460000298072811D80298401C02900298072879
:101470000BD80298401C02900298072805D80298C1
:10148000401C029002980828E7D310210022064849
:1014900004F0CDFC780202D5FF200006054362B6B9
:1014A000284605B0F0BDC04600080050B0B5FFF7B3
:1014B0006FFF0446FFF76CFF8442254609DA844239
:1014C0000ADDFFF765FF84420BDAA5420CDD2846F2
:1014D000B0BD05468442F4DC0446FFF759FF844260
:1014E000F3DB0446A542F2DC25462846B0BD0000E9
:1014F000F0B591B0F7A00AF031FE012080050B9005
:10150000FF20019000060A900024F04D0C940294F4
:10151000EF494E1C0C9A1446134603E0641C202C21
:1015200000D1EFE10794089309920691304672B614
:101530000C9E3446059005E00E9949000E18641C77
:10154000182C4ED00E9610210122284604F06FFC74
:101550000C9810901098072817D81098401C1090DD
:101560001098072811D81098401C10901098072840
:101570000BD81098401C10901098072805D8109888
:10158000401C109010980828E7D32021284604F02A
:1015900049FC06461021002728463A4604F047FC3D
:1015A0000D971097711E4842484110990729C3D8DA
:1015B0001099491C109110990729BDD81099491C00
:1015C000109110990729B7D81099491C10911099BA
:1015D0000729B1D81099491C109110990829E7D30F
:1015E000AAE710210122284604F021FC0D98109052
:1015F0001098072817D81098401C109010980728AA
:1016000011D81098401C1090109807280BD81098EB
:10161000401C10901098072805D81098401C109076
:1016200010980828E7D3102128460D9C224604F084
:10163000FEFB31460A98014304910B980E99014034
:101640000E9162B672B62746204606E00F99490011
:1016500008187F1C182FBE4D4ED00F90102101226C
:10166000284604F0E4FB0D9810901098072817D82E
:101670001098401C10901098072811D81098401C02
:101680001090109807280BD81098401C10901098B4
:10169000072805D81098401C109010980828E7D308
:1016A0002021284604F0BEFB2A46054610210024CE
:1016B0001046224604F0BBFB1094691E4842484184
:1016C00010990729C2D81099491C1091109907291F
:1016D000BCD81099491C109110990729B6D81099B7
:1016E000491C109110990729B0D81099491C1091E4
:1016F00010990829E7D3A9E70D9010210122284667
:1017000004F095FB10940E98002800D0049E0496D7
:101710001098072817D81098401C10901098072888
:1017200011D81098401C1090109807280BD81098CA
:10173000401C10901098072805D81098401C109055
:1017400010980828E7D310212846224604F06FFBA2
:101750000D990A98014303910B980F9901400F913D
:1017600062B672B62646254605E00E9949000D1868
:10177000761C182E4ED00E9510210122744D28464D
:1017800004F055FB10941098072817D81098401CA7
:1017900010901098072811D81098401C109010989D
:1017A00007280BD81098401C10901098072805D8CF
:1017B0001098401C109010980828E7D32021284644
:1017C00004F030FB2A4605461021002710463A4611
:1017D00004F02DFB1097691E4842484110990729D3
:1017E000C3D81099491C109110990729BDD8109998
:1017F000491C109110990729B7D81099491C1091CC
:1018000010990729B1D81099491C109110990829ED
:10181000E7D3AAE7102101224D4804F008FB1097F6
:101820000F98002801D003980D9010980728079C66
:10183000049E17D81098401C10901098072811D8B3
:101840001098401C1090109807280BD81098401C36
:1018500010901098072805D81098401C10901098E8
:101860000828E7D31021002239480F9204F0DFFA4C
:1018700062B60A2004F0E0F90B980E99014201D0FB
:101880000A980543099A089B069F0D998E42304697
:1018900011DDA84212DA8E4213DA86422C4D00DCAA
:1018A0000646F0179B19424105988642314623DDD2
:1018B000B94225DA32E60846A842ECDB28468E42D9
:1018C000EBDB0E468642224DEADDEAE700080050D7
:1018D000FFFFFF7F546172616E646F2E2E2E2041D8
:1018E000677561726465206573746162696C6964AF
:1018F0006164652E0D0000000646B94200DA0DE66F
:1019000039460BE6711A01982C308142029C0DDD9C
:101910001BA009F051FF641C0A2C00D0F7E52648F3
:101920000AF01CFC0B48406811B0F0BDD017C00E87
:1019300018180F9951414009C906411805484160DE
:1019400005A009F039FF0348406811B0F0BDC0465A
:1019500000080050CC00002054617261206573744F
:101960006176656C20636F6E636C756964612120BC
:101970004F6666736574203D2025640D0A000000E3
:101980004C6569747572617320696E7374617665F4
:1019900069732028646966663A202564292E2054DC
:1019A000656E74616E646F206E6F76616D656E74C6
:1019B000652E2E2E0D0A00007A2201087D200001DE
:1019C000054948607047C046704700007D2000010F
:1019D000014988607047C04668010020E348012142
:1019E0008170704710B5274800F018FD26480AF0AE
:1019F000B5FB0A24204604F01FF92448244901F0CD
:101A000093FA24480AF0AAFB204604F015F922486C
:101A100002F058FA21480AF0A1FB204604F00CF924
:101A20001F4802F0A3FB1F480AF098FB204604F071
:101A300003F91D4808F0AEF807F0B0FF01F066FEAC
:101A400008F0D6FB02F0ECFAFFF786FC17480AF024
:101A500085FB17A00AF082FB1FA009F0ADFE02F083
:101A600029FD002801D127A000E024A00AF076FB80
:101A700000F0FEFD2E4807F0DDFF2E4807F0E2FFE4
:101A800010BDC046181F002020E70008AC1F002032
:101A9000152C000875E700088C1A002057E700088D
:101AA000F818002034E70008C01D002095E6000863
:101AB000312E204D6F64756C6F7320646520536FF9
:101AC0006674776172652065204472697665727309
:101AD0002E2E2E204F4B0D00322E20476572656E44
:101AE000636961646F7220646520436F6E66696725
:101AF000757261636F65732E2E2E20005B4F4B5DF8
:101B00000D0000005B415649534F5D2052657374D0
:101B100061757261646F20636F6D20636F6E6669BB
:101B2000677320646520666162726963612E0D00CF
:101B300000008E420AD7CD41F0B583B0634C2078C7
:101B4000022867D0012873D176A00AF007FB03E0D2
:101B500000F08EFD01F090FD00F082FB0028F7D12F
:101B600001F016FA0028F3D10A2004F065F80520E8
:101B700000070290012671020191324604F057F9E4
:101B800019204701384604F057F86D4820252946AA
:101B9000324604F04CF9384604F04EF869486A4978
:101BA000016000242046314604F0F0FE08F080FB7E
:101BB00007F068FE07F09AFE6448654901F0B4F941
:101BC00064480AF0CBFA5E482946224604F02FF911
:101BD000384604F031F802980199224604F027F9BA
:101BE000384604F029F8632001F05EFA01F0D0F9DC
:101BF000002805D001F040FD01F0CAF90028F9D114
:101C000004F01EF93149486088608C700220087029
:101C100003B0F0BDA078012823D100202070A0706F
:101C200036A00AF09BFA672000F0A2F803B0F0BDDE
:101C300000F01EFD01F020FD01F0B6F900F042FCBD
:101C400008F0E2FA07F0B4FE01F068FD02F096FA3F
:101C50006078012837D1012020700020607003B027
:101C6000F0BD04F0EDF86168401A194DA84206D99C
:101C700018A00AF073FA0120207003B0F0BD04F040
:101C8000DFF8A168401A19214901C731884216D9E5
:101C900004F0D6F8A06004F0D3F86168441A7D20FF
:101CA000C1002046FEF7EFFDAC4202D80521081A1C
:101CB00000E0002001B21520000201F065FA01F0F9
:101CC000DBFC01F071F903B0F0BDC0465800002004
:101CD0008813000054696D656F75742120566F6C10
:101CE00074616E646F2070617261206F206D6F642B
:101CF0006F2053746F702E0D00000000436F6E66EE
:101D000069726D61646F21205265746F726E616ECD
:101D1000646F20616F206D6F646F20617469766FEE
:101D20002E0D0000456E7472616E646F20656D202B
:101D30006D6F646F2053746F702E2E2E0D00000097
:101D4000000400501870004001000100AC1F00208A
:101D5000152C0008E1E6000880B57D20800003F026
:101D60006BFF02480121417080BDC0465800002031
:101D7000F0B583B004464AA00AF0F0F9524853A1E6
:101D800009F01AFD0025284601F08EF901F074FCD7
:101D9000554803F051FF08F0A1FB002879D00294C8
:101DA000494C5249204609F007FD0120019001F0FD
:101DB0007BF901F061FC7D20C6003746C837384604
:101DC00003F03AFF4A49204609F0F6FC022001F0F0
:101DD0006BF901F051FC384603F02EFF45492046CF
:101DE00009F0EAFC032001F05FF901F045FC304600
:101DF00003F022FFFFF77CFB3F49204609F0DCFCA3
:101E0000042001F051F901F037FC304603F014FFD3
:101E100008F000FB074607F011FE3846FEF71FFDED
:101E2000024636A00B4609F0C7FC3CA1204609F04B
:101E3000C3FC052001F038F901F01EFC6436304681
:101E400003F0FAFE02F044F800281AD03D480AF0E8
:101E500085F91D483C4909F0AFFC062001F024F942
:101E600001F00AFC304603F0E7FE38480AF076F944
:101E7000029801F019F901F0FFFB019D284603B01B
:101E8000F0BD2E480AF06AF93B2001F00DF901F08F
:101E9000F3FB2B480AF062F9284603B0F0BDC046B8
:101EA0000D0A3E3E3E20494E494349414E444F2093
:101EB0004155544F444941474E4F535449434F2095
:101EC0003C3C3C0D0000000028E6000845786962B3
:101ED000696E646F204C6F676F2065205665727362
:101EE0006F65732E2E2E0000B80B0000F1E700087E
:101EF000D5E70008A4E70008BBE700082020202E53
:101F00002E2E2054656D70657261747572613A2071
:101F1000252E326620430D0A0000000056657269C6
:101F2000666963616E646F204D656D6F72696120D3
:101F3000454550524F4D2E2E2E00000071E60008F0
:101F4000C0E600085EE6000891E700083AE60008EF
:101F500010B586B01C4C204609F02EFC204609F036
:101F60002BFC1A4809F028FC05A804A903AA07F0CD
:101F7000E9FD002808D003A8037804A8027805A882
:101F8000017813A009F018FC02A801A96A4607F01D
:101F9000B5FD002808D06846037801A8027802A899
:101FA000017816A009F008FC074C204609F004FC53
:101FB000204609F001FC204609F0FEFB204609F00E
:101FC000FBFB06B010BDC0463FEE0008B3C20008E0
:101FD000417373696E617475726120202020202026
:101FE0002020202020202020253032643A25303245
:101FF000643A253032640A0D0000000052657370A7
:102000006F6E736176656C202020202020202020B8
:1020100020202020253032642F253032642F2530B7
:1020200032640A0D0000000010B586B0072901D8FF
:102030004C482FE0801D891F89B203AA0B2301F0B1
:10204000BDFA002825D003A80078002829D06846CA
:10205000002484720481019400940B2102F04CF856
:10206000002826D069468C7203A8FEF79CF8002849
:1020700024D003A824A10822FEF7A3F8002825D025
:1020800023A003A909F098FB3E2001F00DF806B04B
:1020900010BD12A00AF062F83B2001F005F806B06E
:1020A00010BD2F480AF05AF83E2000F0FDFF06B0A0
:1020B00010BD3B2000F0F8FF06B010BD27480AF025
:1020C0004DF8172000F0F0FF06B010BD1AA00AF07E
:1020D00045F82E2000F0E8FF06B010BD4175746889
:1020E0003A2046616C6861206E6F20706172736582
:1020F0007220726F627573746F2064612073656EF5
:1021000068612E0D0000000047484B40313233001B
:10211000417574683A2053656E686120696E636F1B
:1021200072726574612E20446967697461646F3AE4
:1021300020272573270D0A00417574683A20456EE3
:102140007472616E646F206E612074656C612064CE
:1021500065205365727669636F210D00CB220108FB
:10216000E1220108FE22010810B584B0082904D23A
:102170003B2000F099FF04B010BD801D891F89B27B
:1021800001AA0B2301F01AFA002816D001A8FEF7C5
:1021900003F8002813D0314C2178002917D00020F3
:1021A0002070641C01A92046FDF7FDFF002820D007
:1021B000402000F079FF04B010BD15A000E01EA083
:1021C00009F0CCFF3B2000F06FFF04B010BD0428E5
:1021D00004D23F2000F068FF04B010BD601C01A9CC
:1021E000FDF7FCFF012020701F2000F05DFF04B010
:1021F00010BD204602F00EF9002804D13B2000F06B
:1022000053FF04B010BD172000F04EFF04B010BD06
:10221000417574683A2046616C6861206E6F207069
:102220006172736572206465206E6F7661207365DC
:102230006E68612E0D000000417574683A204E6F83
:1022400076612073656E68612076617A69612064C9
:102250006573636172746164612E0D00300100204A
:10226000EE488178002901D001207047C18800899B
:10227000081A411E8841704710B50068C1690907F6
:1022800002D5416A08210162E44CE06805F0B4FF20
:10229000E0680122214606F06BFB10BDF0B581B06D
:1022A000574C6078002800D0A7E025780C2D32DC50
:1022B000082D40D00A2D32D0FDF71AFF0068405D8E
:1022C0008006C00E00D189E0A0887E2800D985E074
:1022D0004E490D54401CA0801B2004F0C1F9092078
:1022E00004F0BEF947480A2D0AD1E188491C014093
:1022F0002289914204D0E288434B0D269E54E1800E
:10230000E188491C0140208981425DD0E0883E4A35
:102310001554E18058E07F2D0DD00D2DCCD1A08833
:10232000002858D0394900220A540120607038A092
:1023300009F014FF52E0A08800284FD0401EA08072
:102340001B2004F08DF9092004F08AF9E088401C74
:102350002C4F38402189884204D0E1882A4A08233A
:102360005354E0801B25284604F08AF9092630469C
:1023700004F086F9284604F073F9304604F070F949
:10238000E088401C38402189884204D0E1881E4AF8
:1023900020235354E0801B25284604F071F90926B8
:1023A000304604F06DF9284604F05AF9304604F03E
:1023B00057F9E088401C38402189884204D0E188E0
:1023C000114A08235354E0801B2004F059F90920D6
:1023D00004F056F902E0A54809F0EEF9E0680122A0
:1023E000214606F0C5FA002807D0E06805F004FF92
:1023F000E0680122214606F0BBFA01B0F0BDC046FC
:1024000064000020FF030000C420002044200020BE
:102410000D000000BA4800218170704780B508495E
:10242000C860012206F0A4FA002801D001F0F2FDF4
:1024300004A009F093FE8D4809F0BEF980BDC046A6
:10244000640000200D0A434C492050726F6E746185
:102450002E20446967697465202748454C50272021
:102460007061726120636F6D616E646F732E0D0019
:1024700070B504461B2004F0F3F8092004F0F0F8CE
:10248000A0480A2C0BD19E49CA88521C02400B89D5
:102490009A4204D0CB889C4D0D26EE54CA809849B0
:1024A000CA88521C02400889824203D0C888964BD1
:1024B0001C54CA801B2004F0E3F8092004F0E0F863
:1024C00070BDC046F0B581B0544E7078012800D080
:1024D000A2E0FDF70DFE05460068514C2778C15D6E
:1024E000C90706D06778C15DC907A41C0029F5D1CA
:1024F000641E20212046FDF745FE00281AD0002149
:102500000170811C2A684D1E2878135CDB0716D0E9
:102510000878135CDB0711D04878135CDB0759D0CF
:102520008878135CDB07091D002BECD18D1E002879
:1025300007D007E00025002F07D163E00D460028F3
:1025400000D105462778002F5CD036492046FDF79C
:102550004EFE00283CD035492046FDF748FE324F5C
:1025600000283BD032492046FDF741FE002837D0F5
:1025700030492046FDF73BFE002833D02E49204647
:10258000FDF735FE00282FD02C492046FDF72FFE01
:1025900000282BD02A492046FDF729FE002827D005
:1025A00028492046FDF723FE002823D0264920464F
:1025B000FDF71DFE00281FD024492046FDF717FE19
:1025C00000281BD0224823A1224609F0F5F819E083
:1025D000154F14E04D1C0028B3D0B3E708370EE0C8
:1025E00010370CE018370AE0203708E0283706E0FB
:1025F000303704E0383702E0403700E04837796888
:102600002846884706488021FDF7A4FD0020707009
:10261000B080164809F0D0F801B0F0BD6400002089
:10262000442000205FED0008C0E4000834ED0008FD
:1026300055ED00085AED000864ED000869ED00084A
:102640003AED00084CED000842ED000847ED0008A7
:10265000F3EC0008436F6D616E646F206465736313
:102660006F6E68656369646F00000000EEEC00083F
:1026700070B5234CA078002803D1E08821898842D6
:1026800000D170BD1B2003F0EBFF092003F0E8FF31
:10269000A078012806D11B2003F0F2FF092003F0E7
:1026A000EFFF70BD0120A0702089E188884201D130
:1026B000002512E000211348134A238925896D1C47
:1026C000054025816518D35C2B7423894D1CE68851
:1026D000B34202D03F292946EFD31B2003F0D0FF9D
:1026E000092003F0CDFF2804CBD0E068214610314B
:1026F000AAB206F07DF90028C3D00020A07070BDFA
:1027000064000020FF030000C4200020F0B581B069
:102710001E4D281D1E49FDF71DFD1E48012100917B
:1027200029606121A860E96000272F827F20C00511
:1027300068611948E8611948281819491CC91CC062
:102740000A880280897881708726164C28462030B6
:1027500021681022FDF709FD30202F542846313022
:102760000A221149FDF7DDFC28463030E16A226B70
:10277000C2828182A1692964C77228354034761EDD
:10278000E4D10A480099417101B0F0BDC424002091
:10279000D816000073656E6805000200C8160000B8
:1027A000F0250108D8C2000800260108C00000205A
:1027B00070B5002818D00446FDF79AFC054600685D
:1027C0002178415CC90716D06178415CC9070FD0F8
:1027D000A178415CC9070DD0E178415CC907241D8F
:1027E0000029EDD1641E06E040A008F0E5FF70BDB1
:1027F000641C00E0A41C20212046FDF7C3FC002837
:102800001AD000210170811C2A684D1E2878135CA3
:10281000DB0714D00878135CDB070FD04878135C13
:10282000DB0738D08878135CDB07091D002BECD15F
:102830008D1E002805D005E0002503E00D46002888
:1028400000D105461B492046FDF7D1FC002818D0D1
:102850001A492046FDF7CBFC174E002816D0184920
:102860002046FDF7C4FC002819D016492046FDF784
:10287000BEFC002818D0144814A1224608F09CFF82
:1028800070BD0D4E71682846884770BD0836716866
:102890002846884770BD4D1C0028D2D0D2E710369C
:1028A00071682846884770BD183671682846884781
:1028B00070BDC04636ED000810E500086EED00085A
:1028C0000DED000872ED0008F3EC0008537562632B
:1028D0006F6D616E646F204457494E206465736369
:1028E0006F6E68656369646F000000005375626312
:1028F0006F6D616E646F204457494E2066616C7441
:10290000616E646F2E20557365202748454C502713
:102910002E00000080B586B0684607F035F80AA0A2
:1029200009F01CFC0198FDF79AFF02460CA00B462B
:1029300008F042FF0298FDF792FF02460FA00B46F7
:1029400008F03AFF06B080BD4461646F732064658F
:10295000204672657175656E6369613A0D0000000D
:1029600020202D2050756C736F732028656D2031E9
:1029700073293A20252E31660D0A000020202D20D3
:10298000457363616C612041202863616C63293A5F
:1029900020252E32660D0A0080B586B0684606F006
:1029A000F3FF0098FDF75BFF024603A00B4608F01B
:1029B00003FF06B080BDC0464461646F732064614C
:1029C0002042616C616E63613A0D0A20202D205017
:1029D00065736F3A20252E326620670D0A000000CD
:1029E00080B507F017FDFDF73AFF024602A00B463F
:1029F00008F0E2FE80BDC04654656D70657261747A
:102A000075726120696E7465726E6120646F204D0D
:102A100043553A20252E326620430D0A000000005F
:102A200080B5024809F09AFB80BDC046F8E800086E
:102A300080B52E2000F038FB80BD0000B0B584B01A
:102A4000002825D001A9009119A103AD02AC2A46A6
:102A50002346FDF7DFFB03281FD12878411EC9B2AA
:102A60001E291AD821784A1ED2B20B2A15D801AADB
:102A7000127807F0C5F8002814D001A8037802A83E
:102A8000027803A801781CA008F096FE04B0B0BD3F
:102A9000244809F063FB04B0B0BD094809F05EFBAF
:102AA00004B0B0BD07A009F059FB04B0B0BDC046EA
:102AB000256868752F256868752F2568687500007A
:102AC00052E800084572726F3A2046616C686120D6
:102AD000616F20736574617220612064617461208C
:102AE0006E6F20686172647761726520646F205236
:102AF00054432E0D000000004F4B2E205254432013
:102B0000617475616C697A61646F207061726120B3
:102B1000253032752F253032752F253032750D0A4C
:102B2000000000009EE8000870B584B0002822D0A4
:102B300001AE009617A103AD02AC2A462346FDF76D
:102B400069FB03281CD12878172819D821783B293C
:102B500016D832783B2A13D807F064F8002814D02E
:102B600001A8037802A8027803A801781BA008F046
:102B700023FE04B070BD244809F0F0FA04B070BD23
:102B8000084809F0EBFA04B070BD07A009F0E6FAB6
:102B900004B070BD256868753A256868753A25687F
:102BA0006875000007E800084572726F3A204661B8
:102BB0006C686120616F20736574617220612068A8
:102BC0006F7261206E6F2068617264776172652038
:102BD000646F205254432E0D000000004F4B2E20F6
:102BE00052544320617475616C697A61646F20701E
:102BF00061726120253032753A253032753A2530C0
:102C000032750D0A00000000CBE8000880B508F01E
:102C10005DFC80BD10B5062900D2DCE002785A2A9E
:102C200000D0D8E04278A52A00D0D4E0C278832A28
:102C300000D0D0E0427903791B029A18082992B299
:102C400014D300237C4CA2420ED07C4CA2420BD069
:102C50007B4CA24208D08378DC1C8C4206D8C31877
:102C60009C785B781B021B19764C2380764B9A422A
:102C700014DC814B9A4226DD804B9A424ADD804B20
:102C80009A427DDCC1239B019A4200D18FE06C4BBC
:102C90009A4200D09FE0FFF767FA10BD6B4B9A4253
:102CA00023DD6B4B9A4243DD6A4B9A4274DC6A4BDC
:102CB0009A4200D183E081231B029A4200D08AE02D
:102CC00002F048F810BD724B9A423FDC19231B02F8
:102CD0009A4200D186E0714B9A4200D19CE0564B5B
:102CE0009A4278D1FFF7A0F910BD5F4B9A423ADCC7
:102CF000604B9A4279D031200002824200D18EE0AE
:102D00008120C001824266D100204E49085E01F058
:102D100069FF10BD494B9A425ED05B48824271D038
:102D20005A48824257D14748008800F003FF10BD3F
:102D30004A4B9A4253D04A4B9A4268D0494B9A42E6
:102D400049D1404A128801F017F810BD8120800156
:102D500082424FD04F48824264D04F4882423AD19B
:102D600001F07EF810BD05231B039A4245D03F4B6E
:102D70009A425CD03E4B9A422DD106F0B9FF10BD6D
:102D8000404B9A421FD06123DB019A4223D12D4A46
:102D9000128800F08FFF10BD21208002824216D0E1
:102DA00085200002824216D101F086FF10BD254821
:102DB0000088411E4842484100F004FF10BD3A48D7
:102DC0003821018010BD2020FEF7D2FF10BD1D4824
:102DD000007801F095FC10BD07F076F810BD01F009
:102DE00031F810BDFEF7FAFD10BD164A128800F04A
:102DF0003FFE10BD01F0DCFE10BD06F073F801F0DF
:102E0000E1FF10BD0F48008800F00CFF10BD0D4819
:102E1000008800F085FD10BDFEF79EFF10BD01F09B
:102E200007F810BD0748008800F0C8FD10BD054830
:102E3000008800F093FD10BD302000000F3000002E
:102E400060300000402000208F3000002F70000014
:102E50008F700000FF830000907000003070000051
:102E60006070000070700000FF4F000010700000E4
:102E700020700000903000000E3000003F30000055
:102E80006F30000070300000203000003030000053
:102E90003F200000502000006020000020200000A3
:102EA000014800887047C0465400002080B50248A1
:102EB00002F06AFD80BDC0467819002080B5034845
:102EC00002F062FD024802F05FFD80BD1C19002087
:102ED000D419002080B5024802F056FD80BDC046DE
:102EE000301A002080B500680E21016202F0A8FFB0
:102EF000D849486100208870487080BD10B54A1ECE
:102F00003F2A0AD80068054A904206D1D14C218157
:102F10000120607002F094FFA06110BD00440040E9
:102F2000CC48002101707047F0B581B00546C94F0B
:102F3000002038707870B880F880B870FD60396112
:102F400078613C461C34402620463146FDF702F9A4
:102F500001200102C048FDF7FDF80C483146FDF79D
:102F6000F9F828462146324605F07AF800280BD0B9
:102F7000F86805F041F9F8684022214605F070F83C
:102F8000002801D001F046F801B0F0BDA83B0020B8
:102F9000EE480178002901D0012070478188C0885F
:102FA000081A411E8841704770B590B002F048FF82
:102FB000E64E7169002907D07169411A64295FD30F
:102FC000002171610121B170B17801291CD100206B
:102FD000B0707070F06805F00FF9F06834461C347A
:102FE0004022214605F03CF8002849D0F06805F061
:102FF00003F9F0684022214605F032F800283FD05E
:1030000001F008F810B070BD7178012938D1B169AC
:10301000401A142834D372B6348935461C356846B4
:1030200029462246FDF77DF800207070308162B697
:10303000F0684022294605F013F800280BD0F0680C
:1030400005F0DAF8F0684022294605F009F8002872
:1030500001D000F0DFFF6B46987859781A78062C7B
:1030600010D15A2A0ED1A5290CD103280AD1DD7816
:10307000822D07D11D794F2D04D15B794B2B01D1C6
:1030800010B070BD042CFBD35A2AF9D1A529F7D171
:10309000C01CC1B28C42F3D33269002AF0D068461A
:1030A000904710B070BDC046F0B581B004461C20FA
:1030B00003F0D6FA0B2003F0D3FAE6488188C288E1
:1030C000914207D2C1888288D24389188DB20A2DD5
:1030D00007D24BE08188C288511AFF318DB20A2D88
:1030E00044D3220A8688DC495A238B558688761C6D
:1030F000F6B286808688A5278F558688761CF6B21C
:103100008680868807278F558688761CF6B286804B
:10311000868882278F558688761CF6B286808688B8
:1031200000278F558688761CF6B28680868884278D
:103130008F558688761CF6B2868086888B55838864
:103140005B1CDBB2838083880126CE5483885B1CA2
:10315000DBB283808388CA548288521CD2B28280B8
:1031600082888C548188491CC9B281801C2003F05C
:1031700087FA0B2003F084FA092D02D8002001B051
:10318000F0BD012001B0F0BDF0B581B00C460546A0
:103190001C2003F065FA0B2003F062FAAD48818829
:1031A000C288914207D2C1888288D24389188EB2E0
:1031B000082E07D240E08188C288511AFF318EB2B2
:1031C000082E39D3A1B22B0A090A00918788FA493F
:1031D0005A22CA558288521CD2B282808288A52780
:1031E0008F548288521CD2B28280828805278F54E5
:1031F0008288521CD2B28280828882278F54828831
:10320000521CD2B2828082888B548288521CD2B2E5
:10321000828082888D548288521CD2B282808288B9
:10322000009B8B548288521CD2B2828082888C543C
:103230008188491CC9B281801C2003F021FA0B202F
:1032400003F01EFA072E02D8002001B0F0BD0120C5
:1032500001B0F0BDD4000020E83B0020F0B583B001
:103260000C4605461C2003F0FBF90B2003F0F8F98F
:10327000D0488188C288914207D2C1888288D243CF
:1032800089188EB20A2E07D251E08188C288511A5D
:10329000FF318EB20A2E4AD3210A0291210C0191EC
:1032A000210E00912B0A8188C34A5A2757548188DE
:1032B000491CC9B281808188A52757548188491C3F
:1032C000C9B281808188072757548188491CC9B2B7
:1032D00081808188822757548188491CC9B28180A6
:1032E000818853548188491CC9B281808188555492
:1032F0008188491CC9B281808188009B5354818890
:10330000491CC9B281808188019B53548188491C22
:10331000C9B281808188029B53548188491CC9B2FB
:103320008180818854548188491CC9B281801C20C5
:1033300003F0A6F90B2003F0A3F9092E02D8002010
:1033400003B0F0BD012003B0F0BDC046D4000020A2
:10335000F0B583B00024002978D00546002875D048
:10336000E74FF868002871D00E461C2003F078F96A
:103370000B2003F075F9B888F98888420AD2F888DA
:10338000B988C943401880B286420AD801248642CF
:103390000AD955E0B888F988081AFF3080B2864209
:1033A000F4D9002486424BD80294032130460840C9
:1033B0000190721E032A01D2002122E08E430021D7
:1033C000D04A6B5CB8881354B888401CC0B2B8802F
:1033D00068184378BC881355BB885B1CDBB2BB8084
:1033E0008378BC881355BB885B1CDBB2BB80C0787C
:1033F000BB88D054B888401CC0B2B880091D8E422A
:10340000DFD1019E002E029C1AD0685CBB88BD4AA9
:10341000D054B888401CC0B2B880012E10D06918B2
:103420004878BB88D054B888401CC0B2B880022EFF
:1034300006D08878B9885054B888401CC0B2B8808B
:103440001C2003F01DF90B2003F01AF9204603B0ED
:10345000F0BDC046D4000020E83B0020F0B591B09C
:103460000025002A00D1A2E0002900D19FE01446E7
:10347000A34FFA68002A00D199E006460091084659
:10348000FCF78AFE0346A04200D323465A1DD1B260
:103490003D2900D98BE001AC66718221E170A270F8
:1034A000A52060705A202070300A2071A01D00995C
:1034B0001A461D46FCF735FE2819FF21C17181719E
:1034C0001C2003F0CDF80B2003F0CAF8B9880835AA
:1034D000E8B2FA8891420BD2F988BA88D2438918A7
:1034E00089B281420BD30122009281420BD257E074
:1034F000B988FA88511AFF3189B28142F3D2002289
:10350000009281424CD303210D40411E032901D278
:10351000002124E0FC21084000217A4A01AB5C5CD8
:10352000BE889455BC88641CE4B2BC805B185C788F
:10353000BE889455BC88641CE4B2BC809C78BE886C
:103540009455BC88641CE4B2BC80DB78BC881355FD
:10355000BB885B1CDBB2BB80091D8842DED1002D1D
:103560001ED001A8425CBB886648C254BA88521C6F
:10357000D2B2BA80012D13D001AA52185278BB885A
:10358000C254BA88521CD2B2BA80022D08D001AA05
:1035900051188978BA888154B888401CC0B2B88064
:1035A0001C2003F06DF80B2003F06AF8009D2846FC
:1035B00011B0F0BDD4000020E83B0020F0B583B08E
:1035C0001C4615460E46521E29469141421E019048
:1035D00090410840012E01D8002100E00121014066
:1035E000601E274687410F40012F42D128462146C1
:1035F000FCF7B0FD022C38D3B01EA11E884200D3C8
:1036000008460290401C00900122002305E0D01CD7
:103610001B1D121D0099884227D00198C618717889
:10362000FF2922D0202900D3E954029898421CD0C7
:10363000B178FF2919D0202901D3E81841700298E8
:10364000824212D0F178FF290FD0202901D3E81847
:103650008170901C0099884207D03179FF2904D0ED
:103660002029D4D3E818C170D1E72819401E0021C1
:103670000170384603B0F0BD70B5214C20780028A9
:103680003CD1A088E188884238D01C2002F0E8FFB5
:103690000B2002F0E5FF2078012806D11C2002F063
:1036A000EFFF0B2002F0ECFF70BD01202070E088DE
:1036B000A188884201D1002511E000211148124A59
:1036C000E388C35C5354E3885B1CDBB2E380E3888C
:1036D0004D1CA688B34202D03F292946F0D31C20B6
:1036E00002F0CEFF0B2002F0CBFFE068AAB2064941
:1036F00005F07EF9002801D00020207070BDC04682
:10370000D4000020E83B0020A83B0020D448012141
:1037100001706C48002101707047C046F0B591B04F
:103720007D20C700674E3078002805D002F088FB66
:103730007168401AB84244D202F082FBB168401A64
:10374000B84255D302F07CFBB060FFF7A9FB3528E7
:1037500001D038284AD1FFF71BFC002848D102A825
:1037600006F012F963490398FCF7C3FEFDF75EF813
:103770000146614C20462030FFF770FD5F490498F8
:10378000FCF7B7FEFDF752F8014620463030FFF750
:1037900065FD7078401C7070C0B2052828D30020E9
:1037A000707006F037FE054606F048F95349284682
:1037B000FCF79FFEFDF73AF801462046FFF7E4FCD0
:1037C00016E002F03DFB70603078401E062864D899
:1037D00078440079400087440363545A4E696F006F
:1037E000022030700E20FFF75FFCA5E7002070700C
:1037F00002F026FBF168401AB8423AD302F020FBEF
:10380000F060FFF74DFB672833D10DA80CA90BAA78
:1038100006F098F900282CD00AA809A908AA06F0F1
:103820006DF9002825D00CA803780DA802780BA804
:103830000078009002AC32A1204607F0E9FF0AA808
:10384000027809A8037808A8007800900EAD30A18E
:10385000284607F0DDFF01204603082730462146B1
:103860003A46FFF7FBFD1036304629463A46FFF749
:10387000F5FD11B0F0BD062030701220FFF714FCEA
:103880005AE7042030701020FFF70EFC54E70520A3
:1038900030701120FFF708FC4EE7002030704BE736
:1038A000032030700F20FFF7FFFB45E70720307043
:1038B000002000F083F83FE70020307002A008F0FD
:1038C0004DFC39E73C010020444953504C41593AE2
:1038D0002053657175656E636961206465206D654F
:1038E000646963616F2066696E616C697A616461A5
:1038F0002E0D00000AD7233C30220000000020419A
:10390000253032643A253032643A25303264000082
:10391000253032642F253032642F25303264000088
:1039200080B5044804A12022FFF798FD3520FFF759
:10393000BBFB80BD9640000041646A75737446729B
:10394000657175656E63793A20333030302E304BB7
:10395000487A2B2F2D322E300000000010B50A4C73
:10396000002807D0FEF7D2FE08A110222046FFF75C
:1039700075FD10BD0AA11B222046FFF76FFD302008
:10398000FFF792FB10BDC046964000005072657371
:10399000657420436F6D706C65746F2100000000CA
:1039A000507265736574207265646566696E652022
:1039B0006F7320616A75737465732100F0B591B0FF
:1039C00088490978012903D1002803D006F034FB87
:1039D00011B0F0BD06AC204600F078FB207807AEB1
:1039E000314600F059FB684605F0CEFF00F07AFB47
:1039F00004461C4D102228463146FFF72FFD20209B
:103A0000315E2846C030FFF7BFFB0A271098784385
:103A100001B22846E030FFF7B7FBF08C784301B2E3
:103A20002846F030FFF7B0FB012C01D00F4900E031
:103A30000D490598FCF75DFDFCF7F8FE0146903551
:103A40002846FFF7A1FB012C04D07720FFF72CFBC1
:103A500011B0F0BD1320FFF727FB11B0F0BDC04639
:103A60005600002070200000000020410000C842E5
:103A7000B0B594B0502A1ED101AC0020207505903D
:103A800004900390029001901521204600F0E8FA7E
:103A900007AD23A12846224607F0BAFE2846FCF7C8
:103AA0007BFB82B21D482946FFF7D8FC2320FFF795
:103AB000FBFA14B0B0BD01AC00222275059204924D
:103AC000039202920192801D891F89B2152322461A
:103AD000FFF774FD002814D02078002811D001AC25
:103AE000204600F053FC07AD07A12846224607F008
:103AF0008FFE2846FCF750FB82B208482946FFF7A4
:103B0000ADFC14B0B0BDC0464E6F766120456D70FF
:103B1000726573613A202573000000009640000032
:103B2000417475616C20456D70726573613A202532
:103B30007300000070B58AB0154C502814D100F005
:103B4000D1FA02466D4619A1284607F061FE2846C3
:103B5000FCF722FB82B220462946FFF77FFC1B20A0
:103B6000FFF7A2FA0AB070BD054600F037FC6E46BA
:103B700008A130462A4607F04BFE3046FCF70CFB06
:103B800082B220463146FFF769FC0AB070BDC046DC
:103B9000964000004E6F766F204E525F4465636919
:103BA0006D616C733A2025750000000041747561E9
:103BB0006C204E525F446563696D616C733A2025D9
:103BC0007500000080B507490870002804D109A1DC
:103BD0000CA007F0F1FD80BD03A10AA007F0ECFDE9
:103BE00080BDC04656000020484142494C495441DE
:103BF000444100004445534142494C4954414441E9
:103C000000000000446973706C61792048616E6443
:103C10006C65723A20496D7072657373616F20250F
:103C2000730D0A0070B58AB0154C502814D100F0FD
:103C30005DFA02466D4619A1284607F0E9FD2846BF
:103C4000FCF7AAFA82B220462946FFF707FC1A20A1
:103C5000FFF72AFA0AB070BD054600F0CDFB6E46AC
:103C600008A130462A4607F0D3FD3046FCF794FA07
:103C700082B220463146FFF7F1FB0AB070BDC04664
:103C8000964000004E6F766F204E525F5265706511
:103C9000746974696F6E3A2025750000417475610E
:103CA0006C204E525F52657065746974696F6E3A2C
:103CB00020257500B0B594B0502A1ED101AC00206B
:103CC00020750590049003900290019015212046E4
:103CD00000F038FA07AD23A12846224607F098FDE8
:103CE0002846FCF759FA82B21D482946FFF7B6FB71
:103CF0002220FFF7D9F914B0B0BD01AC0022227523
:103D000005920492039202920192801D891F89B24A
:103D100015232246FFF752FC002814D020780028F3
:103D200011D001AC204600F0A7FB07AD07A1284643
:103D3000224607F06DFD2846FCF72EFA82B20848AD
:103D40002946FFF78BFB14B0B0BDC0464E6F766FAF
:103D5000205573756172696F3A2025730000000069
:103D600096400000417475616C20557375617269ED
:103D70006F3A20257300000070B592B014460D46CE
:103D8000064605A83221FCF7E5F9002C1BD06C464D
:103D9000002020740390029001900090701D691F14
:103DA00089B211232246FFF709FC002825D020788C
:103DB000002822D012A06C46214607F0FDFC2046C8
:103DC00000F03EFB0DE03620FFF76EF96C46002058
:103DD000207403900290019000901121204600F081
:103DE0009DF905AD28462146FCF7F8F9FCF7D4F912
:103DF00082B219482946FFF731FB12B070BDC046A8
:103E0000446973706C61792048616E646C65723AC4
:103E100020526563656269646F206E6F766F2073F0
:103E2000657269616C3A20272573270A000000003B
:103E300080B5094809490E22FFF710FB2120FFF742
:103E400033F980BD80B5044804490E22FFF706FB14
:103E50003220FFF729F980BD964000002123010898
:103E600010B5084C2078002800D010BD06A008F03E
:103E700075F90120207001F0E3FF60600D20FFF76D
:103E800013F910BD3C010020444953504C41593AAC
:103E900020496E696369616E646F20736571756531
:103EA0006E636961206465206D65646963616F2E6E
:103EB0002E2E0D000148012101707047901800203E
:103EC000002070474D4908607047C0460020704789
:103ED00080B54A480068002808D0A0210222642347
:103EE00002F050F801464042484180BD002080BDAC
:103EF000F0B585B006460020002A21D00D460029E5
:103F00001ED01449096800291AD00390114800688E
:103F100064210291049297B2802F00D380270095EC
:103F20000197B4B2A0210223224602F0D1F8002862
:103F300008D1ED19F619049AD21B1004E6D101201C
:103F400005B0F0BD04A0214607F036FC039805B08B
:103F5000F0BDC046A43B0020454550524F4D205275
:103F6000656164204552523A2046616C6861206563
:103F70006D20626C6F636F206E6F206164647220CD
:103F8000307825580D0A000001207047F0B585B043
:103F900007460020002A28D0002926D01546174AB7
:103FA0001268002A21D0039014480068642202920B
:103FB000049100917F2139408022561AA9B28E4285
:103FC00000D30E460196BCB2A0210223224602F085
:103FD00099F900280BD1052001F02EFE04998919CA
:103FE000F719AD1B2804DFD1012005B0F0BD04484E
:103FF000214607F0E1FB039805B0F0BDA43B00208B
:104000009B22010880B5202001F02EFE802001F0C7
:104010002BFE80BD72B6FEE707480068406A704715
:1040200080B5054803F0FEFB80BDC046024800682D
:10403000002141627047C046CC1E002010B54A1EC8
:104040000B469341441E0246A2411A40012A04D164
:10405000E84B5C69046098690860104610BDC04672
:10406000B0B54C1EA141421E054695410D40012DA3
:1040700007D1D149E64A51182246FCF776F80021CB
:1040800001552846B0BDC04680B5002803D0EB4995
:10409000B14AFCF746F880BD70B50246872801D3C7
:1040A000002300E001234C1E0846A04118400128CF
:1040B0000AD128235343E14AD218203238CA38C1E2
:1040C00038CA38C178CA78C170BDC046002805D04A
:1040D000E7494979872900D300210170411E8841B1
:1040E0007047C046E248C08B7047C046E048808BAE
:1040F0007047C04687207047B0B54C1EA141421E94
:10410000054695410D40012D06D1E849083122466A
:10411000FCF72BF8002101552846B0BDB0B54C1E68
:10412000A141421E054695410D40012D07D1CF49C1
:10413000DE4A51182246FCF718F80021015528469E
:10414000B0BDC046B0B54C1EA141421E05469541CA
:104150000D40012D07D1D449D44A51182246FCF70D
:1041600004F8002101552846B0BDC046CD490022C3
:104170004A710A7108608A717047C04670B5594D1E
:10418000287900281CD0A979012955D1401E05287D
:1041900046D8C046784400794000874434025862CB
:1041A0004E70FFF7F1FE002846D0FFF789FE002889
:1041B00000D18AE06E4807F0D1FF0720287170BD5A
:1041C0006879012829D1FFF781FE002834D101F058
:1041D00037FEA968401A684988422DD300206871CB
:1041E0000126AE712868002806D0B04C634A2146EB
:1041F00001F0DAF962496050624807F0AFFF2E71B2
:10420000A879002818D00020A849534AFFF7BEFE1D
:10421000002842D00220287170BDA87900280BD058
:10422000012068710020A871287101F009FEA860C2
:104230005048514907F0C0FA70BD46489B49464A6C
:10424000FFF7A4FE00282ED00620287170BD9749E4
:1042500041480246FFF79AFE00282AD00420287120
:1042600070BDFFF791FE0028E6D0FFF729FE002879
:1042700025D03C4807F072FF0720287170BDFFF77A
:1042800083FE0028D8D0FFF71BFE002823D023A0F0
:1042900007F064FF0720287170BD3B4807F05EFF00
:1042A0000720287170BD2D4807F058FF072028719E
:1042B00070BD2D4807F052FF0720287170BD2848B7
:1042C00007F04CFF0520287170BD284807F046FF15
:1042D0000320287170BD04A007F040FF0020A871E2
:1042E000287170BDC000002053746F726167652033
:1042F00046534D3A20426C6F636F20424B50322040
:104300004F4B2E2053616C76616D656E746F206328
:104310006F6D706C65746F2E0D00000053746F72BA
:104320006167652046534D3A204572726F2064657F
:104330002064726976657220616F206573637265AF
:1043400076657220426C6F636F20424B50322E0DA7
:1043500000000000B82D0000DC1600007EEF000811
:1043600067F0000832F0000851EF000884F0000800
:10437000A5F000084BEE000888130000B605000009
:10438000D8160000DCEF0008ABEF0008B0B501461E
:10439000002000290ED0AA4CA279002A0AD1064892
:1043A000B64D28181422FBF7E0FE044800212954DA
:1043B00001206071B0BDC0464C1500005F150000C3
:1043C00001460020862907D89D4A9379002B03D106
:1043D00001205071A94A51717047C0460146984A60
:1043E0009079002803D101235371A44AD18301217C
:1043F00048407047C42400200146914A9079002823
:1044000003D1012353719D4A918301214840704794
:10441000C4240020B0B50146002000290DD0884CEE
:10442000A279002A09D1954D284608300A22FBF7C7
:104430009CFE012060710021A974B0BDC42400203D
:10444000B0B50146002000290ED07D4CA279002A8B
:104450000AD1A448894D28181022FBF786FE05488A
:104460000021295401206071B0BDC046C81600006B
:10447000C4240020D7160000B0B501460020002952
:104480000ED06F4CA279002A0AD107487B4D28181C
:104490001422FBF76AFE06480021295401206071AE
:1044A000B0BDC046C000002038150000C424002064
:1044B0004B150000F0B581B06148006800281DD0A0
:1044C00060A007F04BFE00246C4E6D4F2046314635
:1044D0003A46FFF70DFD6B4A002813D06B4835585C
:1044E00057480068314601F05FF8A8420FD1834871
:1044F00007F062F90124204601B0F0BD00242046F7
:1045000001B0F0BD6048002107F056F905E0024611
:104510005F4800212B4607F04FF95EA007F01EFE12
:10452000564E384631463A46FFF7E2FC002812D094
:1045300056483558424800683146524A01F034F82E
:10454000A8420DD16C4807F009FE01243C48447193
:10455000204601B0F0BD4C48494907F02DF905E06F
:1045600002464B4846492B4607F026F9584807F0C3
:10457000F5FD5848414D29463A46FFF7B9FC002859
:1045800011D042483D490F582D4E30683D4A01F048
:104590000BF8B8420CD1574807F0E0FD01247471C4
:1045A000204601B0F0BD38484A4907F005F905E05A
:1045B0000246374847493B4607F0FEF8464807F0B1
:1045C000CDFD281D3149FBF7C5FD4448012100916F
:1045D00029606121A860E9602C827F20C0056861A4
:1045E0003F48E8613F4828183F494CC94CC00A88F9
:1045F00002808978817087273C4E284620303168B8
:104600001022FBF7B2FD30202C54284631300A220C
:104610003749FBF786FD28463030F16A326BC2829B
:104620008182B1692964C472283540367F1EE4D185
:104630000348009941714171204601B0F0BDC04668
:10464000C0000020454550524F4D204D616E6167BE
:1046500065723A2056657269666963616E646F209F
:10466000696E74656772696461646520646F732044
:104670006461646F732E2E2E00000000C42400209D
:10468000DC160000B605000094EE0008D816000005
:10469000CAEE0008454550524F4D204D616E61678E
:1046A00065723A205072696D6172696F20636F7232
:1046B000726F6D7069646F2E2054656E74616E64E4
:1046C0006F204261636B757020312E2E2E0000002A
:1046D000DEF00008B82D00009EF1000873656E68DA
:1046E00005000200C8160000F0250108D8C2000825
:1046F000002601085BF1000818F100081AEF000815
:10470000F0B581B09D4949780A224A438018194979
:10471000401880B2904F7978884228D240003818EB
:104720000421445E1448214607F046F87C800026A8
:104730003E70E0B2FFF744FE104807F00FFD012481
:104740003C706D462E702846FFF7C0FC28787880B4
:1047500006F044FF6620FEF7A7FC7E708748447091
:1047600004708520000206492246FEF777FE01B05C
:10477000F0BDC046F6FF000030230108FF2301080A
:10478000C2180108F0B58FB00446734E002575704D
:10479000FFF7B0FC0746002C6CD02078002869D0C9
:1047A000002F00D190E00097029403E06D1CBD4201
:1047B00000D189E0E8B205A9FFF76EFC0028F5D02A
:1047C000217805A803910029014600D00021007836
:1047D000002833D0019505AE254606E0049D6D1CEA
:1047E00001467078761C002831D02F78002F29D010
:1047F00004950D46FBF78FFC04463846FBF78BFC0F
:10480000844204D1002D3046E8D02846E6E7284609
:10481000002D029D00D0461C3078FBF77CFC07463B
:104820000398FBF778FC8742314602D18742D8D102
:1048300002E000218742D4D16D1CD2E70398000624
:104840000CD10CE0444E009F029C019D07E02878AB
:10485000414E009F029C019D000600D000210029CE
:10486000A4D070781D28A1D8411C71704000301868
:1048700085809BE77078002F27D01D2825D8410020
:1048800089190A31002422468B1F1C800319641CDD
:10489000BC4234D21C2B32D80D1F2C80641CBC426D
:1048A0002FD21B2B2DD88D1E2C80641CBC422AD2EB
:1048B0001A2B28D80C80641CBC4202D208311A2B57
:1048C000E1D3111D40181FE0707800281DD1234846
:1048D000214606F071FF3C20FEF7E6FB204821A1AF
:1048E0001822FEF7BBFDFEF753FB002805D0FEF7AC
:1048F000C3FEFEF74DFB0028F9D10FB0F0BD581CE8
:1049000002E0981C00E0D81C7070E84901224A704F
:10491000401EC0B2CD234343D80A431C0B7005ACE4
:104920001749204606F074FF2046FBF735FC852129
:10493000090282B208462146FEF790FDFEF728FBE9
:10494000002805D0FEF798FEFEF722FB0028F9D1DB
:1049500000F018F80FB0F0BD74010020BA23010870
:10496000964000004E656E68756D206772616F201D
:10497000656E636F6E747261646F21002C0000209D
:104980003C240108F0B58BB0E54840780A2141434A
:10499000844FCE193046083880B2FB4D6978824C7E
:1049A00088420DD240002818007901A9FFF774FB56
:1049B00000280CD02046203880B201A9102204E043
:1049C0002046203880B2BA490122FEF747FDF01F89
:1049D00080B2697888420AD240002818007901A97B
:1049E000FFF75AFB002807D001A9102201E0B049C7
:1049F00001222046FEF732FDB01F38406978884218
:104A00000DD240002818007901A9FFF745FB0028C6
:104A10000CD02046203080B201A9102204E02046AC
:104A2000203080B2F0490122FEF718FD701F80B2DD
:104A3000697888420DD240002818007901A9FFF753
:104A40002BFB00280CD02046403080B201A9102258
:104A500004E02046403080B2E3490122FEF7FEFC2C
:104A6000301F3840697888420CD2400028180079FD
:104A700001A9FFF711FB00280AD06034A0B201A9F8
:104A8000102203E06034A0B2D7490122FEF7E6FC11
:104A9000F01E80B26978454C88420DD2400028183B
:104AA000007901A9FFF7F8FA00280CD02046203839
:104AB00080B201A9102204E02046203880B2CA4901
:104AC0000122FEF7CBFCB01E3840697888420AD23A
:104AD00040002818007901A9FFF7DEFA002807D066
:104AE00001A9102201E0C04901222046FEF7B6FCD0
:104AF000701E80B2697888420DD240002818007973
:104B000001A9FFF7C9FA00280CD02046203080B256
:104B100001A9102204E02046203080B2B2490122CF
:104B2000FEF79CFC3740687887420DD27800281841
:104B3000007901A9FFF7B0FA00280CD020464030D8
:104B400080B201A9102204E02046403080B2A6497C
:104B50000122FEF783FC701C80B2697888420CD277
:104B600040002818007901A9FFF796FA00280AD01A
:104B70006034A0B201A9102203E06034A0B29A49C7
:104B80000122FEF76BFC6520FEF78EFAFEF700FAB5
:104B9000002805D0FEF770FDFEF7FAF90028F9D1DC
:104BA0000BB0F0BDFEFF000020820000208300005B
:104BB000B0B582B00A4807F0D1FA8A4D01202870BA
:104BC00001AC002020702046FFF780FA2078688032
:104BD00006F004FD6620FEF767FA02B0B0BDC046DD
:104BE000FF230108B0B50446234D2878012841D1A0
:104BF000FFF780FA00283DD0611E05293AD8C0464B
:104C00007944097949008F4402190E353524022070
:104C1000295E284806F0D0FD00242C70A878FFF704
:104C2000CFFB6C701AE06988491E0AB2002A00D5D1
:104C3000411E698008B206F0D1FCB0BD6988491CEC
:104C40000AB28242F5DB0021698008B206F0C6FC98
:104C5000B0BD0AA007F082FA002028806048012237
:104C600042700270852000025F49FEF7F7FB672063
:104C7000FEF71AFAB0BDC046740100204772616F9A
:104C8000735F48616E646C65723A2053656C65634E
:104C9000616F2028766961207365746173292063D0
:104CA000616E63656C6164612E0D00002C00002054
:104CB000C218010873230108B0B582B0184D2C78D2
:104CC000022C2AD317480078012826D1687821467B
:104CD000FBF7D9FD491C697013A0224606F06CFD54
:104CE0006A782B786C461A49204606F091FD2046DA
:104CF000FBF752FA8521090282B208462146FEF7E7
:104D0000ADFBFEF745F9002805D0FEF7B5FCFEF730
:104D10003FF90028F9D1FFF735FE02B0B0BDC0461B
:104D20002C00002074010020506167696E6163618E
:104D30006F3A204D7564616E646F207061726120FE
:104D4000706167696E612025642F25640D0A00007B
:104D50003C24010880B586B00B4A1278012A10D194
:104D6000801D891F89B201AA1123FEF727FC0028A4
:104D700004D001A8FFF706FD06B080BD03A007F030
:104D8000EDF906B080BDC0467401002046616C6834
:104D90006120616F20657874726169722074657832
:104DA000746F20646120706573717569736120642C
:104DB0006F207061796C6F6164204457494E2E0DED
:104DC0000000000080B5064801224270054900231A
:104DD0004B700270852000020349FEF73FFB80BD47
:104DE0002C00002074010020C2180108F0B587B023
:104DF000002506955422825C012A03D10224204614
:104E000007B0F0BD0646543601243470026893683A
:104E10005B0714D407694B68022B18D104200743A1
:104E2000994887426DD19748C0430B68D9430143E5
:104E3000906A084090620024002B66D4D2E0816D15
:104E400020220A4382653570204607B0F0BD0593E5
:104E500004231F438C4CA74262D10F683846894B0C
:104E60001840936A03439362380253698343896805
:104E7000014086480840184350610024002F00D4A8
:104E8000B0E0032082058248036819461140384685
:104E9000804F0490B84200D096E07A4F7F1CB94210
:104EA00000D391E07A48036893431943754A511837
:104EB000491C0160794800687949FBF7E4FC0C2142
:104EC0004143481C06900698002800D18AE00698C5
:104ED000401E06900698002800D183E00698401EE8
:104EE0000690069800287DD00698401E06900698E9
:104EF000002877D00698401E069006980028E6D134
:104F000070E00B680024002B6CD5FA480168624AF7
:104F100093426BD05F4A934264D10122920567E0CD
:104F20001F27059C27400F2400940397BC40076E61
:104F30000194A74302970C68524F3C42049462D0FC
:104F4000E4072F4667D1049FBC075FD47C075FD47A
:104F50003C075FD4FC061F465DD4049CA30671D4B5
:104F6000630671D4230671D4E30571D4049B9B05B9
:104F700070D4049B5B056FD4049B1B056ED4049B0B
:104F8000DB046DD4049B9B046CD4049B5B046BD446
:104F9000049B1B04009F3ED4049BDB0366D4049B4C
:104FA0009B0365D4049B5B0364D4049B1B0363D401
:104FB000049BDB0262D4049B9B0261D4049B5B02D2
:104FC000DB1716271F4026E0334F0498B84209D15B
:104FD0000127BF053B4005D1C648036893431943E9
:104FE00039430BE03570204607B0F0BD254A521C0E
:104FF00011400322920503689343591801603570EC
:10500000204607B0F0BD6300DF0E04E0012702E098
:10501000022700E00327039CA740029B1F4307666B
:10502000059B9B08C06998420AD90198C043936ABE
:105030000340049FB800000FA0401843906213E79C
:10504000049F11E70527E6E70627E4E70727E2E7DD
:105050000827E0E70927DEE70A27DCE70B27DAE77E
:105060000C27D8E70D27D6E70E27D4E71027D2E77D
:105070001127D0E71227CEE71327CCE71427CAE77A
:105080001527C8E7FFFF7F000400008000FFFF7FB7
:1050900008270140000200A4000400A830000020FE
:1050A000400D03000068006C70470000F0B589B047
:1050B000044600200890002C76D00790A06D0028B0
:1050C00007D125465435204600F016F900202870F7
:1050D000E06501273D072668B068C00026D4B068A7
:1050E0007F4901402943B1607E4800687E49FBF753
:1050F000CAFB400008900898002817D00898401E66
:1051000008900898002811D00898401E0890089828
:1051100000280BD00898401E08900898002805D059
:105120000898401E089008980028E7D1B0682842E7
:1051300008D1A06D10210143A165E06D0121079107
:105140000843E065B06804210140A26D10200240D0
:105150005118A16D2BD106900F20C7433A46F33A60
:105160001140891CA165B168C9077DD103900497DE
:1051700027462037216B4A1E91410D03A168227EEC
:1051800092030A43617EC9031143A27E5003084380
:10519000E36803432B430120C507216900290590DB
:1051A000029509DAA94308E0012009B0F0BD0143E6
:1051B000A165384609B0F0BD41050B43387B450079
:1051C0001D433878012809D1002A11D0A06D202173
:1051D0000143A165E06D05990843E065626A002A14
:1051E0000CD0072080010240A16A1143294306E048
:1051F000059800040543626A002AF2D12946F06846
:105200003A4A02400A43F2600320820763681D465F
:105210001540E16C387F01280ED1206C0090676C3E
:10522000A06C019000980743019807432F430F4358
:10523000059807433D4600E00D43049F30692C4923
:105240000140294331610298834203990CD0934273
:105250000AD005988007834206D088040340254978
:105260000A688243D0180860706907229043656B12
:1052700028437061706970218843A16B0901014363
:105280007161216901235805814203D000290BD1A6
:10529000B06A07E0B06AE06980001C301C21014060
:1052A0008F40206E3843B06270691040A8420AD126
:1052B0000020E065A06D0121014302208143A1652A
:1052C000079809B0F0BDA06D0699084302218843F4
:1052D000A065E06D1843E065184609B0F0BDC04612
:1052E000E8FFFF6F30000020400D03000102DEFFE9
:1052F00002FCFF1F0827014080B58AB000210991F8
:1053000008910791069105910491039100680D4958
:10531000884201D00AB080BD2020029002A801F08E
:1053200051FB002801D0FEF775FE0120000506495B
:105330000A6802430A6009680140019101980AB0B5
:1053400080BDC0460024014040100240F0B581B04D
:105350000D4604464069082801D1082704E020686A
:10536000C068C0073FD1042700F06AFD06462168E7
:10537000086838421CD001204202A36D1343A36584
:10538000CA681205920F4AD1A27E002A47D10A6844
:10539000120744D58A68520738D4224658324B68DF
:1053A0000C25AB434B60FF2502351368AB4334E05B
:1053B000002D1FD0681C10D108683842DBD1086866
:1053C0003842D8D108683842D5D108683842F3D07D
:1053D000D1E7216808683842CDD100F031FD801B4B
:1053E000A842F6D908E0A06D20210143A165012063
:1053F00001B0F0BD00F024FD542000212154A06D27
:1054000004210143A165032001B0F0BDA26D20235A
:105410001343A36522465C32E36D03431360227E8F
:105420000020002A01D001B0F0BD0C220A6001B0BA
:10543000F0BD000070B50146006882680220520786
:1054400011D454228A5C012A0DD00C465434012018
:10545000054620700E460846FBF76EFE002803D076
:1054600000202070284670BDB06D09490140012020
:1054700000020818B0650020F06531681C220A603F
:1054800020708A68304B13401A1D8A6070BDC04678
:10549000FEF0FFFFF0B581B004465420205C0128E7
:1054A00002D1022001B0F0BD2646543601273770E4
:1054B0002068816849071FD481688268D20737D085
:1054C0000222114034D1816805220A40012A27D1E5
:1054D00081681D4A0A40911C81600321016000F02F
:1054E000AFFC054620688068C00721D000F0A8FC0A
:1054F000401B0328F6D313E08168890704D4816830
:10550000114A0A401032826000F09AFC0546206879
:1055100081684907D0D500F093FC401B0328F6D3DF
:10552000A06D10210143A165E16D5C34384605E0B2
:10553000FF200230A16D81435834002000223270D8
:105540003943216001B0F0BDE8FFFF7F70B503462D
:105550000120CC0720D0114C0C40651EAC41032625
:105560001546F541032D17D87D442D796D00AF44C4
:105570000B0105090B4C0C400ED105E0084C0C400A
:105580000AD101E0002C07D1186841618168182315
:10559000994311438160002070BDC04680FFFF7FAA
:1055A00000FFFF7F0000FF7FF0B584B00E460221B0
:1055B00041770468A16801252943A160016A012996
:1055C0001ED002290ED0032928D1002A00D103E1E0
:1055D0000395032511462940042A00D3D2E033461F
:1055E0000025DEE057081ED0039503213B460B4003
:1055F00000937B1E032B029601971AD2002133E001
:10560000970814D003950323394619400091791E59
:1056100003290296019349D200257AE000214577BB
:10562000084604B0F0BD0021D2073CD1D4E00021EF
:105630009EE08F43002135466B882E883604F31890
:105640002360EB88AE883604F31823606B892E89BB
:105650003604F3182360EB89AE893604F31823600F
:105660001035091D8F42E7D1009F002F029E14D0F4
:105670008B00F1184D88F35A1B045B192360012F2E
:105680000BD0CB888D882D04EB182360022F04D01B
:105690004B8909890904C918216001998900039D72
:1056A000D20700D198E0715A218095E09F430025F0
:1056B00031460E7836064B781B049B198E783602DD
:1056C0009B19CE789B1923600B791B064E79360403
:1056D000F3188E7936029B19CE799B1923600B7AC9
:1056E0001B064E7A3604F3188E7A36029B19CE7A50
:1056F0009B1923600B7B1B064E7B3604F3188E7BB5
:1057000036029B19CE7B9B19236010312D1DAF42B1
:10571000CFD1009F002F029E26D0A900735C1B06EC
:1057200071184D782D04EB188D782D025B19CD780A
:105730005B192360012F17D00B791B064D792D04BF
:10574000EB188D792D025B19CD795B192360022F3F
:105750000AD00B7A1B064D7A2D04EB188D7A2D0298
:105760005B19C97A591821601146019B9943039D21
:1057700003231A407A441279520097442C011C24C6
:10578000715C27E0AA4300253346376827607768B5
:105790002760B7682760F768276010362D1DAA427A
:1057A000F3D1002905D0AA001D469B58236001298A
:1057B00017D1039D10E072185278715C09028918A4
:1057C0002180046808E072185378715C0902C918D6
:1057D000218091782170046821684577084604B0DB
:1057E000F0BDAA18536823600229039DF4D0916884
:1057F0002160F1E7B0B50125002814D00446407FB0
:10580000002804D100202077204600F031F8022043
:1058100060772079002808D0A168E2682046FFF769
:1058200095FE002808D02846B0BD20680F49416188
:10583000816818229143816000256079002801D099
:10584000216900E0E9432068016181686022914399
:1058500062690A438260816880229143A2690A4397
:105860008260012060772846B0BDC046B71DC104E4
:1058700081B000680849884201D001B0704701201A
:10588000000306490A6802430A6009680140009162
:10589000009801B07047C046003002403810024006
:1058A00070B500282CD0014624314A78022A29D12B
:1058B000046822680E239A432260426C1568314BBB
:1058C0001D4015602568012295432560046C1C2548
:1058D00025401446AC40D74D2E6826432E60846C7C
:1058E000C56C6560046D002C05D025681D402560E1
:1058F000436D806D58604A70002000220A7070BDB0
:10590000012070BD0422C263012000220A7070BD14
:1059100070B5242101244454014624314A78022AD6
:105920002BD103681A680E24A2431A601C68012256
:1059300094431C60446C2568124B1D402560046C28
:105940001C2525401446AC40BA4D2E6826432E60D7
:10595000846CC56C6560046D002C05D025681D4005
:105960002560436D846D5C6000240C704A70816B0F
:10597000002900D08847204670BD0421C16320461D
:1059800070BDC046FFFEFFFFF0B585B0016C1C2462
:105990000C4004231946A140A64A121F15680A4666
:1059A00003952A4056425641049005682A681746D6
:1059B0001F4078427841304332D0029501210226BF
:1059C0001046304047424741A640039B1E420D46C9
:1059D000019400D03946049F3C462434002931D03C
:1059E00008200240564256410198C340180700D58E
:1059F0003546002D24D1029A10680E21884310608C
:105A000001200146019A91408A4B1A680A431A60A4
:105A1000F863002121706070796B00290ED10FE0CE
:105A20002868800602D4286898432860814A106854
:105A300008431060049F396B002901D0384688471D
:105A400005B0F0BD029A1068800605D410680A21DE
:105A5000884310600120607000202070754908683C
:105A600030430860F96A0029E8D1E9E7F0B587B06A
:105A700000284AD00446014624310220069148708D
:105A800027683868344901403960344E30468030E8
:105A9000A0643348381814252946FAF7F4FE80002C
:105AA0008119206405916164FC203840083829463A
:105AB000FAF7E9FE1C22024001210B469340E36401
:105AC000A0680490E5682646103645CE0196E66942
:105AD0000296266A039628431043019A10430E4605
