:020000040800F2
:1000000048180020D500000881950008D58A00080E
:1000100000000000000000000000000000000000E0
:100020000000000000000000000000001D9D00080E
:10003000000000000000000029960008D99D00087B
:10004000E7000008E7000008E7000008E7000008F4
:10005000E7000008E7000008E7000008C1410008C9
:10006000E7000008BD310008CD310008E531000887
:10007000E7000008E7000008E7000008E7000008C4
:10008000E700000800000000000000006D9E00086E
:1000900000000000E7000008E7000008E700000893
:1000A000E7000008E7000008E7000008ADAF00081F
:1000B000B9AF0008000000000000000000000000D0
:1000C0000348854600F054FE0048004725B200086A
:1000D000481800200448804704480047FEE7FEE730
:1000E000FEE7FEE7FEE7FEE75D9E0008C1000008B0
:1000F0000048704778BD000810B50446FFF7F8FFC8
:100100000068005DC007C00F10BD014661391929A4
:1001100000D82038704703460B439B0703D009E003
:1001200008C9121F08C0042AFAD203E00B78037032
:10013000401C491C521EF9D27047D2B201E0027035
:10014000401C491EFBD270470022F6E710B513464B
:100150000A4604461946FFF7F0FF204610BD10B5C9
:10016000044605E00B780370401C002B00D0491CAE
:10017000521EF7D2204610BDCAB2401E4178401C24
:100180008A4202D00029F9D100207047421C017830
:10019000401C0029FBD1801A704710B5002200E0F6
:1001A000521C835C8C5CA34201D1002BF8D1D8B2E5
:1001B000E1B2401A10BD03460A780270401C491C87
:1001C000002AF9D118467047F8B50E4605460024B6
:1001D00000E0641C285D00F0A3FB0746305D00F0E2
:1001E0009FFB381A02D1295D0029F2D1F8BD000029
:1001F0000FB400B58DB009900B9010A900200091AC
:10020000C0430A9000200C900648069006480790CC
:100210006A4609A80F9900F09FFB0DB008BC04B016
:10022000184700007909000899090008FFB5002760
:10023000FF4383B000205C6801909E681D46A96959
:100240007F1C049888470090296A88470028F6D1C7
:100250000098401C0CD0032040028443002E19DD7E
:10026000600614D500982B2809D02D280FD103E063
:100270000020C04307B0F0BD012080020443A969FB
:100280007F1C04988847761E0090002E02DD00989F
:10029000302803D00598002825D035E00120400201
:1002A0000443A969761E7F1C049888470090002E9D
:1002B00003DD782805D0582803D00598002810D0F1
:1002C00022E00598002801D010281DD1012040020D
:1002D0008443A969761E7F1C0498884700901020EB
:1002E00002E0082000E00A2005900DE0012149020B
:1002F0000C43059A0199761E514308180190A9698B
:100300007F1C049888470090002E05DD0599009811
:1003100000F00CFB0028E9DAE96904988847A00599
:1003200002D40120C043A5E7E00722D1600611D521
:100330006005019800D5404229680A1D2A600968B5
:10034000220501D5087014E0220701D5088010E0CD
:1003500008600EE02868011D29600068210502D5AB
:100360000199017005E02107019901D5018000E0A4
:10037000016038467EE70000F7B5009C0F46002676
:100380002578641C002D05D0FFF7B2FE0068405DA3
:10039000C007F5D12B2D02D02D2D18D0641E394663
:1003A0002046029A00F00AFB002F04D03968A142CF
:1003B00001D1009939607105022400290BDA40420D
:1003C000002803DD0BF00CF80460A007FEBD01203F
:1003D00080020643E3E70028F8DA0BF001F8046036
:1003E0000048FEBDFFFFFF7F70B506460AF0F8FF2C
:1003F000046805460A2200213046FFF7BDFF2C6045
:1004000070BD70B506460AF0EBFF046805460A2287
:1004100000213046FFF7B0FF2C6070BDF8B50246F2
:100420004A40D40F42004B0052085B089A4202D265
:100430000246084611464A0023D0C30D4A00DDB2E9
:10044000120EAD1A202D35DA49020126490AF605A9
:100450008A19002C00D0524220214F1B1146B9406E
:100460002A411018C20D9A4221D0002C17D0012D1C
:1004700008DCDA05801AD20F8019D207DBB200F04F
:10048000F8FAF8BDDA05801A012340001B06C018EF
:1004900080185A428018CA0F1043490007E04908E3
:1004A000C2071143DA05801A80194008801800F04D
:1004B000D8FAF8BD61000122511A001BF7E70122AA
:1004C000D2075140AAE70122D2075040A6E70246D0
:1004D00070B54A40D30FDB0740002DD04A002AD028
:1004E000010E140E000212020919400A520A841861
:1004F000E50104465443000A120A2E045043A4198D
:100500004219200CC543AA18120C0125AD03521C38
:10051000521912047F39240400D0521C104301D414
:100520004000491EC2B20C06C0092018401C4008F9
:10053000802A02D003E0002070BD4008400000295E
:1005400000DA0020184370BD70B502464A40D50F4E
:1005500040004A00ED0740085208002814D0002A45
:1005600012D0C40DD30D41020120C0055202490A28
:10057000520AE41A091812187D34914201D3641CFE
:1005800000E04900002C01DA002070BD00239142F8
:1005900001D3891A0343400849000028F7D10029F4
:1005A0000AD0914202D10121C90705E0914201D24E
:1005B000012101E00121C943E005C018401900F004
:1005C00050FA70BDF0B51FB488B00B99099800249B
:1005D00048400999C00F490049080991C0070B9983
:1005E0000090490049080B9109990898A6460843CC
:1005F0001CD00B990A98084318D009980124400090
:10060000420D4800410D099824050003000B2043CA
:1006100009900B980003000B20430B9050181C49C5
:100620004018002201901446104605E000200146C3
:100630000DB0F0BD032801DA034600E003239C4619
:10064000C11A0AAE0AE05F0008ADED5B4F00F75B30
:100650007D430027AA187C41491C5B1E6145F2DDE1
:10066000410004AB5A522104120C0A43240C401CD2
:100670000828DFDB019802900099704601910090F4
:10068000059B049A0799069800F039FAD0E7000014
:100690000DFCFFFFF0B50C465C4085B0E40FE407AD
:1006A00003944C0000266408590094464908024609
:1006B0000296224321D062460A431ED06200570DA3
:1006C0004A000E032303550D012402462C4924053C
:1006D000781B1B0B360B40182343264361460090C2
:1006E0001C46501AB44103D30098401C009002E00D
:1006F000921800985B41002803DA0020014605B0FB
:10070000F0BD0020012109050746864611E0644638
:100710001D46141BB54106D36546521BB3417446B2
:1007200007430C43A646CD074008490828439218C2
:100730005B4105460D43EAD11046184313D060468D
:10074000194650407140084306D06046101AB34124
:1007500006D20122002306E000220123DB0702E08B
:100760000122D2435310009874460105381C6141A0
:10077000029C039D0019694100F0B4F9BFE7000035
:10078000FD0300000122D207002800DB101A002917
:1007900000DB511A814201D20120704700207047CE
:1007A0000122D207002800DB101A002900DB511AB1
:1007B000814201D90120704700207047C217C10F44
:1007C000504010B54018CA079623002100F051F997
:1007D00010BD10B500229623114600F04AF910BD55
:1007E0000EB5C217C10F5040CA0740180021054B73
:1007F0000293019200910A460B4600F080F903B083
:1008000000BD000033040000C20F4100400201237C
:10081000400ADB05D207090EC0187F2901DA002043
:100820007047962903DC9623591AC84001E096398F
:100830008840002AF4D040427047C20FD2074000DF
:1008400040080BD0C10D0723DB01C9184002090580
:10085000400A1143C2084007114370470020014677
:10086000704770B50446002903D0002020220123E0
:1008700010E0002801D00020C043C046C0460DE073
:100880002546D5408D4205D30D469540641B1D4637
:10089000954040191546521E002DF1DC214670BDD1
:1008A000F0B51FB40646002082B0054640240191F1
:1008B00000901BE0019922460F46304600F070FA86
:1008C000049A059B801A994110D310461946224676
:1008D00000F016F8361A8F410197224601200021B8
:1008E000009F00F00DF838184D4100902046641E1E
:1008F0000028DFDC019B00982946324607B0F0BD96
:1009000010B5202A04DB0146203A9140002010BD9A
:10091000914020239C1A0346E3401943904010BDA8
:1009200001464139192900D8203070473A2800D2B1
:100930003038202302469A43412A01D310463738E3
:10094000884201D30020C04370470000026813783A
:10095000511801601846704710B5D16004495161C3
:100960000449116200211161114600F03DFA10BDE9
:100970004D090008F90000084268002A08D0016803
:100980000B78491C002B03D0521E06C01846704736
:100990000121C160881E70474268002A0BD0C368DD
:1009A0000168002B07D183688B4204D0491E521C7A
:1009B00006C0002070470020C0437047F7B582B0E2
:1009C000029C00272078641C15460197302802D02D
:1009D000002D15D015E020780127641C782804D05C
:1009E000582802D0002D09D00BE0002D01D0102D89
:1009F00007D1002710252078641C02E0082500E0BC
:100A00000A250026009610E000990127694308187E
:100A1000020C294680B2714300908E183804864239
:100A200001D3012001902078641C2946FFF77EFF46
:100A30000028E9DA0398002805D0002F01D0641EB1
:100A400000E0029C04600198002806D00AF0C8FC6F
:100A500002210160C81E05B0F0BD009930040843B2
:100A6000F9E7002904DA401C490001D140084000A0
:100A7000704770B40024050C05D11024000402D185
:100A8000002921D01124050E01D100020834050FE0
:100A900001D10001241D850F01D18000A41C002874
:100AA00001DB4000641C002908D020252E1B0D46C8
:100AB000F540A14000D001212943084301061B1B3A
:100AC000000ADB1D02D5002070BC7047DB0518183A
:100AD00080180029F8DA401C4900F5D170BC4008A4
:100AE0004000704710B5002B08DA0024401C61411B
:100AF00092185B411A4301D14008400010BDF0B587
:100B00001FB482B005460C0003D008460AF050FC22
:100B100002E00AF04DFC20300246009021462846B3
:100B2000FFF7EEFE049B059A04460F461843114357
:100B3000084314D0184610431BD0009840210A1ACD
:100B40001846059900F02CF905460E46009A0599BD
:100B50000498FFF7D5FE084305D0012004E02046A5
:100B6000394607B0F0BD0020C11705430E432C43A2
:100B7000374300990E986305401A7905E40A00226C
:100B80000C43FD0A0A3002D500200146E9E70105C1
:100B9000101969410C9C0D9D00196941FFF7A2FFD6
:100BA000DFE70000F0B507460846584087B0C00FA1
:100BB000049048000E46590040084908BC1A884174
:100BC00005D2384631461E4617460B4602465800A7
:100BD000400810434CD0300D039040055900400DA3
:100BE000490D0590401A0290402872DA180301213D
:100BF000000B09050843019004980092002805D0D5
:100C000001995242002088410092019002984021AF
:100C10000A1A01990098FFF773FE05460C466B46C9
:100C200007CB00F0CEF8C0197141039A0E0D0023D6
:100C3000D71756401A467A40164344D0049A002AE1
:100C40002DD0029A012A039A15DC1205C01A91418F
:100C500001263605001C7141D20F059ED207009374
:100C6000019202962A462346FFF749FF07B0F0BDDE
:100C700038463146FAE71605224A0F46B218C01A1E
:100C8000B74101210905001C4F4100187F41114661
:100C900018187941E20F10436D19644113E0E2071F
:100CA0006D0815436408C2071443039A0126120510
:100CB000C01A91413605001C7141CE0740083043EF
:100CC0004908C01851412A462346FFF70BFFCDE7DC
:100CD000FFE7049801224000C117121A00238B413C
:100CE00004983146C417381AA141EEE730B4012404
:100CF000E407634030BC55E730B40124E4076140A9
:100D000030BC4FE70000E0FF4A0009030123090B54
:100D10001B0519430A4B10B5520D9A4202DA002006
:100D2000014610BD064B34339A4203DC9A1A00F098
:100D300037F810BD034BD218FFF7E2FD10BD0000DD
:100D4000FF030000CDFBFFFF10B5002904DB0124E9
:100D5000E40740428C412146002B04DB1C46012362
:100D6000DB075242A341994200D1904210BD0000DE
:100D70001CB5094800900948019005460126009CD1
:100D800005E0E36807CC33430C3C98471034AC4291
:100D9000F7D3FFF799F90000F0D1000810D200084E
:100DA00010B5202A04DB0846203AD040002110BDAF
:100DB0000B46D340D0402024A21A91400843194644
:100DC00010BD10B5202A06DBCB170846203A10418B
:100DD000C1170B4306E00B461341D0402024A21A52
:100DE00091400843194610BDF3B58DB000200A901C
:100DF00001200B90002608460C300C4609906269D1
:100E0000012109989047051E2ED0252D2DD0216A4D
:100E10008847002818D06269012109989047216A03
:100E200088470028F7D1411E62690998904700E081
:100E3000761CA1690D988847216A88470028F7D158
:100E4000E1690D988847DAE7A1690D988847074658
:100E5000A84201D1761CD2E7E1690D9888477F1C32
:100E600002D10A98002877D049E1002762693D46FF
:100E70003946099890472A280CD1626901210998BE
:100E80009047012506E00A214F433F18303FEBD43D
:100E900010200543626901210998904701463039C5
:100EA0000A2903D29B498F42DEDCECE7E90600D435
:100EB000994F6C280AD04C2810D0682824D06A2872
:100EC0002ED074280CD07A280AD00DE06269012156
:100ED000099890476C2823D004211CE0202005436A
:100EE0006269012109989047A760656065284FD025
:100EF00026DC582839D01ADC452849D012DC2528B0
:100F000034D04128B0D143E062690121099890476B
:100F1000682802D008210D43E6E70120C002DEE781
:100F20000220DCE7462833D047282CD130E05B286C
:100F300070D061282CD063286CD0642823D161E064
:100F40006F284FD009DC662822D0672820D0692876
:100F500026D06E2817D12EE0CDE070284DD0732812
:100F60006FD075284ED078280DD154E0A1690D9826
:100F700088470546252800D16CE7E1690D98884728
:100F80006D1C00D16DE7BAE00A224CE00A2252E063
:100F9000012023466A46C0430D99C046C046A3E0DF
:100FA0002846402108436060A807234601D5002257
:100FB00039E000223FE0E80700D020E72068011D6B
:100FC00021600068290501D5067018E7290701D5B9
:100FD000068014E7A90703D5F117066041600EE704
:100FE00006600CE72846402108436060A8072346B6
:100FF00001D5082217E008221DE04849284608408C
:10100000606016E02846402108436060A807234638
:10101000BCD5B9E715E02846402108436060A80721
:1010200007D5234610220120C0430D99C046C04673
:101030005AE0234610220120C0430D99FFF7F6F82D
:1010400052E000210C910B460091632802D05B28EE
:1010500007D043E0E80601D40120A0600120009001
:101060003CE062690121099890475E2805D1012082
:101070000C9001466269099890472169002906D1C0
:101080000B4601AA8F00491CD3510829FADB00281E
:1010900035D0216900290ED1C117C90E09184A118E
:1010A000930001AA9A1849094901411A01201368BD
:1010B00088400343136062690121099890475D28C5
:1010C000E5D10C98002808D0002001AB81005A58C7
:1010D000401CD2435A500828F8DB01AB01202246BD
:1010E000C0430D99C046C04600280ADA401C06D10C
:1010F0000B98002803D00020C0430FB0F0BD0A9821
:10110000FBE7E90702D10A99491C0A913618002029
:101110000B9074E6CCCCCC0CFFFFFF7FF1F7FFFF08
:10112000F0B581B005460024009400688168C907C5
:101130001CD181682B4A2F3211420AD0A86D102190
:101140000143A965E86D01242043E865204601B00C
:10115000F0BD8168234A114001273943816022484C
:101160000068000205D4687E012825D1204601B020
:10117000F0BD1E4800681E49FFF773FB401C00903D
:1011800000980028EFD00098401E0090009800289A
:10119000E9D00098401E009000980028E3D0009805
:1011A000401E009000980028DDD00098401E00905E
:1011B00000980028E7D1D6E704F010FC064604E0CA
:1011C00004F00CFC801B0328B8D228680168C9070A
:1011D000CCD18168C907F3D18168024A11403943F3
:1011E0008160EDE7E8FFFF7F082701402C00002029
:1011F000400D0300F0B583B05E490A684968401AA3
:1012000086185B49CF6801200023BE4202460EDDEE
:101210004C68A64205460FDA1543012D10D14D69E1
:10122000AE4213DC0022BE42034613DA13E01A4634
:101230004C68A6420546EFDB1D461543012DEED056
:101240000D4608350868A74217D043E00122BE4288
:10125000034600DB1346012B06D1CB699E420EDC10
:101260000022AE420EDA0EE028460D461035083157
:101270003C4607460868A7422CD103B0F0BD0122C6
:10128000AE4200DB1046029500281BD0A6423BDA96
:10129000886809680291FFF712F90546381BFFF7C5
:1012A0008DFA01462846FFF74FF90546301BFFF738
:1012B00085FA01462846FFF70AF90299FFF7AEF8CA
:1012C00003B0F0BD0D4618351031029C1F4608686A
:1012D000A742D2D0391B07460846FFF76FFA0290A3
:1012E00028683946FFF7EBF80299FFF72DF9054614
:1012F000301BFFF763FA01462846FFF7E8F8394646
:10130000FFF78CF803B0F0BD8869019009691C46AD
:10131000FFF7D5F807460298201AFFF74FFA014663
:101320003846FFF711F90546301BFFF747FA01462B
:101330002846FFF7CCF80199FFF770F803B0F0BD2D
:10134000B0B50A4C012500222046294604F03DFB99
:10135000284604F03FFA204629462A4604F035FB89
:101360000348406803490860B0BDC046000400500F
:1013700030000020DC000020F0B585B072B60025FA
:101380002C46009505E0019F79000D18641C182C6F
:101390004ED00195102101223D4804F016FB009823
:1013A00003900398072817D80398401C03900398CC
:1013B000072811D80398401C0390039807280BD8DE
:1013C0000398401C03900398072805D80398401CF5
:1013D000039003980828E7D320212D4F384604F0C6
:1013E000EFFA0546102100263846324604F0EDFAA1
:1013F0000496691E4842484104990729C3D80499B4
:10140000491C049104990729BDD80499491C0491E9
:1014100004990729B7D80499491C0491049907290C
:10142000B1D80499491C049104990829E7D3AAE783
:1014300010210122164804F0C8FA029602980728E3
:1014400017D80298401C02900298072811D80298D9
:10145000401C0290029807280BD80298401C02906A
:101460000298072805D80298401C02900298082884
:10147000E7D310210022064804F0A7FA780202D52B
:10148000FF200006054362B6284605B0F0BDC04601
:1014900000080050B0B5FFF76FFF0446FFF76CFF80
:1014A0008442254609DA84420ADDFFF765FF84425B
:1014B0000BDAA5420CDD2846B0BD05468442F4DCBB
:1014C0000446FFF759FF8442F3DB0446A542F2DCF1
:1014D00025462846B0BD0000F0B591B0F7A00AF04F
:1014E000F9FB012080050B90FF20019000060A9077
:1014F0000024F04D0C940294EF494E1C0C9A1446B3
:10150000134603E0641C202C00D1EFE107940893FC
:1015100009920691304672B60C9E3446059005E05D
:101520000E9949000E18641C182C4ED00E961021EE
:101530000122284604F049FA0C98109010980728C8
:1015400017D81098401C10901098072811D81098A0
:10155000401C1090109807280BD81098401C109031
:101560001098072805D81098401C1090109808284B
:10157000E7D32021284604F023FA0646102100274D
:1015800028463A4604F021FA0D971097711E4842FA
:10159000484110990729C3D81099491C10911099F6
:1015A0000729BDD81099491C109110990729B7D85F
:1015B0001099491C109110990729B1D81099491C0C
:1015C000109110990829E7D3AAE710210122284693
:1015D00004F0FBF90D9810901098072817D8109870
:1015E000401C10901098072811D81098401C10909B
:1015F000109807280BD81098401C109010980728B6
:1016000005D81098401C109010980828E7D3102196
:1016100028460D9C224604F0D8F931460A98014329
:1016200004910B980E9901400E9162B672B627464E
:10163000204606E00F99490008187F1C182FBE4D60
:101640004ED00F9010210122284604F0BEF90D98CB
:1016500010901098072817D81098401C10901098D8
:10166000072811D81098401C1090109807280BD804
:101670001098401C10901098072805D81098401C0E
:10168000109010980828E7D32021284604F098F9F4
:101690002A460546102100241046224604F095F9FA
:1016A0001094691E4842484110990729C2D81099E0
:1016B000491C109110990729BCD81099491C109108
:1016C00010990729B6D81099491C1091109907292B
:1016D000B0D81099491C109110990829E7D3A9E7AF
:1016E0000D9010210122284604F06FF910940E98F5
:1016F000002800D0049E04961098072817D8109848
:10170000401C10901098072811D81098401C109079
:10171000109807280BD81098401C10901098072894
:1017200005D81098401C109010980828E7D3102175
:101730002846224604F049F90D990A98014303917D
:101740000B980F9901400F9162B672B62646254656
:1017500005E00E9949000D18761C182E4ED00E95F6
:1017600010210122744D284604F02FF9109410988E
:10177000072817D81098401C10901098072811D8E7
:101780001098401C1090109807280BD81098401CF7
:1017900010901098072805D81098401C10901098A9
:1017A0000828E7D32021284604F00AF92A460546EE
:1017B0001021002710463A4604F007F91097691ED9
:1017C0004842484110990729C3D81099491C1091E3
:1017D00010990729BDD81099491C10911099072913
:1017E000B7D81099491C109110990729B1D81099B0
:1017F000491C109110990829E7D3AAE7102101226A
:101800004D4804F0E2F810970F98002801D0039893
:101810000D9010980728079C049E17D81098401C1C
:1018200010901098072811D81098401C109010980C
:1018300007280BD81098401C10901098072805D83E
:101840001098401C109010980828E7D3102100220F
:1018500039480F9204F0B9F862B60A2003F0BAFFD3
:101860000B980E99014201D00A980543099A089BEA
:10187000069F0D998E42304611DDA84212DA8E4243
:1018800013DA86422C4D00DC0646F0179B194241C4
:1018900005988642314623DDB94225DA32E608460C
:1018A000A842ECDB28468E42EBDB0E468642224DF8
:1018B000EADDEAE700080050FFFFFF7F5461726134
:1018C0006E646F2E2E2E20416775617264652065EF
:1018D00073746162696C69646164652E0D00000057
:1018E0000646B94200DA0DE639460BE6711A019850
:1018F0002C308142029C0DDD1BA009F019FD641CF7
:101900000A2C00D0F7E526480AF0E4F90B484068B5
:1019100011B0F0BDD017C00E18180F9951414009F1
:10192000C90641180548416005A009F001FD0348BA
:10193000406811B0F0BDC04600080050DC00002037
:1019400054617261206573746176656C20636F6E9B
:10195000636C7569646121204F6666736574203D10
:101960002025640D0A0000004C656974757261736E
:1019700020696E7374617665697320286469666690
:101980003A202564292E2054656E74616E646F20A0
:101990006E6F76616D656E74652E2E2E0D0A0000D9
:1019A00060CF00087D200001054948607047C046AF
:1019B000704700007D200001014988607047C046E3
:1019C0006801002001480121417070475800002043
:1019D00080B5184800F0FCFD1748184901F02CFCB0
:1019E000174802F0E1FA174802F0A0FC164807F089
:1019F00069FE07F0A1FD08F093F902F0EFFBFFF795
:101A00009FFC12480AF066F911A00AF063F91AA0C7
:101A100009F08EFC02F026FE002801D121A000E092
:101A20001EA00AF057F92A4807F090FD294807F050
:101A3000A1FD80BDD80A00206C0B0020692F000892
:101A40004C060020B804002080090020ABC200082A
:101A5000312E204D6F64756C6F7320646520536F59
:101A60006674776172652065204472697665727369
:101A70002E2E2E204F4B0D00322E20476572656EA4
:101A8000636961646F7220646520436F6E66696785
:101A9000757261636F65732E2E2E20005B4F4B5D58
:101AA0000D0000005B415649534F5D205265737431
:101AB00061757261646F20636F6D20636F6E66691C
:101AC000677320646520666162726963612E0D0030
:101AD00000008E420AD7CD41F0B593B0D24FB8780E
:101AE000022866D0012873D1D0A00AF0F3F803E0F1
:101AF00000F098FE01F060FF00F08CFC0028F7D1A8
:101B000001F0CEFB0028F3D10A2003F063FE05208C
:101B100000070290012671020191324603F055FF41
:101B200019204701384603F055FEC74820252946AD
:101B3000324603F04AFF384603F04CFEC348C4491E
:101B4000016000242046314604F0EEFC08F048F91C
:101B500007F066FC07F098FCBE48BF4901F06CFB3B
:101B6000BEA00AF0B7F8B8482946224603F02DFF78
:101B7000384603F02FFE02980199224603F025FF14
:101B8000384603F027FE632001F016FC01F088FBC5
:101B9000002805D001F010FF01F082FB0028F9D1E8
:101BA00003F01CFFA04988604C700220887013B0BD
:101BB000F0BD7878012800D0AAE00020B8707870D5
:101BC000BE480AF087F8082000F09AF913B0F0BD7B
:101BD00000F028FE01F0F0FE01F06EFB00F04CFD7D
:101BE00008F0AAF803F0FAFE7969401A19214E01AB
:101BF0003146C731884269D903F0F0FE786102F0BE
:101C0000E9FA044602F0F0FA2046FEF7E2FD044647
:101C100007F0A4FC7F20C00503900020109003A8CB
:101C200010A902F0E9FAA6492046FEF750FCA549A2
:101C3000FEF7F4FB0399FEF74AFC1099FEF7EEFB62
:101C400007F088FCF878012843D003F0C7FE397903
:101C500000294BD001F0A8FA382801D035287FD1CF
:101C600003A807F05FFC98490398FEF76DFC974DB9
:101C70002946FEF72CFCFEF7C7FD0146944C204692
:101C8000203001F07BFC04982946FEF720FCFEF78B
:101C9000BBFD01462046303001F070FC7879401CD5
:101CA0007871C0B205285DD30020787108F082F900
:101CB000054607F05BFC85492846FEF708FCFEF761
:101CC000A3FD0146204601F0EBFB4BE0F87801282C
:101CD000BBD10020F870FFF7DDFBFFF78BFA07F0B0
:101CE00041FC03F07BFE39790029B3D13969411AEF
:101CF0003246C832914237D3386101F0D1FA002818
:101D000032D10120387101F04FFA3828A6D1A7E767
:101D100003F064FEB968401A604DA84206D96648CF
:101D200009F0D8FF0120B87013B0F0BD03F056FEE3
:101D3000F968401A19214901C73188426DD903F069
:101D40004DFEF86003F04AFEB968441A7D20C100D8
:101D50002046FEF786FDAC4255D805210C1A53E00B
:101D6000002078710020387103F038FEB969401AFC
:101D7000C836B0423BD303F031FEB86101F014FA2B
:101D8000082834D10FA80EA90DAA07F073FC00286B
:101D90002DD00CA80BA90AAA07F048FC002826D0D1
:101DA0000EA803780FA802780DA80078009003AC65
:101DB0004849204609F0E8FA0CA802780BA80378F5
:101DC0000AA80078009010AD43A1284609F0DCFA7B
:101DD000012046030827304621463A4601F0DAFC46
:101DE0001036304629463A460F4F01F0D3FC02F038
:101DF000A5FA3878012800D0D9E60120B870002073
:101E0000387013B0F0BD002425A0214609F090FAE7
:101E100021B21520000201F043FB01F0CDFD01F0DD
:101E20004BFA13B0F0BDC04658000020456E7472E6
:101E3000616E646F20656D206D6F646F2053746FE9
:101E4000702E2E2E0D00000000040050187000406F
:101E5000010001006C0B0020692F00080D0A3E3EB6
:101E60003E20544F51554520444554454354414428
:101E70004F2120456E7472616E646F20656D206D18
:101E80006F646F20646520636F6E6669726D616355
:101E9000616F2E2E2E203C3C3C0D0000881300006C
:101EA00054656D706F2072657374616E74653A204D
:101EB00025750A0D000000006BC2000844C200082E
:101EC00086D01CB9CD6CC64300007A440000204186
:101ED00030220000D6C20008253032642F2530326F
:101EE000642F25303264000080B57D20800003F02F
:101EF00071FC02480121017080BDC04658000020DD
:101F000070B586B0044655A009F0E4FE002001F04B
:101F100053FA01F051FD5B4803F05CFC01AD112167
:101F2000284602F0DBF9012006033046103056A1A6
:101F3000042201F02FFC56A10822304601F02AFCB1
:101F40003046203055A1072201F024FC2846FEF738
:101F50001DF9303682B23046294601F01BFC51A0F3
:101F600009F0B8FE01F09CF9002805D001F024FD2D
:101F700001F096F90028F9D1564809F0ABFE564811
:101F800009F0A8FE012001F017FA01F015FD7D20EF
:101F9000C5002E46C836304603F01CFC4F4809F0F9
:101FA00099FE022001F008FA01F006FD304603F028
:101FB00011FC4B4809F08EFE032001F0FDF901F001
:101FC000FBFCFFF789FA284603F004FC454809F0BA
:101FD00081FE042001F0F0F901F0EEFC07F0EAFFC9
:101FE000064607F0C3FA3046FEF727FC02463EA03D
:101FF0000B4609F09DF9284603F0ECFB424809F036
:1020000069FE052001F0D8F901F0D6FC01F0D8FFF7
:102010000646002815D03E4809F05CFE6435284687
:1020200003F0D8FB3B4809F055FE062001F0C4F947
:1020300001F0C2FC284603F0CDFB374809F04AFE08
:1020400003E0324809F046FE3B24204601F0B4F993
:1020500001F0B2FC304606B070BDC0460D0A3E3EEF
:102060003E20494E494349414E444F204155544F2B
:10207000444941474E4F535449434F203C3C3C0D4B
:1020800000000000B80B0000312E303000000000CE
:10209000302E30302E30303100000000302E303005
:1020A0002E303200456E7669616E646F20696E660F
:1020B0006F726D61636F657320646520626F6F740A
:1020C0002070617261206F20646973706C61792E79
:1020D0002E2E0D0090C20008E9C100088EC1000834
:1020E00069C10008C1C100082020202E2E2E2054D6
:1020F000656D70657261747572613A20252E326665
:1021000020430D0A000000003DC1000820C2000865
:102110000DC200081CC10008F8C0000810B586B048
:102120001C4C204609F004F9204609F001F91A4830
:1021300009F0FEF805A804A903AA07F09BFA0028F5
:1021400008D003A8037804A8027805A8017813A092
:1021500009F0EEF802A801A96A4607F067FA00281C
:1021600008D06846037801A8027802A8017816A072
:1021700009F0DEF8074C204609F0DAF8204609F0AD
:10218000D7F8204609F0D4F8204609F0D1F806B077
:1021900010BDC0461DC900082BBE000841737369FD
:1021A0006E61747572612020202020202020202064
:1021B00020202020253032643A253032643A253000
:1021C00032640A0D00000000526573706F6E736117
:1021D00076656C2020202020202020202020202018
:1021E000253032642F253032642F253032640A0DB9
:1021F0000000000010B586B0072901D8464828E045
:10220000801D891F89B203AA0B2301F077FB0028E8
:102210001ED003A80078002822D0684600248472CB
:102220000481019400940B2102F046F800281FD08D
:1022300069468C7203A8FDF7B0FF00281DD01EA0D0
:1022400003A909F075F83E2001F0B6F806B010BDFC
:102250000EA009F03FFD3B2001F0AEF806B010BD26
:1022600025A009F037FD3E2001F0A6F806B010BD0C
:102270003B2001F0A1F806B010BD19A009F02AFD1D
:10228000172001F099F806B010BDC046417574687A
:102290003A2046616C6861206E6F207061727365D0
:1022A0007220726F627573746F2064612073656E43
:1022B00068612E0D00000000417574683A20536576
:1022C0006E686120696E636F72726574612E20445E
:1022D0006967697461646F3A20272573270D0A00C6
:1022E000417574683A2053656E686120636F72723D
:1022F000657461210D000000417574683A205365D2
:102300006E68612076617A696120726563656269D1
:1023100064612E0D000000000BD0000810B584B0E1
:10232000082904D23B2001F047F804B010BD801DFD
:10233000891F89B201AA0B2301F0E0FA002816D008
:1023400001A8FDF723FF002813D0314C2178002984
:1023500017D000202070641C01A92046FDF71DFF46
:10236000002820D0402001F027F804B010BD15A0AF
:1023700000E01EA009F0AEFC3B2001F01DF804B007
:1023800010BD042804D23F2001F016F804B010BD9F
:10239000601C01A9FDF70FFF012020701F2001F034
:1023A0000BF804B010BD204602F010F9002804D14B
:1023B0003B2001F001F804B010BD172000F0FCFF35
:1023C00004B010BD417574683A2046616C686120A4
:1023D0006E6F20706172736572206465206E6F7617
:1023E000612073656E68612E0D0000004175746890
:1023F0003A204E6F76612073656E68612076617A4F
:10240000696120646573636172746164612E0D009B
:1024100058010020EE488178002901D00120704742
:10242000C1880089081A411E8841704710B50068AC
:10243000C169090702D5416A08210162E44CE068DC
:1024400005F0A8FCE0680122214606F05FF810BD07
:10245000F0B581B0574C6078002800D0A7E025780F
:102460000C2D32DC082D40D00A2D32D0FDF740FE75
:102470000068405D8006C00E00D189E0A0887E28FB
:1024800000D985E04E490D54401CA0801B2003F06C
:10249000B5FE092003F0B2FE47480A2D0AD1E188B3
:1024A000491C01402289914204D0E288434B0D2609
:1024B0009E54E180E188491C0140208981425DD021
:1024C000E0883E4A1554E18058E07F2D0DD00D2D57
:1024D000CCD1A088002858D0394900220A540120C4
:1024E000607038A009F0F6FB52E0A08800284FD0B9
:1024F000401EA0801B2003F081FE092003F07EFE19
:10250000E088401C2C4F38402189884204D0E18863
:102510002A4A08235354E0801B25284603F07EFEF8
:102520000926304603F07AFE284603F067FE30465F
:1025300003F064FEE088401C38402189884204D0C2
:10254000E1881E4A20235354E0801B25284603F0CF
:1025500065FE0926304603F061FE284603F04EFE74
:10256000304603F04BFEE088401C38402189884209
:1025700004D0E188114A08235354E0801B2003F063
:102580004DFE092003F04AFE02E0A54808F0D0FE07
:10259000E0680122214605F0B9FF002807D0E06875
:1025A00005F0F8FBE0680122214605F0AFFF01B01D
:1025B000F0BDC04674000020FF030000840C002022
:1025C000040C00200D000000BA4800218170704703
:1025D00080B50849C860012205F098FF002801D0A5
:1025E00001F0F6FD04A009F075FB8D4808F0A0FE8F
:1025F00080BDC046740000200D0A434C4920507233
:102600006F6E74612E2044696769746520274845A0
:102610004C5027207061726120636F6D616E646F32
:10262000732E0D0070B504461B2003F0E7FD092052
:1026300003F0E4FDA0480A2C0BD19E49CA88521C25
:1026400002400B899A4204D0CB889C4D0D26EE5453
:10265000CA809849CA88521C02400889824203D025
:10266000C888964B1C54CA801B2003F0D7FD092054
:1026700003F0D4FD70BDC046F0B581B0544E707803
:10268000012800D0A2E0FDF733FD05460068514C5B
:102690002778C15DC90706D06778C15DC907A41C4A
:1026A0000029F5D1641E20212046FDF765FD002894
:1026B0001AD000210170811C2A684D1E2878135CF5
:1026C000DB0716D00878135CDB0711D04878135C61
:1026D000DB0759D08878135CDB07091D002BECD190
:1026E0008D1E002807D007E00025002F07D163E0EA
:1026F0000D46002800D105462778002F5CD03649CA
:102700002046FDF761FD00283CD035492046FDF705
:102710005BFD324F00283BD032492046FDF754FD87
:10272000002837D030492046FDF74EFD002833D031
:102730002E492046FDF748FD00282FD02C49204681
:10274000FDF742FD00282BD02A492046FDF73CFD2D
:10275000002827D028492046FDF736FD002823D041
:1027600026492046FDF730FD00281FD02449204689
:10277000FDF72AFD00281BD0224823A1224608F09D
:10278000D7FD19E0154F14E04D1C0028B3D0B3E776
:1027900008370EE010370CE018370AE0203708E061
:1027A000283706E0303704E0383702E0403700E0F1
:1027B000483779682846884706488021FDF7C4FCD9
:1027C00000207070B080164808F0B2FD01B0F0BD76
:1027D00074000020040C00203DC8000838C0000828
:1027E00012C8000833C8000838C8000842C80008EA
:1027F00047C8000818C800082AC8000820C80008F0
:1028000025C80008D1C70008436F6D616E646F2052
:10281000646573636F6E68656369646F00000000D0
:10282000CCC7000870B5234CA078002803D1E088FD
:102830002189884200D170BD1B2003F0DFFC0920F4
:1028400003F0DCFCA078012806D11B2003F0E6FC95
:10285000092003F0E3FC70BD0120A0702089E1880D
:10286000884201D1002512E000211348134A238930
:1028700025896D1C054025816518D35C2B7423893F
:102880004D1CE688B34202D03F292946EFD31B20D6
:1028900003F0C4FC092003F0C1FC2804CBD0E0689D
:1028A00021461031AAB205F071FE0028C3D00020E5
:1028B000A07070BD74000020FF030000840C002095
:1028C000F0B585B0854F381D5B210191C900FDF73A
:1028D0003BFC83480121039139606121B860F960B4
:1028E00000263E827F20C00578617E48F86159202D
:1028F000C00038187CA11CC91CC00A8802808978D5
:102900008170384620307C49096810252A46FDF739
:1029100026FC30203E543846313078490A2422467D
:102920000494FDF7F8FB744BD86A196B4622B95230
:10293000442178523B203E549869386438464830E8
:10294000196C02952A46FDF70AFC58203E54384679
:1029500059306A492246FDF7DEFB674BD86E196F86
:102960006E22B9526C21785263203E543446986DE1
:10297000B86680269959384670302A46FDF7EFFB35
:102980002546BC55384681305C49049C2246FDF7FB
:10299000C2FBB020584A105896217852AC201058EB
:1029A0009421785298201058902178508B203D54D3
:1029B000C020115838469830029E3246FDF7CFFBB2
:1029C000A8203D543846A9304C492246FDF7A3FBC8
:1029D000F020494A1058BE217852EC201058BC21F2
:1029E0007852D8201058B8217850B3203D5403981D
:1029F000000211583846C03032463446FDF7AFFB6E
:102A0000D0203D543846D1303C49049E3246FDF733
:102A100082FB132000010090374A1058E6217852BB
:102A20004B2080001058E42178522320C000105819
:102A3000E0217850DB203D540520800111583846B4
:102A4000E8302246FDF78BFBF8203D543846F9303C
:102A50002A493246FDF75FFB17200001264C20581B
:102A6000872149007852019880002058432189002D
:102A700078522B20C00020582121C9007850FF2611
:102A8000304604303D541120000138180321C9019B
:102A90006158029AFDF763FB092040013D5430461E
:102AA000223038181549049AFDF735FB1B20000128
:102AB00020589B21490078526B20800020584D21DE
:102AC000890078523320C0002058009978502C3665
:102AD000BD550B480399417105B0F0BD841000202D
:102AE00073656E68050002003232303130313031AA
:102AF000303031303031000050BE0008E4D10008E1
:102B0000D000002070B5002818D00446FDF7F0FA78
:102B1000054600682178415CC90716D06178415CA0
:102B2000C9070FD0A178415CC9070DD0E178415C9D
:102B3000C907241D0029EDD1641E06E040A008F05D
:102B4000F7FB70BD641C00E0A41C20212046FDF7AB
:102B500013FB00281AD000210170811C2A684D1E29
:102B60002878135CDB0714D00878135CDB070FD0E0
:102B70004878135CDB0738D08878135CDB07091DC5
:102B8000002BECD18D1E002805D005E0002503E0C8
:102B90000D46002800D105461B492046FDF714FBD1
:102BA000002818D01A492046FDF70EFB174E0028C2
:102BB00016D018492046FDF707FB002819D0164902
:102BC0002046FDF701FB002818D0144814A1224626
:102BD00008F0AEFB70BD0D4E71682846884770BD89
:102BE000083671682846884770BD4D1C0028D2D031
:102BF000D2E7103671682846884770BD183671686C
:102C00002846884770BDC04614C8000888C0000820
:102C10004CC80008EBC7000850C80008D1C700081E
:102C2000537562636F6D616E646F204457494E2027
:102C3000646573636F6E68656369646F00000000AC
:102C4000537562636F6D616E646F204457494E2007
:102C500066616C74616E646F2E2055736520274821
:102C6000454C50272E00000080B588B001A806F022
:102C700059FC0AA009F02EF80198FDF7DEFD024686
:102C80000CA00B4608F054FB0298FDF7D6FD024657
:102C90000FA00B4608F04CFB08B080BD4461646F88
:102CA00073206465204672657175656E6369613A6B
:102CB0000D00000020202D2050756C736F732028AC
:102CC000656D203173293A20252E31660D0A0000EA
:102CD00020202D20457363616C61204120286361B1
:102CE0006C63293A20252E32660D0A0080B588B023
:102CF00001A806F017FC0398FDF79FFD024603A00C
:102D00000B4608F015FB08B080BDC0464461646FF7
:102D1000732064612042616C616E63613A0D0A2028
:102D2000202D205065736F3A20252E326620670DC6
:102D30000A00000080B507F03DF9FDF77EFD024670
:102D400002A00B4608F0F4FA80BDC04654656D70D1
:102D50006572617475726120696E7465726E61204E
:102D6000646F204D43553A20252E326620430D0ACC
:102D70000000000080B5024808F0ACFF80BDC046EE
:102D8000D6C3000880B52E2000F016FB80BD0000E1
:102D9000B0B584B0002825D001A9009119A103ADD8
:102DA00002AC2A462346FDF723FA03281FD12878D0
:102DB000411EC9B21E291AD821784A1ED2B20B2A46
:102DC00015D801AA127806F0B3FC002814D001A887
:102DD000037802A8027803A801781CA008F0A8FADA
:102DE00004B0B0BD244808F075FF04B0B0BD094878
:102DF00008F070FF04B0B0BD07A008F06BFF04B08E
:102E0000B0BDC046256868752F256868752F256890
:102E10006875000030C300084572726F3A20466141
:102E20006C686120616F2073657461722061206439
:102E3000617461206E6F20686172647761726520D1
:102E4000646F205254432E0D000000004F4B2E2083
:102E500052544320617475616C697A61646F2070AB
:102E600061726120253032752F253032752F253063
:102E700032750D0A000000007CC3000870B584B0F4
:102E8000002822D001AE009617A103AD02AC2A465D
:102E90002346FDF7ADF903281CD12878172819D847
:102EA00021783B2916D832783B2A13D806F052FCF9
:102EB000002814D001A8037802A8027803A801789A
:102EC0001BA008F035FA04B070BD244808F002FFDA
:102ED00004B070BD084808F0FDFE04B070BD07A046
:102EE00008F0F8FE04B070BD256868753A2568687A
:102EF000753A256868750000E5C200084572726F72
:102F00003A2046616C686120616F2073657461725C
:102F1000206120686F7261206E6F20686172647733
:102F200061726520646F205254432E0D0000000032
:102F30004F4B2E2052544320617475616C697A6145
:102F4000646F207061726120253032753A2530320D
:102F5000753A253032750D0A00000000A9C300083B
:102F600080B508F045F880BD10B5062900D2BEE056
:102F700002785A2A00D0BAE04278A52A00D0B6E0FA
:102F8000C278832A00D0B2E0427903791B029A18F2
:102F9000082992B214D300236B4CA2420ED06B4C82
:102FA000A2420BD06A4CA24208D08378DC1C8C422F
:102FB00006D8C3189C785B781B021B19654C2380CC
:102FC000654B9A4216DD654B9A4229DC6B4B9A425F
:102FD00047DC6B4B9A4200D192E06123DB019A42BD
:102FE00078D0684B9A4200D081E05A4A128800F0AB
:102FF000D3FD10BD644B9A4221DD644B9A424CDCF8
:10300000644B9A4200D197E0504B9A4200D188E03D
:10301000614882426BD14F48008800F097FE10BD96
:103020004F4B9A422CDC524B9A426DD0514B9A42F4
:1030300055D0514882425AD100F09AFF10BD574BEB
:103040009A4237DD404B9A4241D081208001824232
:103050003AD0534882424AD13E48008800F044FDAD
:1030600010BD31200002824253D08120C001824233
:1030700038D005200003824239D105F001FD10BD92
:10308000384B9A4248D0384B9A4231D03748824226
:103090002DD149483821018010BD3D4B9A424ED078
:1030A000C1239B019A423FD0294B9A421FD1FFF77F
:1030B00035F910BD1920000282421ED039488242E3
:1030C00015D1FEF711FF10BD01F0AAFB10BDFFF7EF
:1030D00091F810BD1F4A128800F080FE10BD06F066
:1030E0009FFB10BD00201B49085E01F0D5FB10BD01
:1030F000184A128800F0D4FE10BDFEF763FC10BD24
:103100002020FEF7FDFE10BD1248008800F0BCFC38
:1031100010BD00F023FF10BD0E48008800F096FCA3
:1031200010BD06F069FC10BD0A480088411E4842E7
:10313000484100F0DBFD10BD06F004FF10BD05485E
:10314000008800F08BFD10BD302000000F30000023
:1031500060300000000C00206F3000000F70000095
:103160005F700000607000007070000090700000E0
:10317000107000002070000030700000FF30000070
:1031800070300000903000005F2000002F30000001
:103190003030000060200000203000002F200000B0
:1031A0005020000020200000034800887047C046DF
:1031B000014908807047C0465000002080B5024891
:1031C00002F0B0F980BDC0463805002080B5034844
:1031D00002F0A8F9024802F0A5F980BDDC04002045
:1031E0009405002080B5024802F09CF980BDC046DD
:1031F000F005002080B500680E21016202F0EEFBB0
:10320000DC49486100208870487080BD10B54A1EB6
:103210003F2A0AD80068054A904206D1D54C218140
:103220000120607002F0DAFBA06110BD0044004094
:10323000D048002101707047F0B581B00546CD4FF0
:10324000002038707870B880F880B870FD603961FF
:1032500078613C461C34402620463146FCF774FF1A
:10326000C5488021FCF770FF0C483146FCF76CFF25
:1032700028462146324604F0C1FC00280BD0F868ED
:1032800004F088FDF8684022214604F0B7FC0028CD
:1032900001D000F09DFF01B0F0BDC04680130020BA
:1032A000F3480178002901D0012070478188C08847
:1032B000081A411E8841704770B590B002F08EFB2D
:1032C000EB4E7169002907D07169411A64295FD3F7
:1032D000002171610121B170B17801291CD1002058
:1032E000B0707070F06804F055FDF06834461C341E
:1032F0004022214604F082FC002849D0F06804F006
:1033000049FDF0684022214604F078FC00283FD0B7
:1033100000F05EFF10B070BD7178012938D1B1693D
:10332000401A142834D372B6348935461C356846A1
:1033300029462246FCF7EFFE00207070308162B60D
:10334000F0684022294604F059FC00280BD0F068B0
:1033500004F020FDF0684022294604F04FFC0028CC
:1033600001D000F035FF6B46987859781A78062C12
:1033700010D15A2A0ED1A5290CD103280AD1DD7803
:10338000822D07D11D794F2D04D15B794B2B01D1B3
:1033900010B070BD042CFBD35A2AF9D1A529F7D15E
:1033A000C01CC1B28C42F3D33269002AF0D0684607
:1033B000904710B070BDC046F0B581B004461C20E7
:1033C00002F01CFF0B2002F019FFF0488188C28830
:1033D000914207D2C1888288D24389188DB20A2DC2
:1033E00007D24EE08188C288511A7F318DB20A2DF2
:1033F00047D3210A00918288E5495A268E54828853
:10340000571C7F22174087808788A523CB55838848
:103410005B1C1340838083880727CF5483885B1C01
:103420001340838083888227CF5483885B1C13409A
:10343000838083880027CF5483885B1C134083805C
:1034400083888427CF5483885B1C134083808388C0
:10345000CE5483885B1C1340838083880126CE541E
:1034600083885B1C134083808388009ECE548388AE
:103470005B1C134083808388CC548188491C114095
:1034800081801C2002F0CAFE0B2002F0C7FE092D2D
:1034900002D8002001B0F0BD012001B0F0BDC0464F
:1034A000F0B583B00C4605461C2002F0A7FE0B20A9
:1034B00002F0A4FEB5488188C288914207D2C18833
:1034C0008288D24389188EB2082E07D243E08188C1
:1034D000C288511A7F318EB2082E3CD3A1B22A0A7B
:1034E0000192090A02918288A9495A238B54828841
:1034F000531C7F22134083808388A527CF54838861
:103500005B1C1340838083880527CF5483885B1C12
:103510001340838083888227CF5483885B1C1340A9
:1035200083808388019FCF5483885B1C13408380F2
:103530008388CD5483885B1C134083808388029DDD
:10354000CD5483885B1C134083808388CC5481884E
:10355000491C114081801C2002F060FE0B2002F00B
:103560005DFE072E02D8002003B0F0BD012003B09D
:10357000F0BDC046E4000020C0130020F0B585B0C7
:103580000C4605461C2002F039FE0B2002F036FEE8
:10359000D8488188C288914207D2C1888288D243A4
:1035A00089188EB20A2E07D254E08188C288511A37
:1035B0007F318EB20A2E4DD3210A0491210C039142
:1035C000210E0291290A01918388CB495A27CF54B1
:1035D00083885F1C7F231F4087808788A522CA5568
:1035E0008288521C1A408280828807278F548288E2
:1035F000521C1A408280828882278F548288521CF3
:103600001A4082808288019F8F548288521C1A40FF
:10361000828082888D548288521C1A4082808288DF
:10362000029D8D548288521C1A4082808288039D9C
:103630008D548288521C1A4082808288049D8D5449
:103640008288521C1A40828082888C548188491C4E
:10365000194081801C2002F0E1FD0B2002F0DEFD0C
:10366000092E02D8002005B0F0BD012005B0F0BD44
:10367000E4000020F0B583B00026002900D182E0EC
:10368000054600287FD0EE4FF86800287BD00C4616
:103690001C2002F0B3FD0B2002F0B0FDB888F988C1
:1036A00088420AD2F888B988C943401880B2844257
:1036B0000AD8012684420AD95FE0B888F988081A36
:1036C0007F3080B28442F4D90026844255D80196D6
:1036D0000320214601400091611E032901D20022EE
:1036E00029E0844300220295A85CBB883946D54F67
:1036F000F8548888401C7F2318408880A8182546E5
:1037000044788E88BC558C88641C1C408C808478DE
:103710008E88BC558C88641C1C408C80C0788C883A
:1037200038550F462C46029D8888401C18408880DA
:10373000121D9442D8D1009C002C019E1DD0A85C83
:10374000BB88C049C854B888401C7F231840B88043
:10375000012C12D0A81841782546BC88B94A1155C9
:10376000B988491C1940B980022D06D08078B988E3
:103770005054B888401C1840B8801C2002F04EFD00
:103780000B2002F04BFD304603B0F0BDE4000020FA
:10379000C0130020F0B593B00026002A00D1A6E0A7
:1037A000002900D1A3E01446A54FFA68002A00D1F1
:1037B0009DE0019002910846FCF7E8FC0546A04216
:1037C00000D325466A1DD1B23D2900D98FE003AC54
:1037D000019B63718221E170A270A52060705A2064
:1037E0002070180A2071A01D02992A46FCF793FC4C
:1037F0002819FF21C17181711C2002F0FFFC0B20F0
:1038000002F0FCFCB9880835E8B2FA8891420BD284
:10381000F988BA88D243891889B281420BD3012230
:10382000029281420BD25BE0B988FA88511A7F314B
:1038300089B28142F3D200220292814250D3032105
:103840000D400195411E032901D2002125E0FC21F4
:10385000084000217B4A03AC635CBE889355BB885B
:103860005E1C7F231E40BE8064186678BD88565556
:10387000BD886D1C1D40BD80A578BE889555BD884E
:103880006D1C1D40BD80E478BD885455BC88641C07
:103890001C40BC80091D8842DDD1019D002D1FD038
:1038A00003A8425CBB886748C254BA88531C7F2275
:1038B0001340BB80012D13D003AB5B185B78BC8831
:1038C0000355BB885B1C1340BB80022D08D003ABA3
:1038D00059188978BB88C154B888401C1040B880FA
:1038E0001C2002F09BFC0B2002F098FC029E30464C
:1038F00013B0F0BDE4000020C0130020F0B583B089
:103900001C4615460E46521E29469141421E019004
:1039100090410840012E01D8002100E00121014022
:10392000601E274687410F40012F42D1284621467D
:10393000FCF70AFC022C38D3B01EA11E884200D32B
:1039400008460290401C00900122002305E0D01C94
:103950001B1D121D0099884227D00198C618717846
:10396000FF2922D0202900D3E954029898421CD084
:10397000B178FF2919D0202901D3E81841700298A5
:10398000824212D0F178FF290FD0202901D3E81804
:103990008170901C0099884207D03179FF2904D0AA
:1039A0002029D4D3E818C170D1E72819401E00217E
:1039B0000170384603B0F0BD70B5214C2078002866
:1039C0003DD1A088E188884239D01C2002F016FC45
:1039D0000B2002F013FC2078012806D11C2002F0F5
:1039E0001DFC0B2002F01AFC70BD01202070E08845
:1039F000A188884201D1002512E000211148124A15
:103A0000E388C35C5354E3885B1C7F251D40E5803D
:103A1000E3884D1CA688B34202D03F292946EFD344
:103A20001C2002F0FBFB0B2002F0F8FBE068AAB2BE
:103A3000054904F0ABFD002801D00020207070BDC6
:103A4000E4000020C01300208013002080B504484B
:103A500004A12022FFF79EFE3820FFF7A9FB80BDBE
:103A60009640000041646A757374467265717565AD
:103A70006E63793A20333030302E304B487A2B2F1A
:103A80002D322E300000000010B50A4C002807D05F
:103A9000FEF716FF08A110222046FFF77BFE10BD9F
:103AA0000AA11B222046FFF775FE3020FFF784FC99
:103AB00010BDC04696400000507265736574204387
:103AC0006F6D706C65746F2100000000507265733B
:103AD0006574207265646566696E65206F73206128
:103AE0006A75737465732100F0B593B087490978DE
:103AF000012903D1002803D006F036F813B0F0BD39
:103B000008AC204600F0C2FB207809AE314600F038
:103B1000A3FB01A805F006FD00F0C4FB04461B4D05
:103B2000102228463146FFF735FE2020315E284618
:103B3000C030FFF7B5FC0A271298784301B2284637
:103B4000E030FFF7ADFCF08C784301B22846F0304E
:103B5000FFF7A6FC012C01D00E4900E00C490798A4
:103B6000FCF7B5FCFCF750FE014690352846FFF700
:103B700097FC012C04D07720FFF71EFC13B0F0BD9A
:103B80001320FFF719FC13B0F0BDC04670200000F1
:103B9000000020410000C842B0B594B0502A1ED1A8
:103BA00001AC0020207505900490039002900190D4
:103BB0001521204600F032FB07AD23A128462246FE
:103BC00007F0E2FB2846FCF7E1FA82B21D482946DD
:103BD000FFF7E0FD2320FFF7EFFB14B0B0BD01AC11
:103BE0000022227505920492039202920192801D96
:103BF000891F89B215232246FFF780FE002814D0C2
:103C00002078002811D001AC204600F09DFC07ADC3
:103C100007A12846224607F0B7FB2846FCF7B6FA6C
:103C200082B208482946FFF7B5FD14B0B0BDC046C2
:103C30004E6F766120456D70726573613A20257311
:103C40000000000096400000417475616C20456DD5
:103C500070726573613A20257300000070B58AB0F8
:103C6000154C502814D100F01DFB02466D4619A1D9
:103C7000284607F089FB2846FCF788FA82B22046DE
:103C80002946FFF787FD1B20FFF796FB0AB070BDA2
:103C9000054600F07FFC6E4608A130462A4607F034
:103CA00073FB3046FCF772FA82B220463146FFF7CA
:103CB00071FD0AB070BDC046964000004E6F766F31
:103CC000204E525F446563696D616C733A202575BF
:103CD00000000000417475616C204E525F446563C2
:103CE000696D616C733A20257500000080B5074945
:103CF0000870002804D109A10CA007F019FB80BDB1
:103D000003A10AA007F014FB80BDC04652000020AA
:103D1000484142494C4954414441000044455341C3
:103D200042494C49544144410000000044697370C9
:103D30006C61792048616E646C65723A20496D70DF
:103D400072657373616F2025730D0A0070B58AB0B8
:103D5000154C502814D100F0A9FA02466D4619A15D
:103D6000284607F011FB2846FCF710FA82B22046DD
:103D70002946FFF70FFD1A20FFF71EFB0AB070BDA2
:103D8000054600F015FC6E4608A130462A4607F0AD
:103D9000FBFA3046FCF7FAF982B220463146FFF7CB
:103DA000F9FC0AB070BDC046964000004E6F766FB9
:103DB000204E525F52657065746974696F6E3A2067
:103DC00025750000417475616C204E525F5265701C
:103DD00065746974696F6E3A20257500B0B594B04A
:103DE000502A1ED101AC002020750590049003904C
:103DF000029001901521204600F084FA07AD23A11E
:103E00002846224607F0C0FA2846FCF7BFF982B2DE
:103E10001D482946FFF7BEFC2220FFF7CDFA14B05B
:103E2000B0BD01AC00222275059204920392029269
:103E30000192801D891F89B215232246FFF75EFD7E
:103E4000002814D02078002811D001AC204600F0C2
:103E5000EDFB07AD07A12846224607F095FA284654
:103E6000FCF794F982B208482946FFF793FC14B096
:103E7000B0BDC0464E6F766F205573756172696F25
:103E80003A202573000000009640000041747561DF
:103E90006C205573756172696F3A202573000000BC
:103EA000B0B592B0002A20D00DAC0022227410923E
:103EB0000F920E920D920830083989B211232246D2
:103EC000FFF71CFD00282ED0207800282BD017A04B
:103ED0000DAD294607F02CFA284600F08DFB6C4604
:103EE00032212046FCF730F912E03620FFF760F966
:103EF0000DAD0020287410900F900E900D906C4620
:103F000032212046FCF720F91121284600F0E6F97D
:103F100020462946FCF74FF9FCF738F982B21948D8
:103F20002146FFF737FC12B0B0BDC046446973703C
:103F30006C61792048616E646C65723A20526563E9
:103F4000656269646F206E6F766F20736572696158
:103F50006C3A20272573270A0000000080B5094825
:103F600009490E22FFF716FC2120FFF725FA80BD34
:103F700080B5044804490E22FFF70CFC3220FFF7FD
:103F80001BFA80BD964000002ED000080148012198
:103F9000017070475004002087498878012801D1BA
:103FA00000228A707047C046834900224A700A7016
:103FB000C8600A618A7070477F4800787047C046C1
:103FC00080B57D48C068002808D0A0210222642363
:103FD00001F0A6FD01464042484180BD002080BD61
:103FE000F0B585B00024002912D0124FFB68002BD9
:103FF0000ED00D4603920490A0210222642618469A
:10400000334601F08DFD002805D00BA007F062FEBD
:10401000204605B0F0BDF86800950399019102961D
:10402000A0210223049A01F021FE4442444120468B
:1040300005B0F0BD40010020454550524F4D5F5244
:104040006561643A20446973706F73697469766F4F
:10405000206E616F20657374612070726F6E746F73
:104060002E0D0000F0B585B0294D287801240128D7
:1040700008D1A878012808D127A007F02BFE00203E
:10408000A8702870204605B0F0BD01F0A7FC696952
:10409000401A002105282DD30491AA881F20104022
:1040A0002021081A2F89B842064600D33E46B2188E
:1040B000AA802B699B192B61BE1B2E8187421DD9BB
:1040C000E86864270297B6B2202E00D30E4600930C
:1040D000019692B2A021022301F0E2FE00280FD047
:1040E00001460C4807F024F90120A870049C2046E2
:1040F00005B0F0BD0C46204605B0F0BD0020C0E77D
:104100002C7001F06BFC6861049C204605B0F0BD8A
:104110004001002081CF0008454550524F4D2028D6
:10412000424C4F434B494E475F54455354293A2024
:104130004572726F2064652049324320646574655E
:10414000637461646F210D00F0B583B005461A4EAB
:10415000F068434243410024002A22D0002920D0A5
:1041600037781F43FB071CD10024B4703281B5801F
:1041700031617470642302931F232B402027FB1AA4
:10418000934200D3134600910193A02102232A46B3
:1041900001F086FE002807D00146084807F0C8F85D
:1041A0003470204603B0F0BD0124347001F016FCD9
:1041B0007061204603B0F0BD40010020CACF000866
:1041C00080B5202001F01EFB802001F01BFB80BD8C
:1041D00072B6FEE707480068406A704780B5054838
:1041E00003F0EEF880BDC04602480068002141623D
:1041F0007047C0468C0A002010B54A1E0B469341FA
:10420000441E0246A2411A40012A04D1E74B5C69D0
:10421000046098690860104610BDC046B0B54C1ED9
:10422000A141421E054695410D40012D08D1532163
:104230008900E54A51182246FBF791FF00210155FC
:104240002846B0BD80B5002804D0B7218A00E949CE
:10425000FBF761FF80BDC04670B50246072801D359
:10426000002300E001234C1E0846A041184001280D
:104270000AD128235343EB4AD218203238CA38C116
:1042800038CA38C178CA78C170BDC046002805D088
:10429000E4494979072900D300210170411E884172
:1042A0007047C046EE48C08B7047C046EC48808BD4
:1042B0007047C04607207047B0B54C1EA141421E52
:1042C000054695410D40012D06D1E54908312246AC
:1042D000FBF745FF002101552846B0BDB0B54C1E87
:1042E000A141421E054695410D40012D08D159219D
:1042F000C900DB4A51182246FBF731FF0021015566
:104300002846B0BDB0B54C1EA141421E05469541A0
:104310000D40012D08D12721C900D14A511822464C
:10432000FBF71DFF002101552846B0BDCB490022F7
:104330004A710A7108608A717047C04670B55C4D59
:10434000287900281CD0A979012957D1401E0528B9
:1043500048D8C046784400794000874435025C67FD
:104360005075FFF77FFE002848D0FFF715FE0028A4
:1043700000D18FE06F4807F0ADFC0720287170BDB9
:10438000687901282BD1FFF717FE002836D101F0FC
:1043900025FBA968401A694988422FD3002068711B
:1043A0000126AE712868002807D0AD4CB622214600
:1043B00000F0C8FE5B21C9006050614807F08AFC2C
:1043C0002E71A879002819D0B72082000020A449B6
:1043D000FFF7BAFE002845D00220287170BDA879E9
:1043E00000280BD0012068710020A871287101F00D
:1043F000F5FAA8605048514906F09AFF70BD1720A1
:104400008001B7218A00EF49FFF79EFE00282FD0D8
:104410000620287170BDB7208200101DE949FFF702
:1044200093FE00282AD00420287170BDFFF71AFEE1
:104430000028E3D0FFF7B0FD002825D03A4807F068
:1044400049FC0720287170BDFFF70CFE0028D5D06D
:10445000FFF7A2FD002823D023A007F03BFC072094
:10446000287170BD374807F035FC0720287170BDF2
:104470002B4807F02FFC0720287170BD2B4807F050
:1044800029FC0720287170BD264807F023FC052071
:10449000287170BD264807F01DFC0320287170BDEF
:1044A00004A007F017FC0020A871287170BDC04659
:1044B000D000002053746F726167652046534D3AF7
:1044C00020426C6F636F20424B5032204F4B2E20A6
:1044D00053616C76616D656E746F20636F6D706C87
:1044E00065746F2E0D00000053746F726167652054
:1044F00046534D3A204572726F206465206472699C
:1045000076657220616F20657363726576657220CF
:10451000426C6F636F20424B50322E0D0000000042
:104520005CCA000845CB000810CB00082FCA000861
:1045300062CB000883CB000829C90008881300005B
:10454000BACA000889CA0008B0B50146002000298F
:1045500010D08D4CA279002A0CD153208000994DA7
:1045600028181422FBF7FBFDFF206030002129549E
:1045700001206071B0BDC04601460020062907D861
:10458000814A9379002B03D1012050718D4A5171DA
:104590007047C04601467C4A9079002803D1012328
:1045A0005371884AD183012148407047841000200C
:1045B0000146754A9079002803D101235371814A3D
:1045C000918301214840704784100020B0B5014616
:1045D000002000290DD06C4CA279002A09D1794D18
:1045E000284608300A22FBF7BAFD0120607100213D
:1045F000A974B0BD84100020B0B501460020002988
:104600000FD0614CA279002A0BD15920C0006D4D0A
:1046100028181022FBF7A3FD03480021295401208C
:104620006071B0BD84100020D7020000B0B5014613
:104630000020002910D0544CA279002A0CD1272048
:10464000C000604D28181422FBF789FDFF204C3074
:104650000021295401206071B0BDC046D000002067
:1046600084100020F0B581B04748006800281FD0B2
:1046700046A007F02FFBB72085000024514F2046AD
:1046800039462A46FFF7ACFC002815D05B20C00055
:104690003E583D480068B622394600F053FDB0420E
:1046A0000FD15E4806F044FE0124204601B0F0BD63
:1046B0000024204601B0F0BD4348002106F038FE3A
:1046C00005E0024641480021334606F031FE40A095
:1046D00007F000FB281D3B4F39462A46FFF780FCB8
:1046E00000280CD05B20C0003E5827480068B62246
:1046F000394600F027FDB04207D1474825E0172092
:104700004101314806F014FE06E00246172041013F
:104710002E48334606F00CFE3C4807F0DBFA172023
:104720008601284F304639462A46FFF759FC0028B3
:1047300013D05B20C0003D5813480068B6223946AC
:1047400000F000FDA8420DD1324807F0C3FA012461
:104750000D484471204601B0F0BD1B48314606F0BB
:10476000E7FD05E00246194831462B4606F0E0FD1C
:10477000274807F0AFFAFEF7A3F801200249487175
:10478000204601B0F0BDC046D00000204545505243
:104790004F4D204D616E616765723A2056657269B2
:1047A000666963616E646F20696E746567726964BF
:1047B00061646520646F73206461646F732E2E2EB4
:1047C000000000008410002072C90008A8C9000879
:1047D000454550524F4D204D616E616765723A20DC
:1047E0005072696D6172696F20636F72726F6D7064
:1047F00069646F2E2054656E74616E646F2042612F
:10480000636B757020312E2E2E000000BCCB00088B
:104810007CCC000839CC0008F6CB0008F8C90008A9
:10482000B0B582B00EA007F055FA3C4C0120607084
:1048300001A800250570FFF729FD01982070FFF7FA
:1048400039FD21784AB2824201DB2570294648B2FF
:1048500006F054FC2420FEF7AFFD02B0B0BDC04608
:104860004772616F735F48616E646C65723A204590
:104870006E7472616E646F206E61206C6F67696325
:10488000612064652073656C6563616F20646520D9
:104890006772616F732E0D00B0B504461F4D6878C6
:1048A00001283AD1FFF706FD002836D0611E052900
:1048B00033D8C0467944097949008F4402170C2E39
:1048C0002E2200206870295620A006F031FD28789D
:1048D000FFF752FE1AE02978491E4AB2002A00D595
:1048E000411E297048B206F009FCB0BD2978491C68
:1048F0004AB28242F5DB0021297048B206F0FEFB85
:10490000B0BD0020687006A007F0E4F90824204636
:10491000FEF74EFC2046FEF74FFDB0BD64010020BF
:104920004772616F735F48616E646C65723A2053C1
:10493000656C6563616F206465206772616F2063D9
:10494000616E63656C6164612E0D00004772616F7A
:10495000735F48616E646C65723A204772616F20C4
:10496000696E6469636520272564272073656C651B
:1049700063696F6E61646F2E2053616C76616E6443
:104980006F2E2E2E0D0A0000F0B587B0002506957B
:104990005422825C012A03D10224204607B0F0BDD4
:1049A0000646543601243470026893685B0714D4B9
:1049B00007694B68022B18D10420074399488742A6
:1049C0006DD19748C0430B68D9430143906A0840B2
:1049D00090620024002B66D4D2E0816D20220A432D
:1049E00082653570204607B0F0BD059304231F4350
:1049F0008C4CA74262D10F683846894B1840936AA5
:104A000003439362380253698343896801408648AF
:104A10000840184350610024002F00D4B0E0032068
:104A2000820582480368194611403846804F049039
:104A3000B84200D096E07A4F7F1CB94200D391E093
:104A40007A48036893431943754A5118491C016019
:104A5000794800687949FBF704FF0C214143481C61
:104A600006900698002800D18AE00698401E06901D
:104A70000698002800D183E00698401E069006980C
:104A800000287DD00698401E06900698002877D012
:104A90000698401E069006980028E6D170E00B6844
:104AA0000024002B6CD5FA480168624A93426BD00F
:104AB0005F4A934264D10122920567E01F27059C5B
:104AC00027400F2400940397BC40076E0194A7432E
:104AD00002970C68524F3C42049462D0E4072F4680
:104AE00067D1049FBC075FD47C075FD43C075FD4C9
:104AF000FC061F465DD4049CA30671D4630671D4E2
:104B0000230671D4E30571D4049B9B0570D4049BE8
:104B10005B056FD4049B1B056ED4049BDB046DD432
:104B2000049B9B046CD4049B5B046BD4049B1B040C
:104B3000009F3ED4049BDB0366D4049B9B0365D497
:104B4000049B5B0364D4049B1B0363D4049BDB02C0
:104B500062D4049B9B0261D4049B5B02DB17162783
:104B60001F4026E0334F0498B84209D10127BF0502
:104B70003B4005D1C64803689343194339430BE0D2
:104B80003570204607B0F0BD254A521C1140032263
:104B9000920503689343591801603570204607B0A9
:104BA000F0BD6300DF0E04E0012702E0022700E011
:104BB0000327039CA740029B1F430766059B9B0896
:104BC000C06998420AD90198C043936A0340049F80
:104BD000B800000FA0401843906213E7049F11E74C
:104BE0000527E6E70627E4E70727E2E70827E0E7E7
:104BF0000927DEE70A27DCE70B27DAE70C27D8E7E7
:104C00000D27D6E70E27D4E71027D2E71127D0E7E4
:104C10001227CEE71327CCE71427CAE71527C8E7E2
:104C2000FFFF7F000400008000FFFF7F0827014096
:104C3000000200A4000400A82C000020400D030086
:104C40000068006C70470000F0B589B00446002091
:104C50000890002C76D00790A06D002807D125463B
:104C60005435204600F016F900202870E065012731
:104C70003D072668B068C00026D4B0687F4901406F
:104C80002943B1607E4800687E49FBF7EAFD400099
:104C900008900898002817D00898401E0890089897
:104CA000002811D00898401E0890089800280BD0C2
:104CB0000898401E08900898002805D00898401EC3
:104CC000089008980028E7D1B068284208D1A06D64
:104CD00010210143A165E06D012107910843E065C2
:104CE000B06804210140A26D102002405118A16D4E
:104CF0002BD106900F20C7433A46F33A1140891C46
:104D0000A165B168C9077DD1039004972746203774
:104D1000216B4A1E91410D03A168227E92030A4332
:104D2000617EC9031143A27E50030843E368034335
:104D30002B430120C507216900290590029509DA56
:104D4000A94308E0012009B0F0BD0143A165384640
:104D500009B0F0BD41050B43387B45001D43387851
:104D6000012809D1002A11D0A06D20210143A1659D
:104D7000E06D05990843E065626A002A0CD00720BF
:104D800080010240A16A1143294306E0059800040E
:104D90000543626A002AF2D12946F0683A4A024085
:104DA0000A43F2600320820763681D461540E16CE8
:104DB000387F01280ED1206C0090676CA06C0190A8
:104DC00000980743019807432F430F430598074373
:104DD0003D4600E00D43049F30692C4901402943C2
:104DE00031610298834203990CD093420AD005980E
:104DF0008007834206D08804034025490A6882431D
:104E0000D0180860706907229043656B2843706171
:104E1000706970218843A16B0901014371612169A7
:104E200001235805814203D000290BD1B06A07E065
:104E3000B06AE06980001C301C2101408F40206E68
:104E40003843B06270691040A8420AD10020E06582
:104E5000A06D0121014302208143A165079809B09B
:104E6000F0BDA06D0699084302218843A065E06D5E
:104E70001843E065184609B0F0BDC046E8FFFF6F73
:104E80002C000020400D03000102DEFF02FCFF1F8A
:104E90000827014080B58AB0002109910891079147
:104EA000069105910491039100680D49884201D053
:104EB0000AB080BD2020029002A801F051FB00281A
:104EC00001D0FFF785F90120000506490A68024371
:104ED0000A6009680140019101980AB080BDC0468E
:104EE0000024014040100240F0B581B00D46044658
:104EF0004069082801D1082704E02068C068C0077D
:104F00003FD1042700F06AFD064621680868384250
:104F10001CD001204202A36D1343A365CA68120589
:104F2000920F4AD1A27E002A47D10A68120744D5BF
:104F30008A68520738D4224658324B680C25AB4356
:104F40004B60FF2502351368AB4334E0002D1FD0C2
:104F5000681C10D108683842DBD108683842D8D1C3
:104F600008683842D5D108683842F3D0D1E72168C3
:104F700008683842CDD100F031FD801BA842F6D937
:104F800008E0A06D20210143A165012001B0F0BD22
:104F900000F024FD542000212154A06D0421014380
:104FA000A165032001B0F0BDA26D20231343A365CA
:104FB00022465C32E36D03431360227E0020002A08
:104FC00001D001B0F0BD0C220A6001B0F0BD0000BC
:104FD00070B50146006882680220520711D454223D
:104FE0008A5C012A0DD00C465434012005462070FD
:104FF0000E460846FCF794F8002803D000202070E5
:10500000284670BDB06D0949014001200002081812
:10501000B0650020F06531681C220A6020708A6843
:10502000304B13401A1D8A6070BDC046FEF0FFFF72
:10503000F0B581B004465420205C012802D1022042
:1050400001B0F0BD264654360127377020688168CC
:1050500049071FD481688268D20737D002221140E5
:1050600034D1816805220A40012A27D181681D4A6E
:105070000A40911C81600321016000F0AFFC0546ED
:1050800020688068C00721D000F0A8FC401B0328DE
:10509000F6D313E08168890704D48168114A0A4075
:1050A0001032826000F09AFC05462068816849074A
:1050B000D0D500F093FC401B0328F6D3A06D10213F
:1050C0000143A165E16D5C34384605E0FF20023004
:1050D000A16D814358340020002232703943216091
:1050E00001B0F0BDE8FFFF7F70B503460120CC079B
:1050F00020D0114C0C40651EAC4103261546F541ED
:10510000032D17D87D442D796D00AF440B0105099F
:105110000B4C0C400ED105E0084C0C400AD101E0CC
:10512000002C07D118684161816818239943114305
:105130008160002070BDC04680FFFF7F00FFFF7FC1
:105140000000FF7FF0B584B00E460221417704686D
:10515000A16801252943A160016A01291ED0022905
:105160000ED0032928D1002A00D103E1039503259D
:1051700011462940042A00D3D2E033460025DEE060
:1051800057081ED0039503213B460B4000937B1E1E
:10519000032B029601971AD2002133E0970814D00E
:1051A00003950323394619400091791E032902967D
:1051B000019349D200257AE000214577084604B0E2
:1051C000F0BD0021D2073CD1D4E000219EE08F4306
:1051D000002135466B882E883604F3182360EB884F
:1051E000AE883604F31823606B892E893604F318D1
:1051F0002360EB89AE893604F31823601035091D4E
:105200008F42E7D1009F002F029E14D08B00F1182F
:105210004D88F35A1B045B192360012F0BD0CB88F8
:105220008D882D04EB182360022F04D04B89098947
:105230000904C918216001998900039DD20700D192
:1052400098E0715A218095E09F43002531460E7801
:1052500036064B781B049B198E7836029B19CE7844
:105260009B1923600B791B064E793604F3188E794F
:1052700036029B19CE799B1923600B7A1B064E7A56
:105280003604F3188E7A36029B19CE7A9B19236066
:105290000B7B1B064E7B3604F3188E7B36029B1964
:1052A000CE7B9B19236010312D1DAF42CFD1009FC3
:1052B000002F029E26D0A900735C1B0671184D7842
:1052C0002D04EB188D782D025B19CD785B192360C6
:1052D000012F17D00B791B064D792D04EB188D7912
:1052E0002D025B19CD795B192360022F0AD00B7A4E
:1052F0001B064D7A2D04EB188D7A2D025B19C97AA5
:10530000591821601146019B9943039D03231A40BC
:105310007A441279520097442C011C24715C27E0D6
:10532000AA43002533463768276077682760B76847
:105330002760F768276010362D1DAA42F3D1002997
:1053400005D0AA001D469B582360012917D1039D53
:1053500010E072185278715C090289182180046883
:1053600008E072185378715C0902C918218091789D
:105370002170046821684577084604B0F0BDAA187A
:10538000536823600229039DF4D091682160F1E7FE
:10539000B0B50125002814D00446407F002804D170
:1053A00000202077204600F031F802206077207935
:1053B000002808D0A168E2682046FFF795FE002883
:1053C00008D02846B0BD20680F4941618168182285
:1053D0009143816000256079002801D0216900E0B7
:1053E000E9432068016181686022914362690A4350
:1053F0008260816880229143A2690A438260012011
:1054000060772846B0BDC046B71DC10481B00068B2
:105410000849884201D001B07047012000030649C5
:105420000A6802430A60096801400091009801B0CF
:105430007047C046003002403810024070B5002866
:105440002CD0014624314A78022A29D104682268E6
:105450000E239A432260426C1568314B1D40156043
:105460002568012295432560046C1C2525401446BF
:10547000AC40D74D2E6826432E60846CC56C6560A9
:10548000046D002C05D025681D402560436D806D9E
:1054900058604A70002000220A7070BD012070BD63
:1054A0000422C263012000220A7070BD70B524215D
:1054B00001244454014624314A78022A2BD103683E
:1054C0001A680E24A2431A601C68012294431C60CF
:1054D000446C2568124B1D402560046C1C2525403A
:1054E0001446AC40BA4D2E6826432E60846CC56CC1
:1054F0006560046D002C05D025681D402560436D56
:10550000846D5C6000240C704A70816B002900D0AF
:105510008847204670BD0421C163204670BDC04647
:10552000FFFEFFFFF0B585B0016C1C240C40042386
:105530001946A140A64A121F15680A4603952A403B
:1055400056425641049005682A6817461F40784223
:105550007841304332D00295012102261046304076
:1055600047424741A640039B1E420D46019400D08E
:105570003946049F3C462434002931D0082002409B
:10558000564256410198C340180700D53546002DB4
:1055900024D1029A10680E21884310600120014630
:1055A000019A91408A4B1A680A431A60F8630021F5
:1055B00021706070796B00290ED10FE02868800699
:1055C00002D4286898432860814A10680843106014
:1055D000049F396B002901D03846884705B0F0BDDB
:1055E000029A1068800605D410680A21884310606A
:1055F0000120607000202070754908683043086001
:10560000F96A0029E8D1E9E7F0B587B000284AD067
:105610000446014624310220069148702768386804
:10562000344901403960344E30468030A0643348FC
:10563000381814252946FBF714F9800081192064D5
:1056400005916164FC20384008382946FBF709F9C8
:105650001C22024001210B469340E364A0680490A1
:10566000E5682646103645CE0196E6690296266A1A
:10567000039628431043019A10430E4602990843AB
:105680000399084339680143049A11433960B1030F
:105690001B488A420AD1002205990A6062600360B1
:1056A000154613461BE0012007B0F0BD6168CFB27C
:1056B000059A17600360491E002203291546134608
:1056C0000DD8791E8A0082180023D36703250D4068
:1056D0003346AB400B490B607C32BC3005460020A2
:1056E000E06322656565A365069908704E7007B092
:1056F000F0BDC0460F80FFFF00080240F8FFFDBF6D
:105700008408024044090240F0B583B004462420D6
:10571000205C012802D1022003B0F0BD25462435CB
:105720006878012830D10092022068700020E06380
:105730002668326801270297BA433260A26CE76C90
:105740005760226D0192002A02D0626DA76D5760EA
:10575000226C1C271740029ABA401D4F3F6817431E
:105760001B4A17607360A368102B009F3A4600D055
:105770000A46B260102B00D03946F1603168226BC6
:10578000002A06D00E2209E002200021297003B071
:10579000F0BD04229143316032680A211143316027
:1057A00002990902626C1368DB0302D513680B438C
:1057B0001360019B002B02D01A680A431A603168FB
:1057C000029A114331600021297003B0F0BDC04638
:1057D00004000240B0B5044600F000F90546601C24
:1057E00002D004480078241800F0F8F8401BA042CA
:1057F000FAD3B0BD0800002080B5202801D1FEF703
:10580000C5FB80BDB0B50446074D2868204203D0D3
:105810002C60204600F00AF86868204203D06C60D3
:105820002046FFF7E9FFB0BD0C18024070470000AA
:10583000F0B58AB0069009910B68002B00D1B4E056
:105840005B480699814201D0062000E005200B222A
:105850001207069989180A22D1410091042900D320
:10586000009006982030019000252E460795294685
:105870000FE01A4362600899491C099803681846AA
:10588000C8400835B61C079A121D0792002800D19F
:105890008BE0012420460891884003400393EAD01E
:1058A000049509994A6810211143122915D11C2128
:1058B000079A114005960F2632468A40089BDB085E
:1058C0009F00019BDD599543099A12693240059E5C
:1058D0008A402A43DA5109994A680323114619403C
:1058E000B1400293B3403746069E35689D430D4351
:1058F00035603E46D9430591122A049D15D894403F
:105900002E490C420FD0069CA168059B1940099BAB
:10591000DB68B3400B43A3601109089B994063689F
:1059200083430B436360032AA5D0069BD86805997F
:10593000084009998968B1400143D960D0009AD5DF
:10594000182028400F218140089A029B9A43194C45
:10595000A218136E8B4300998140194311661648B3
:10596000026809984068C10302D5039B1A4301E00D
:10597000039B9A4310490A604A68810301D51A4380
:1059800000E09A430C494A602268C10205D51A43D7
:1059900022606268800206D56BE79A4322606268E3
:1059A000800200D565E79A4364E70AB0F0BDC046BF
:1059B0000014005000180240801802400600060043
:1059C00000690840411E88417047002A02D0182211
:1059D00081507047282281507047000001480068BC
:1059E0007047C04640140020B0B50246034640331D
:1059F0005C780220202C17D11C78012C14D0242094
:105A00005870106802680124A243026022030568EE
:105A10009543056002680A43026001682143016002
:105A20000020187020215970B0BDB0B50246034661
:105A300040335C780220202C17D11C78012C14D024
:105A400024205870106802680124A24302600F22CB
:105A50001202056895430902294301600168214348
:105A600001600020187020215970B0BDF0B581B0E0
:105A7000002822D0054640356978002905D100214B
:105A80002970044600F026FB204624216970016835
:105A90000B68012293430B600F231B0644689C4351
:105AA0000C618C681C4B1C408C608468C668012E9D
:105AB00006D1D60334438C600CE0012001B0F0BD68
:105AC0002127BF023C438C60022E03D1D4024E68D2
:105AD000264302E0D4024E68A6434E604C680F4E47
